:10000000F8FF022099010000A12F0000592F0000E5
:10001000592F0000592F0000592F0000592F0000C0
:10002000592F0000592F0000592F0000A12F000068
:10003000A12F0000592F0000694500006D45000008
:10004000A12F0000A12F0000A12F0000A12F000070
:10005000A12F0000A12F0000A12F0000A12F000060
:10006000A12F0000A12F0000A12F0000A12F000050
:10007000A12F0000A12F0000A12F0000A12F000040
:10008000A12F0000A12F0000A12F0000A12F000030
:10009000A12F0000A12F0000A12F0000A12F000020
:1000A000512D00005D2D0000A12F0000A12F0000A8
:1000B000A12F0000A12F0000A12F0000A12F000000
:1000C000A12F0000A12F0000A12F0000A12F0000F0
:1000D000A12F0000A12F0000A12F0000A12F0000E0
:1000E000A12F0000A12F0000A12F0000A12F0000D0
:1000F000A12F0000A12F0000A12F0000A12F0000C0
:10010000A12F0000A12F0000A12F0000A12F0000AF
:10011000D92200001D350000A12F0000A12F0000F2
:10012000A12F0000A12F0000A12F0000A12F00008F
:10013000A12F0000A12F0000A12F0000A12F00007F
:10014000A12F0000A12F0000A12F0000A12F00006F
:10015000A12F0000A12F0000A12F0000A12F00005F
:10016000A12F0000A12F0000692D0000A12F000089
:10017000A12F0000A12F0000A12F0000A12F00003F
:10018000A12F0000A12F0000A12F0000A12F00002F
:10019000A12F0000A12F0000584B4CF2205210B5A7
:1001A0001A804DF628121A8000BF00BF02F0FCFE34
:1001B000534B4FF030621A60524A9A60524ADA60EA
:1001C000524B4FF470021A60514A136813F4807353
:1001D00004D150490B604FF4A85313604E4B1A786A
:1001E000110703D51A7842F008021A704B4B4C499C
:1001F0002A221A704B4A4C4B8B4204D252F8040FFD
:1002000043F8040BF8E7494B494900228B4202D2DC
:1002100043F8042BFAE74749474A002352F82300E2
:1002200041F823000133662BF8D1444B444A802126
:1002300003F8011B9342FBD1424B3E4A1A60424BEA
:100240008A221A70A3F5805324225A70A0221A70B1
:100250009A799207FCD59A79D406FCD43B4A9379D3
:1002600003F00C03082B394BF9D103221A714622F3
:100270005A719A799006FCD5344A9179334B4906E4
:10028000FBD5334A4FF08271116009215160202261
:100290001A709A7902F00C020C2AFAD12D4B2E4AD0
:1002A0001A602E4B2E4A1A6000225A60072243F829
:1002B000042C2C4AC3F80C2D62B602F0C1FF154B7A
:1002C0001B68DA0705D5284802F02CFF274B284A7F
:1002D0001A60284B1B785B0609D5244C244B2268F6
:1002E0009A4204D1204802F01DFF002323600FF042
:1002F00081FD02F05FFE02F08DFDFEE70E2005405D
:1003000030800440823F04000100002B88ED00E0B3
:1003100010D0034014D0034002D0074000E0074053
:10032000C812FF1FC8750100F806FF1FC812FF1F83
:10033000A01CFF1F0002FF1F0000000000E400E0FF
:1003400056E400E008ED00E00050064000400640A2
:100350004480044004800440C010050014E000E024
:10036000BFD401000000202089C47D5F1CE0034051
:10037000A5C3945A00F00740FFFFFFFFFFFFFFFFF8
:10038000FFFFFFFFFFFFFFFFFFFFFFFFFFFFFFFF7D
:10039000FFFFFFFFFFFFFFFFFFFFFFFFFFFFFFFF6D
:1003A000FFFFFFFFFFFFFFFFFFFFFFFFFFFFFFFF5D
:1003B000FFFFFFFFFFFFFFFFFFFFFFFFFFFFFFFF4D
:1003C000FFFFFFFFFFFFFFFFFFFFFFFFFFFFFFFF3D
:1003D000FFFFFFFFFFFFFFFFFFFFFFFFFFFFFFFF2D
:1003E000FFFFFFFFFFFFFFFFFFFFFFFFFFFFFFFF1D
:1003F000FFFFFFFFFFFFFFFFFFFFFFFFFFFFFFFF0D
:10040000FFFFFFFFFFFFFFFFFFFFFFFFDEF9FFFF23
:1004100010B5054C237833B9044B13B10448AFF33E
:1004200000800123237010BDC812FF1F00000000D0
:10043000D0710100084B10B51BB108490848AFF353
:1004400000800848036803B910BD074B002BFBD0A0
:10045000BDE81040184700BF00000000CC12FF1F8D
:10046000D0710100C812FF1F0000000010B5044643
:10047000006808B102F0CCFD204610BD10B504465E
:10048000006808B102F0C4FD204610BD10B5044656
:10049000C06808B102F0BCFD206808B102F0B8FDE8
:1004A000204610BD38B5084C01600546204602F0D4
:1004B00085F92046222102F0CBF92046212102F0C5
:1004C000F9F9284638BD00BF6C07FF1F2DE9F04F32
:1004D00005460446082285B0012315F8031B4E4843
:1004E00002F028FB4C4A04F10B07104692F8383012
:1004F00092F83910C618994203F101038ABF80F8B7
:100500003830FF23337E05F8013FBD42EED16289CA
:100510004FF6FF739A4264D0E07AA57AC0F34001A7
:100520000091C0F380010191C0F3C0010291C0F3BA
:10053000001105F00102C5F34003C5F3800BC5F3BC
:10054000C00AC5F30019C5F34018C5F3801C00F0BC
:10055000010EC0F34017C0F38016ED090391C009E6
:1005600065759DF80050E5759DF8045025769DF859
:100570000850E37304F13501657600239DF80C50B3
:10058000E77626776077A27384F810B084F811A01C
:1005900084F8129084F8138084F814C084F816E06C
:1005A000A57604F10E0608461F46223410F8015FB6
:1005B0000DB9012A0AD00133102B277001F8012F41
:1005C00004F101040AD016F8012FEFE70133102BD4
:1005D000227001F8012F04F10104F4D105B0BDE847
:1005E000F08F00237F21184623726372A372E37297
:1005F0001E461F4603930293019300939E461D4699
:100600009C46984699469A469B461A4621716171C6
:10061000A171E171A4E700BF6C07FF1FFFFFFFFF9F
:100620002DE9F84304460FF27009D9E9008901F079
:10063000C1FD1BA7D7E90067154B16490022002012
:10064000C4E90423C4E908010022002300214FF477
:10065000FA7540F6C410E065C4E90689C4E910677C
:10066000A565C4E90223C4E90C23C4E90E23C4E947
:100670001223C4E91423C4E91823C4E91A23A1628C
:1006800084F8701084F871102046BDE8F88300BF2C
:100690000000E03F0000F03F0000000000E070407C
:1006A0000000000000388FC02DE9F04F2DED088BC1
:1006B000CF48D04F99B002F081F82221CC4802F007
:1006C000C7F82121CA4802F0F5F801210D2002F0F7
:1006D00041FD01210D2002F037FDB1A3D3E9002334
:1006E00018AC64E902230FF2C029D9E900890DF1A1
:1006F000480B2346002614AA5946BF489FEDAC8BF1
:100700009FEDAD9B9FEDAEABCDE91289CDE91467AE
:1007100001F028F99FEDAC7B0BA80EAE0DF1280877
:1007200009AF0DF1300A4FF0000514AB03900DF145
:10073000230040F634094FF0090E06940593324623
:1007400010AB4146CDF810A001908DF82350AB4876
:100750008DF82450CDF800B04FF448750297CDF8CD
:1007600028E08DED109B8DED169B8DED127B0B958A
:10077000CDF830908DED0E8B8DED14AB01F024FE95
:1007800014AB9FED937B05934FF000050BAB0393E8
:100790008DF824500DF123034FF448754FF01D0ED2
:1007A0000694CDF810A00193324610AB4146944810
:1007B0000B9502974FF00205CDF800B08DED109B20
:1007C000CDF830908DED149B8DED127BCDF828E0A7
:1007D0008DF823508DED0E8B8DED16AB01F0F4FDF1
:1007E00014AB9FED7D7B05930BAB03938DF82350EA
:1007F0000DF123034FF000054FF01A0E0694CDF8CB
:1008000010A00193324610AB41467E488DF824502B
:1008100002974FF44875CDF800B00B95CDF83090A5
:100820008DED149B8DED127BCDF828E08DED0E8BB8
:100830008DED108B8DED16AB01F0C6FD14AB9FED69
:10084000687B05934FF002000BAB03938DF82300F8
:100850000DF123034FF000004FF00C0E0694CDF87D
:1008600010A00193324610AB41468DF82400029748
:100870006548CDF800B08DED127B0B95CDF830902A
:100880008DED169BCDF828E08DED0E8B8DED108B48
:100890008DED14AB01F098FD14AB9FED53BB0593A8
:1008A0004FF000050BAB03938DF823500DF123039C
:1008B0004FF4487552464FF01F0E0694019341467F
:1008C00010AB52480B9504964FF001050297CDF8F6
:1008D00000B0CDF838908DED169B8DED12BBCDF8A4
:1008E00028E08DF824508DED0C8B8DED108B8DED67
:1008F00014AB01F069FD14AB05934FF000050BAB91
:1009000003938DF823500DF123034FF00105524658
:100910004FF01C0E06940193414610AB3C488DF8F5
:10092000245004964FF448750297CDF800B00B950B
:10093000CDF838908DED169BCDF828E08DED108B1D
:100940008DED128B8DED14AB01F03EFD14AB0593D4
:100950004FF000050BAB03938DF823500DF12303EB
:100960004FF0010552464FF0190E0694019341468F
:1009700010AB28488DF8245004964FF44875029720
:10098000CDF800B00B95CDF838908DED169BCDF8D5
:1009900028E08DED108B8DED128B8DED14AB3BE0CF
:1009A0000000000000E05F40000000606626474055
:1009B0000000000000000000000000000080564021
:1009C00000000000008056C000000000004054C03D
:1009D00000000000000022C000000000000026C04F
:1009E00000000000004055C0000000000000F0BF03
:1009F0006C07FF1F00406040E816FF1FF818FF1F3C
:100A0000B014FF1F9017FF1F2815FF1F8018FF1F2E
:100A10003814FF1F3013FF1F01F0D6FC14AB0593F1
:100A20004FF001050BAB03938DF824500DF1230318
:100A30004FF4487552464FF00B0E06940193414611
:100A400010AB9B480B9504964FF000050297CDF82C
:100A500000B08DED12BBCDF838908DF823508DEDA0
:100A6000169BCDF828E08DED108B8DED14AB01F0C9
:100A7000ABFC0DF123039FED829B9FED83BB9FEDAC
:100A8000847B029314AB0DF1220A05934FF0020010
:100A90000BAB4FF4C8694FF01E0E06940493324618
:100AA00010AB39468DF823008DF822508148CDF8DF
:100AB0000C804FF41665CDF800B0CDF804A08DED94
:100AC000127BCDF824E00B958DED0E8B8DED108B08
:100AD0008DED149B8DED16BBCDF8289001F074FCC4
:100AE0000DF123039FED6C7B02934FF002000BABE3
:100AF00004938DF8230014AB4FF000004FF01B0E51
:100B000006940593324610AB39468DF82200CDF895
:100B100004A06948CDF80C80CDF800B00B958DEDA0
:100B2000127BCDF824E0CDF828908DED149B8DED4F
:100B300016BB8DED108B01F047FC0DF123039FEDEB
:100B4000587B02934FF002000BAB04938DF8230007
:100B500014AB4FF000004FF0180E06940593324688
:100B600010AB39468DF82200CDF804A05348CDF8DB
:100B70000C80CDF800B00B958DED127BCDF824E004
:100B8000CDF828908DED14BB8DED169B8DED108B5F
:100B900001F01AFC0DF123039FED437B02934FF00C
:100BA00002050BAB04938DF8235014AB4FF00005F6
:100BB000394606940593324610AB8DF82250CDF895
:100BC00004A0CDF80C80CDF800B00A243C48CDF844
:100BD00028904FF416658DED108B0B958DED14BBA1
:100BE0008DED169B8DED127B099401F0EDFB354ADE
:100BF000354913685268D21AD21001FB02F27AB357
:100C0000012A83ED008B83ED028B83ED04AB31D998
:100C10002E490020022A83ED068B83ED088BC3E961
:100C20000A0122D02A4A2B4F2B4D06CA521A0026FF
:100C30000024921083ED0E8BC3E90C67C3E91045C5
:100C40000ED04FF47A73012A0B6013D9C820022A00
:100C500048600AD08B6019B0BDEC088BBDE8F08FFE
:100C6000002211461D4803F07FFD022211461B4859
:100C700003F07AFD01221146184803F075FD00BF0C
:100C80000000000000005EC00000000000004EC038
:100C900000000000000033C000000000008044C0DD
:100CA0000000000000804E400000000000004140B5
:100CB0000017FF1FA813FF1F2816FF1FA015FF1FF7
:100CC0000818FF1F1816FF1FABAAAAAA00005E4053
:100CD000FC19FF1F00003EC0000049C0F84B010096
:100CE0002DE9F04F2DED048BDFF8ACA391B0504609
:100CF000FFF7ECFBD04AD149D14800F0D3FDD148F1
:100D000001F0E0FCD04801F0DDFCD04801F0DAFC55
:100D1000CF4801F0D7FCCF4801F0D4FCCE4801F019
:100D2000D1FCCE4801F0CEFCCD4801F0CBFCCD4843
:100D300001F0C8FCCC4801F0C5FCCC4801F0C2FC75
:100D4000CB4801F0BFFC9AF805009AF806806FF0D6
:100D5000C60303FB00F00028B8BFFF300012643068
:100D60000DF0E8F99AF80430044603EB431003EB66
:100D70004003C3EB8303181264380D460DF0DAF913
:100D80000FFA88F3064603EB830000EB800003EBC9
:100D90008000001232380F460DF0CCF92246CDE922
:100DA00002012B46204629460DF02AFA324680469B
:100DB00089463B46304639460DF022FA02460B463C
:100DC000404649460DF06AF841EC100B0BF002FB6F
:100DD00005F100432246304607F10041B0EE408A5B
:100DE000F0EE608A41EC110B43EC102B0BF0F0FAA3
:100DF0009AF8263055EC104B002B40F01483DFF8A6
:100E00009CB28F484FF0000ACDE906AB00F024FCFD
:100E1000002840F0C3827AA3D3E9002351EC180BD9
:100E20000DF0EEF978A3D3E9002341EC180B20462E
:100E300005F100410DF0E4F9B0EE480AF0EE680A61
:100E400041EC190B41EC130B9FED712B9FED721BC5
:100E50009FED734B8748884F884E894DDFF840825D
:100E600001F082F8B0EE493AF0EE693A87ED000BF6
:100E7000B0EE480AF0EE680A87ED021B87ED042BFE
:100E80009FED651B9FED622B9FED674B794801F04D
:100E90006BF8B0EE493AF0EE693A86ED000BB0EE31
:100EA000480AF0EE680A86ED021B86ED042B9FEDE2
:100EB0005A1B9FED572B9FED5C4B6E4801F054F889
:100EC000B0EE493AF0EE693A85ED000BB0EE480A13
:100ED000F0EE680A85ED021B85ED042B9FED4E1B9D
:100EE0009FED4B2B9FED4E4B624801F03DF8CDE955
:100EF00006AB88ED000B88ED021B88ED042B0AACD5
:100F0000DDE9020100225F4BDFF898B10CF0C6FF6B
:100F100047A3D3E9002381468A46D7E902010CF0B2
:100F2000BDFF0022584B0CF0B9FF4A465346CDE9AD
:100F30000801D7E90401CDE9029A0CF0AFFF534F45
:100F400001970DF11709CDE90A0108AACDF8009023
:100F50004FF0000A234648494D488DF817A000F08D
:100F600071FFD6E9020132A3D3E900230CF096FF0A
:100F70000022454B0CF092FFDDE90223CDE9080188
:100F8000D6E904010CF08AFF424ECDF80090CDE97D
:100F90000A0108AA2346019638493D488DF817A052
:100FA00000F050FFD5E9020121A3D3E900230CF0A2
:100FB00075FF0022344BDFF8F0A00CF06DFFDDE987
:100FC0000223864601F1004CD5E90401CDF820E06A
:100FD000CDF824C00CF062FF08AB0125CDE90A0171
:100FE000CDF800901A46CDF804B02346244928488D
:100FF0008DF8175000F026FFD8E9020156E000BF37
:10100000000000A09999A93F00000020DCA54C40F9
:10101000000000606666E63F0000000000004940F6
:10102000000000000000000000000000008066409A
:101030000000006066264740FC19FF1F1816FF1FBE
:101040007019FF1FF818FF1F8018FF1FA813FF1F3C
:10105000B014FF1F3814FF1F2816FF1F9017FF1F23
:101060003013FF1FA015FF1F2815FF1F0017FF1FBC
:101070000818FF1F7817FF1F0013FF1F2014FF1F02
:10108000081AFF1F0000694000002440D016FF1F0F
:10109000E816FF1F1813FF1FB019FF1F00408F40F5
:1010A000B816FF1FA016FF1FE812FF1FB9A3D3E950
:1010B00000230CF0F3FE0022A74B0CF0EDFEDDE95F
:1010C0000223844601F1004ED8E90401CDF820C086
:1010D000CDF824E00CF0E2FECDF80090CDE90A0155
:1010E00008AA2346CDF804A09C499D488DF81750C6
:1010F00000F0A8FED7E9000193A3D3E900230CF088
:10110000CDFEFB68804603F1004E8946C7F80CE02F
:10111000D7E904018CA3D3E90023C7E900890CF0C7
:10112000BBFE89A3D3E90023C7E90401D6E9000186
:101130000CF0B4FEF36803F1004EC6F80CE0C6E90B
:10114000000181A3D3E90023D6E904010CF0A4FE39
:101150007DA3D3E90023C6E90401DBE900010CF01B
:101160009DFE79A3D3E90023CBE90001DBE904016B
:101170000CF092FE74A3D3E90023CBE90401DAE971
:1011800000010CF08BFE70A3D3E90023CAE9000133
:10119000DAE904010CF080FE6DA3D3E90023CAE96B
:1011A0000401404649460DF02BF808ABCDE90A0191
:1011B00006AA21466B488DF8205001F099F9D7E92D
:1011C000020163A3D3E900230DF01AF808ABCDE9BF
:1011D0000A0106AA214664488DF8205001F088F9DA
:1011E000D7E904015AA3D3E900230DF009F808ABAD
:1011F000CDE90A0106AA21465C488DF8205001F08D
:1012000077F9D6E9000152A3D3E900230CF0F8FFE7
:1012100008ABCDE90A0106AA214655488DF82050B1
:1012200001F066F9D6E9020149A3D3E900230CF0E5
:10123000E7FF08ABCDE90A0106AA21464D488DF823
:10124000205001F055F9D6E9040141A3D3E9002368
:101250000CF0D6FF08ABCDE90A0106AA21464648A4
:101260008DF8205001F044F9DBE9000138A3D3E9FF
:1012700000230CF0C5FF08ABCDE90A0106AA214600
:101280003E488DF8205001F033F9DBE9020130A32C
:10129000D3E900230CF0B4FF08ABCDE90A0106AA9C
:1012A000214637488DF8205001F022F9DBE904018E
:1012B00027A3D3E900230CF0A3FF08ABCDE90A0173
:1012C00006AA21462F488DF8205001F011F9DAE9DD
:1012D00000011FA3D3E900230CF092FF08ABCDE976
:1012E0000A0106AA214628488DF8205001F000F98D
:1012F000DAE9020116A3D3E900230CF081FF08AB61
:10130000CDE90A0106AA214620488DF8205001F0B7
:10131000EFF8DAE904010EA3D3E900230CF070FF23
:1013200008ABCDE90A0106AA214619488DF82050DC
:1013300001F0DEF80A2002F0FFFF11B0BDEC048BD3
:10134000BDE8F08FAFF3008000000060FB21094092
:1013500000000020DCA54C4000002440B816FF1F10
:10136000E816FF1FF818FF1F8018FF1FA813FF1FA4
:10137000B014FF1F3814FF1F2816FF1F9017FF1F00
:101380003013FF1FA015FF1F2815FF1F0017FF1F99
:101390000818FF1F00000060662647402648274FB8
:1013A000274E284DDFF8A48000F058F9224887ED39
:1013B000021B87ED042B87ED000B00F04FF90AAC00
:1013C0008DED0A0B20469FED1A0B8DED0C1B8DED5C
:1013D0000E2B00F0F7F8184886ED021B86ED000B87
:1013E00086ED042B00F03AF9134885ED000B85EDEE
:1013F000021B85ED042B00F031F920468DED0A0B20
:101400009FED0B0B8DED0C1B8DED0E2B00F0DAF824
:101410000D4B002288ED021B88ED000B88ED042B9C
:10142000CDE906236CE5044800F0F0F8E7E400BFDE
:10143000000000403333F33F7019FF1F0013FF1FFC
:101440002014FF1F081AFF1F0040AF40B816FF1FEF
:1014500070B574213C483D4EFFF724F83C48FFF737
:10146000DFF83C48FFF7DCF83B48FFF7D9F83B488A
:10147000FFF7D6F83A48FFF7D3F83A48FFF7D0F825
:101480003948FFF7CDF83948FFF7CAF83848FFF771
:10149000C7F83848FFF7C4F83748FFF7C1F83748AE
:1014A000FFF7BEF8364800F081F8364800F07EF8C5
:1014B000354800F07BF8354800F078F89FED200BB8
:1014C000334800F0E5FC0023482033607360B360CC
:1014D00001F09CFD00F14805044630607060B56085
:1014E00020460CB100F062F81834A542F8D1294C1E
:1014F000294A2A4975601548002503F0EFF8256050
:101500006560A5600C2001F081FD034600F10C062A
:1015100023601D605D609D6020461F4A2049A660D3
:10152000666003F0DBF8224608491E4800F0A0F987
:10153000194A1D491B48BDE8704003F0CFB800BFF1
:10154000000000000000E03FB019FF1F1816FF1F49
:10155000F818FF1F8018FF1FA813FF1FB014FF1FEC
:101560003814FF1F2816FF1F9017FF1F3013FF1F8F
:10157000A015FF1F2815FF1F0017FF1F0818FF1FCA
:101580000013FF1F2014FF1F081AFF1FB816FF1FAC
:101590007817FF1FFC19FF1FF806FF1F6D040000DE
:1015A0007D0400007019FF1F8D04000030B400247A
:1015B0000025C0E90045C0E90245C0E9044530BC4A
:1015C000704700BFD0B557EC106B90B00446D0E91F
:1015D0000223394610EE100A0CF012FED4E904235F
:1015E000CDE90201304639460CF00AFE3246CDE91B
:1015F00000013B46D4E900010CF002FE9DED021B08
:101600009DED002B41EC100B10B0D0BDF0B50446A1
:10161000C56954F8283B0E4F05EB450503EBC5059E
:1016200006460FCD4FF0010E86F818E00FC483B0C8
:1016300095E803003B680193019A002384E80300C6
:101640003262F3610321034802F0F2FD03B0F0BD02
:10165000541AFF1F444C0100007E704730B400F163
:1016600028050FCD8CB006AC0FC495E8030084E8C4
:1016700003009DED060B9DED0A2B9DED081B0CB0A4
:1016800030BC70472DE9F04F814283B081462ED0A7
:1016900091E84001D0F800B083684449C6EB080ADD
:1016A000CBEB03034FEAEA02DB1001FB02F201FB82
:1016B00003F39A424BD8D0F804E0CBEB0E03184664
:1016C000DB1001FB03F39A4215D8002A3CDD00270A
:1016D000F5190FCD0BEB07040FC495E8030018377D
:1016E000574584E80300F3D15F44C9F804704846C5
:1016F00003B0BDE8F08F002B06EB000C11DDCDF838
:1017000004A000278246F5190FCD0BEB07040FC488
:1017100095E803001837BA4584E80300F3D1DDF8F3
:1017200004A0C44518BF76460ED03EB165460FCD25
:1017300034460FC495E8030084E803000CF1180C4C
:10174000E04506F11806F0D10BEB0A07CDE73AB3F6
:10175000174B9A4227D8504601F058FCD9F800E0C0
:101760008346464518BF5F460DD03FB135460FCD85
:101770003C460FC495E8030084E803001836B045E2
:1017800007F11807F1D1BEF1000F02D0704601F049
:101790003FFC0BEB0A07C9F80870C9F800B0A4E7D2
:1017A000DE469346DDE702F09FFF00BFABAAAAAA80
:1017B000AAAAAA0A81422DE9F843044619D091E861
:1017C00000410068A368C8EB0E05AF101B1AB7EB09
:1017D000A30F0E4619D863681A1A91108F420BD9BD
:1017E000A9BB08EB0201C1EB0E02960822D1054409
:1017F00065602046BDE8F883002FF8D02A464146B0
:101800000EF0F8FE20680544F2E74FB3B7F1804FC1
:101810002CD2284601F0FAFBD4F80090064677B99E
:10182000B9F1000F02D0484601F0F2FB3544A56043
:101830002660DDE718460EF0DDFE2068D7E741465A
:101840002A460EF0D7FEB9F1000FECD1EEE7414683
:101850000EF0D0FE94E8090096E800411A1AC0E79D
:1018600081463E46B9F1000FDDD1DFE702F03CFFD3
:1018700070B500230446036043608360C360036166
:1018800043610E4628301546FFF790FE314620464C
:10189000FFF7F8FE294604F10C00FFF78BFF204606
:1018A00070BD00BF70B51546044682B0FFF7EAFE72
:1018B000294604F10C00FFF77DFF237E6BB123481E
:1018C000E36902680092E168256A009A51F8236092
:1018D000521BB2424FEA830501D802B070BD0268C4
:1018E000019201332944E361019B4968184823624E
:1018F00001F088FA0421174802F09AFCE1691448C3
:1019000001F080FA94E80C001349E5699B1ADB109A
:1019100001FB03F39D4208D30025257603210F48E0
:1019200002F086FCE56102B070BD05EB450502EBF7
:10193000C5050FCD28340FC495E8030084E80300E3
:101940000321074802F074FCC7E700BF541AFF1FC9
:101950004808FF1F484C0100ABAAAAAA544C01003A
:10196000504C010030B4D1E90045C0E90045D2E94E
:101970000045C0E90245D3E9002330BCC0E9042397
:10198000704700BF2DE9F04F1C4694E84040D2E973
:101990000023044694ED007B85B0D1F800804D68AB
:1019A000104619460EF100478DED007B0CF028FC27
:1019B0003246CDE902013B46304639460CF020FC68
:1019C00002460B46DDE902010CF068FADDE900236E
:1019D00006460F46104619460CF012FC02460B460E
:1019E000304639460CF058FA05F1004906460F46D4
:1019F00042464B46404649460CF002FC02460B4626
:101A000030463946D4E902AB0CF048FA5246064655
:101A10000F465B46504659460CF0F2FB02460B4619
:101A200030463946D4E904450CF036FA22460646DB
:101A30000F462B46204629460CF0E2FB02460B4699
:101A4000304639460CF028FA22462B4606460F4609
:101A5000204629460CF022FA52465B460CF0D0FB99
:101A600002460B46304639460CF0F4FC00220E4B81
:101A700004460D460CF054FE30B10B4D002445ECED
:101A8000104B05B0BDE8F08F0022084B20462946D8
:101A90000CF028FE0028F2D0044D002445EC104B39
:101AA00005B0BDE8F08F00BF0000F03F0000F0BFC0
:101AB0002DE9F04F2DED068B85B09046DDF850B046
:101AC000DBE90067994632463B4604460D46304600
:101AD00039460CF095FB02460B46002066490CF097
:101AE000DBF941EC100B0AF075FC51EC100B10EE19
:101AF000102A01F100439BED001B43EC102B0AF070
:101B000067FC99ED007B8DED027B98ED007BDDE9B4
:101B1000022351EC170B164603F1004717EE102A6B
:101B20000B465BEC10AB8DED007B0CF069FB324695
:101B3000804689463B46304639460CF061FB0246FA
:101B40000B46404649460CF0A9F9D4E900890646FF
:101B50000F4642464B46404649460CF051FB024672
:101B60000B46304639460CF097F90022002341EC31
:101B7000180B0CF0B7FD08B19FED3D8B9DED001BE0
:101B80009DED020B0AF024FC59EC108BB0EE480AD4
:101B9000F0EE680A0AF01EFC6168226801F1004359
:101BA00043EC112B0AF014FC6B68B0EE409AF0EE97
:101BB000609AB0EE480AF0EE680A03F100472E681A
:101BC0000AF008FCB0EE401AF0EE601A47EC106B19
:101BD0000AF0FEFBB0EE408AF0EE608A4BEC10ABF0
:101BE0000AF096FBB0EE40AAF0EE60AA4BEC10AB08
:101BF0000AF02EFBD4E9046753EC102B304639462B
:101C00000CF0FEFAD4E902230CF048F953EC1A2B3D
:101C1000CDE90001304639460CF0F2FA9DED001B8B
:101C200041EC100B0AF0D4FB53EC192B404609F1A0
:101C300000418DED000B0CF02FF99DED000B159C74
:101C400053EC102BC4E9000151EC180B0CF024F9F3
:101C5000159C01F10041E16021460BF10043A060B9
:101C6000C1F810A0636105B0BDEC068BBDE8F08F34
:101C700000000000000000000000F03FFFFFFFFF39
:101C80002DE9F04F2DED068B85B09046DDF850B074
:101C9000DBE90067994632463B4604460D4630462E
:101CA00039460CF0ADFA02460B46002064490CF0B0
:101CB000F3F841EC100B0AF08DFB51EC100B10EE19
:101CC000102A01F100439BED001B43EC102B0AF09E
:101CD0007FFB99ED007B8DED027B98ED007BDDE9CC
:101CE000022351EC170B164603F1004717EE102A9A
:101CF0000B465BEC10AB8DED007B0CF081FA3246AD
:101D0000804689463B46304639460CF079FA024611
:101D10000B46404649460CF0C1F8D4E90089064616
:101D20000F4642464B46404649460CF069FA024689
:101D30000B46304639460CF0AFF80022002341EC48
:101D4000180B0CF0CFFC08B19FED3B8B9DED001BF9
:101D50009DED020B0AF03CFB59EC108BB0EE480AEB
:101D6000F0EE680A0AF036FB94ED001B0AF030FB37
:101D70006B68B0EE409AF0EE609AB0EE480AF0EE72
:101D8000680A03F100472E680AF024FBB0EE401AFF
:101D9000F0EE601A47EC106B0AF01AFBB0EE408AC6
:101DA000F0EE608A4BEC10AB0AF0B2FAB0EE40AA4B
:101DB000F0EE60AA4BEC10AB0AF04AFAD4E90467E3
:101DC00053EC102B304639460CF01AFAD4E90223B2
:101DD0000CF064F853EC1A2BCDE90001304639467B
:101DE0000CF00EFA9DED001B41EC100B0AF0F0FA1E
:101DF00053EC192B404609F100418DED000B0CF01E
:101E00004BF89DED000B159C53EC102BC4E9000121
:101E100051EC180B0CF040F8159C01F10041E16009
:101E200021460BF10043A060C1F810A0636105B02A
:101E3000BDEC068BBDE8F08F000000000000000044
:101E40000000F03F2DE9F04385B099460C9F0D9EB0
:101E500004460D469046FFF795FD3B7801968DEDC3
:101E6000020B02AF4BB14B46424629462046009733
:101E7000FFF706FF05B0BDE8F0834B464246294612
:101E800020460097FFF714FE05B0BDE8F08300BFC1
:101E900080ED000B704700BF2DE9D043044682B0AF
:101EA0008DED000B01F05CF9A3689FED2D7A2D4FAD
:101EB000C01A07EE900AF8EE677A0026C7EE876A26
:101EC00016EE900A0CF048F98046894601F048F970
:101ED0009DED000BA06053EC102B404649460CF0E2
:101EE0008FF9D4E904230BF0D9FF32463B468046F4
:101EF00089460CF015FC30B19FED130B84ED040BFB
:101F000002B0BDE8D08300220023404649460CF0D1
:101F1000E9FB88B942464B46C4E904894046494634
:101F20000BF0BCFF0AA3D3E900230CF069F941ECE4
:101F3000100B02B0BDE8D0839FED070BC4E9046726
:101F400002B0BDE8D08300BF000000000000000028
:101F500000000060FB21094000000060FB211940E7
:101F6000002474490000F03F2DE9F04F2DED048B63
:101F7000B0EE438AF0EE638A99B05BEC11AB59EC9A
:101F8000128B8DED044B019057EC106BFFF784FF23
:101F90009DED044B002251EC140B834B8DED020B95
:101FA0000CF058FA9DED020B04460D4678A3D3E9D8
:101FB000002351EC100B0CF04DFA02460B46204664
:101FC00029460BF06BFF0022784B04460D460CF0BF
:101FD000A7FB38B1204629460022744B0BF05CFF6A
:101FE00004460D460CA8FFF7E1FA00220023304614
:101FF00039460CF095FB002800F0C5803046394684
:10200000019BD3E900230CF06DFB00284AD100228C
:10201000674B51EC180B0BF03FFF424606460F464C
:102020004B46204629460CF05DFB00284DD0524619
:102030005B46504659460BF031FF22462B460CF0CA
:10204000DFF842464B460CF005FA52465B460BF071
:1020500023FF51A3D3E9002304460D4630463946F9
:102060000CF0CEF841EC100B41EC180B0AF0F0F834
:10207000204653EC102B29460CF0C2F8B0EE480A6B
:10208000F0EE680ACDE90C010AF042F9204653EC63
:10209000102B29460CF0B4F800220023CDE90E01E4
:1020A000CDE910230CAD0FCD12AC0FC495E80300A1
:1020B00084E803009DED120B9DED162B9DED141B86
:1020C00019B0BDEC048BBDE8F08F2046294642468E
:1020D0004B460BF0E1FE424604460D464B460020BF
:1020E00032490BF0D9FE02460B46204629460CF039
:1020F000B1F92BA3D3E900230CF082F841EC100BCB
:1021000041EC180B0AF0A4F8504653EC102B59463A
:102110000CF076F820A3D3E9002304460D463046A0
:1021200039460CF06DF841EC100B41EC190B0AF03C
:102130008FF8204653EC102B29460CF061F8B0EED6
:10214000490AF0EE690ACDE90C010AF0E1F82046EF
:1021500053EC102B29460CF053F8B0EE480AF0EE81
:10216000680ACDE90E010AF0D3F8504653EC102B63
:102170000BF100410CF044F802460B460BF08EFECA
:10218000CDE910018EE7304607F1004138E700BF86
:1021900000000060FB211940000000A046DF913FD5
:1021A00000000060FB210940008076400000F03F05
:1021B0000080664070B40F4E0023358803710C21F7
:1021C000012215424FEA42040AD00379013903F192
:1021D0000103A2B20371F4D1FF23037170BC7047F5
:1021E00005490B88154323EA020235800A8070BC3A
:1021F000704700BF281AFF1F241AFF1FF8B5047983
:102200000B2C01D92046F8BD0646CDB22846012147
:102210001F46144600F09EFF1B4832791B4B018875
:102220009D54012393400B43194903800B681948BF
:10223000C4EB0414C7EB071745F2E47513F48003ED
:102240003480778020F8125016D10A68124D134856
:10225000DFF85CE0124F134C42F480020A604FF644
:10226000FF722A601049CEF8003042F6A275202293
:102270003B600560016022700C4B4FF480121A60C5
:1022800034792046F8BD00BF241AFF1F441AFF1FEF
:102290003C8004402C1AFF1F046003400060034090
:1022A0000C60034034E400E0A22F010004E100E0F0
:1022B000086003400388C1EB0111994203DB4388A6
:1022C0008B42A8BF0B4602790B2A9CBF014921F81B
:1022D000123070472C1AFF1FF8B5324E324D96F966
:1022E00000202B881341DC0753D4304C94F9003084
:1022F0000B2B0EDC298841FA03F2D00702D52EE021
:10230000D2072BD401335BB20C2B41FA03F2F7D185
:10231000237027480268C2F5922101F5787140F2D6
:10232000DB53994217DD4EF660238B42A8BF0B4664
:102330001A44204902600E681F4D204A1C4F334446
:1023400042F6A3760B602E600368934202D9002305
:102350003B602370F8BD40F2DC53E9E72370184A74
:102360000121D05C00F0F0FE94F90030104A1549CC
:10237000104831F813501168337029441160026815
:102380000D492A44013342F6A37502600D602370A3
:10239000F8BD0B4B0021985C00F0D6FE0C23337087
:1023A000A3E700BFFC06FF1F241AFF1F261AFF1F0A
:1023B000201AFF1F0C60034000600340DF930400FD
:1023C000441AFF1F2C1AFF1F2DE9F04F83B08046DF
:1023D0000F9F0968129D109E14469946826DC36D29
:1023E000FFF70CFF3868C8F858003668C8F85C601A
:1023F000301A0BF09FFE119B8246D3E900238B46D7
:10240000D5E900010BF048FD02460B4650465946FF
:102410000CF020F882468B463046C8E918AB0BF02A
:1024200089FED5E9002306460F46504659460BF073
:10243000E7FE02460B46304639460BF02DFD0646B8
:102440000F46C8E91A670C9BD3E900010CF088F924
:10245000D9E90023C8E90C230D9BD4E900451B787A
:1024600088F82C30C8E90E45C8F828000BF062FE49
:1024700022462B460BF012FD02460B46C8E91023FC
:10248000C8E91223504659460BF0BAFE32463B4685
:102490000BF004FD0022002304460D460CF036F933
:1024A000B0B100220F4B204629460BF0F7FC0CF090
:1024B00057F901464046FFF7FDFE0B4B1B680193A1
:1024C00001980BF027FEC8E9020103B0BDE8F08FC8
:1024D0000022044B204629460BF0DEFC0CF040F9AC
:1024E0000146E7E70000E03F541AFF1FFFFFFFFF30
:1024F000F8B50446D1E90067002084F871001B7824
:1025000084F870301546304639460BA3D3E90023D2
:102510000CF006F960B1A06A0BF00CFE32463B46A7
:102520000BF0BCFCC4E91001D5E90023C4E9142375
:10253000F8BD00BFAFF300800000000000308FC086
:102540002DE9F047D0E9104582B082465BA3D3E97C
:102550000023204629460CF0E3F800285DD0DAE994
:10256000126722462B46304639460BF095FC002276
:102570000023804689460CF0D3F800287AD04246E2
:102580004B46DAE904010CF0CBF8002848D120468C
:1025900032463B4629460BF07FFC002200230CF01C
:1025A000A1F80024002869D13F4D404B0022DAE910
:1025B00008010BF04FFF22462B460BF021FEDAE913
:1025C00014230BF01DFE32463B460BF067FCDAE9A4
:1025D0001823CAE912010BF013FEDAE91A230BF0F3
:1025E0005DFC0022002304460D460CF08FF8002805
:1025F00046D000222E4B204629460BF04FFC0CF013
:10260000AFF801465046FFF755FE2A4B1B68009372
:1026100000980BF07FFDCAE9020102B0BDE8F08727
:10262000DAE91823204629460BF0EAFDDAE91A23F5
:102630000BF034FC0022002306460F460CF066F82F
:1026400040B300221A4B304639460BF027FC0CF001
:1026500087F801465046CAE91245FFF72BFE154B95
:102660001B68019301980BF055FDCAE9020102B005
:10267000BDE8F087424609F1004382E70E4D94E73A
:1026800000220B4B204629460BF006FC0CF068F8A4
:102690000146B7E70022064B304639460BF0FCFBFB
:1026A0000CF05EF80146D5E70000F03F00408F4097
:1026B0000000E03F541AFF1F0000F0BF00000000C0
:1026C00000308FC090F87130E3B910B50E4B82B076
:1026D0001B680193044601980BF01CFDD4E902230A
:1026E0000BF0DAFBD4E908230CF01AF820B12046ED
:1026F000FFF726FF02B010BD94F87030002BF6D023
:1027000002B010BD704700BF541AFF1F0020704771
:1027100090F8392090F83800101A704790F8383047
:1027200090F839209A4205D95A1C034480F8382081
:10273000187E70474FF0FF30704700BF90F8383078
:1027400090F839209A4286BF1B18187E4FF0FF3050
:10275000704700BF704700BF38B50546B0F85E004F
:1027600090B195F85D301446C3F1210294420CD823
:1027700005F13B001844224600F054FB95F85D300B
:10278000234485F85D30204638BD01201446287169
:10279000EEE700BFB0F85E306BB190F85D30202BF3
:1027A00007D8C218013380F85D30012082F83B1051
:1027B0007047012303710020704700BF0023426966
:1027C00080F8383080F8393080F85C3080F85D303F
:1027D00080F85E3080F85F3006CA30B40D68046956
:1027E00043662A4383660A60A370426990F86130A9
:1027F0001649146813441D7A5B7B01EBC5051B0267
:102800006D6803F4E06343F064032B6090F862307A
:1028100013449D7CDB7D01EBC5011B02496803F479
:10282000E06343F064030B6021685368194205D0EC
:1028300003692C225A70036904229A7103692022C9
:102840005A71036980229A7030BC7047DC4C0100D9
:1028500070B490F8613045692B441E7A8E420AD0DC
:10286000EC1D002314F8012FFF2A04D08A4204D063
:102870000133052BF6D170BC704795E80600096856
:10288000114211D00A4901EBC6061D4472680024AA
:1028900014602C7A6A7B01EBC401120202F4E0623C
:1028A000496842F064020A6080F86130E3E700BFE3
:1028B000DC4C010070B490F8623045692B449E7C7A
:1028C0008E420BD005F11104002314F8012FFF2ACA
:1028D00004D08A4204D00133052BF6D170BC704776
:1028E00095E806000968114211D00A4901EBC606B5
:1028F0001D44726800241460AC7CEA7D01EBC401C5
:10290000120202F4E062496842F064020A6080F850
:102910006230E3E7DC4C010038B50269D478E4B2F8
:10292000E106054624D51023D37063061FD504F0B5
:10293000040404F0FF03002C5AD042496A6E0023BD
:102940000B7085F85D30002A66D0904795F85D30B1
:10295000002B61D02B69D0229A702B6995F83B200F
:102960001A712B69012285F85C200222DA7038BDC9
:1029700004F0400303F0FF00002BD8D19379DBB2C1
:1029800003F0600160294ED0937803F0100303F048
:10299000FF01B3B114F0010437D195F85C3095F81C
:1029A0005D1099424BD9591C2B4485F85C1093F863
:1029B0003B3013712B69D0229A702B690222DA7096
:1029C000D5E785F86010937943F0200393712B6964
:1029D00095F839101A791F29D2B2C6D8194800784B
:1029E0000028C2D06818013185F839100276BCE79A
:1029F0002A6985F83930C02393702B69114A1979F7
:102A0000012111700222DA70B1E7C02393702B69A3
:102A10001A790222DA70AAE70122002385F85D20E4
:102A200085F83B3096E703F0DF039371AB6E23B17B
:102A300085F8380095F8390098472A69A4E7147199
:102A4000B8E700BF501AFF1F2DE9F047374FDFF8F6
:102A5000E0903B68026982B006460093DDF8008092
:102A60000021C825D3789B065BD53B680193019B69
:102A7000C8EB03030F2BF5D949B1102BF2D000207E
:102A80009070336980229A7002B0BDE8F087726955
:102A900096F8613013440521187A00F05BFB7269E7
:102AA00096F861301344012193F812A0504600F0CB
:102AB00051FB09240021504600F046FB2B46013B08
:102AC000FDD10121504600F03FFB2B46013BFDD1DB
:102AD000013CEFD1706996F8611001444FF4C8725F
:102AE0000C7A4B7B09EBC4011B02496803F4E063D9
:102AF00043F064030B6096F862300344997CDB7DFD
:102B000009EBC1011B02496803F4E06343F064036D
:102B10000B60013AFDD13269D3789B064FF0010179
:102B2000A3D4012002B0BDE8F08700BF541AFF1FF4
:102B3000DC4C01002DE9F04106690025122780F8E0
:102B4000385080F83950F770D0F810C09CF802E087
:102B50000EF0200E88B00446884615461E46BEF18B
:102B6000000F49D0B4238CF80230784B21691A68E1
:102B70000092DDF800E006E01A6801920198CEEBC1
:102B80000000042830D8C87800F0200000F0FF07CB
:102B90000028F1D04FEA480242F00102D2B20A7195
:102BA0001A680292DDF808E0206906E01A680392CC
:102BB0000399CEEB010105292AD8C17801F0020161
:102BC00001F0FF070029F1D04FF0020C80F803C09C
:102BD0002269D17811F0110722D12DBB002E0CBF34
:102BE000A0238023937003E08F70236980229A7062
:102BF000384608B0BDE8F0810EF0FF07FFF724FF6C
:102C00000028F5D0236984F85F70B0229A70ACE791
:102C100087702369802238469A7008B0BDE8F08139
:102C2000802393700027E3E7012D75D0A0219170D8
:102C300021690A79BE4667464FF0A80C1A680492CB
:102C4000049805E01A680592059A121A052A4AD8CE
:102C5000CA7802F0020202F0FF08002AF2D0CF7018
:102C60002169CA78D2B212F0100F08465AD19206E2
:102C700058D5013DEDB2012D49D0BEF11F0F3BD912
:102C80000A79012DDAD11A680692069D05E01A68C4
:102C90000792079A521B052A46D8C27802F0020210
:102CA00002F0FF01002AF2D00223C3702269D37818
:102CB000DBB2D9063AD49B0634D5B023BEF11F0F40
:102CC00093703FD8226904EB0E0312791A760EF145
:102CD000010E5FFA8EFE16B1236980229A7084F885
:102CE00039E0774684E781F80280236980229A7070
:102CF000774684F839E07BE704EB0E0291F8048014
:102D000082F818800EF1010E5FFA8EFEB9E781F8A5
:102D100002C021690846B0E7A82191702069BE462B
:102D20000279B0E7774663E78170DEE71021C823B8
:102D3000D170013BFDD12269937803F0F703774608
:102D4000937055E723691B79C5E700BF541AFF1F2D
:102D50000148FFF7E1BD00BF6C07FF1F0148FFF707
:102D6000DBBD00BFD807FF1F0148FFF7D5BD00BF7F
:102D70000007FF1F10B5036814465B68984720469C
:102D800010BD00BFF0B507468BB0002A33D0012A32
:102D900008BF0A2251B3212400E0F4B2B1FBF2F5DE
:102DA00002FB1511C8B2092900F1300198BFC8B261
:102DB0000AA988BF3730214488BFC0B201F8240C6B
:102DC000661E2946002DE8D133B1013CE4B20AABBE
:102DD00023442D2203F8242C3B6801AA11195B68B7
:102DE0003846C4F1220298470BB0F0BD30228DF86E
:102DF00025202124E8E70368C9B21B6898470BB077
:102E0000F0BD00BF0029BABF49422D2300230A228A
:102E1000FFF7B8BF08B5FDF747FCFDF761FF01F00C
:102E20000BFBFAE7844641EA000313F003036DD17C
:102E3000403A41D351F8043B40F8043B51F8043B7D
:102E400040F8043B51F8043B40F8043B51F8043B84
:102E500040F8043B51F8043B40F8043B51F8043B74
:102E600040F8043B51F8043B40F8043B51F8043B64
:102E700040F8043B51F8043B40F8043B51F8043B54
:102E800040F8043B51F8043B40F8043B51F8043B44
:102E900040F8043B51F8043B40F8043B51F8043B34
:102EA00040F8043B51F8043B40F8043B51F8043B24
:102EB00040F8043B403ABDD2303211D351F8043BC4
:102EC00040F8043B51F8043B40F8043B51F8043B04
:102ED00040F8043B51F8043B40F8043B103AEDD273
:102EE0000C3205D351F8043B40F8043B043AF9D2C4
:102EF000043208D0D2071CBF11F8013B00F8013B97
:102F000001D30B8803806046704700BF082A13D3A3
:102F10008B078DD010F003038AD0C3F10403D21ABB
:102F2000DB071CBF11F8013B00F8013B80D331F8EF
:102F3000023B20F8023B7BE7043AD9D3013A11F86F
:102F4000013B00F8013BF9D20B7803704B784370DA
:102F50008B7883706046704708B5104C08E0236892
:102F600059050DD423681A050FD42368DB0411D446
:102F700023685803F3D500F0D1FA23685905F1D539
:102F800000F00EF823681A05EFD500F009F8236861
:102F9000DB04EDD500F004F8EAE700BF348004401C
:102FA00008B5FFF7D9FF00BF014B10221A80704708
:102FB00000200540704700BF094908B50B6830B1D3
:102FC0006A461844A2F50052904202D208601846A0
:102FD00008BD0CF0EDFC0C2303604FF0FF3008BD82
:102FE0004408FF1F002070474FF0FF30704700BFBC
:102FF0004FF400534B600020704700BF0120704722
:103000004FF0FF30704700BFFEE700BF0CF08EBFEF
:103010000CF094BFF0B44D1E2E46002400E00134A5
:10302000B0FBF2F302FB1300092800F130078ABF5E
:103030003730F8B2C0B206F8010F1846002BEED1B7
:103040000A1953704CB1107815F8016F28700133CC
:10305000E01A834202F80169F5DB0846F0BC7047CC
:1030600010B4114B53F8302092F8804234B1012350
:1030700079B182F880305DF8044B704703EBC003F0
:103080005B681A6851B922F002021A605DF8044BBD
:10309000704782F800315DF8044B704742F003023C
:1030A0001A605DF8044B7047DC4C01001C4A02EBCF
:1030B000C00301295B6811D004291BD052F83000ED
:1030C000002280F8802229B1022920D0032922D0B1
:1030D0001A6070474FF480721A60704752F83000DF
:1030E0004FF4A27280F880121A601A6822F020024F
:1030F0001A60704752F830104FF4A272012081F824
:1031000080021A601A6842F020021A60704740F28A
:1031100003121A6070474FF481721A60704700BF43
:10312000DC4C010030B4054B054D064C002210214B
:103130001A602A602060196030BC704714D00340C8
:1031400004D0034000D003403F2801D8FFF788BFD8
:10315000704700BF3F2801D8FFF7A8BF704700BFE6
:1031600072B60C490C4B0D4A1B680868126862B6AF
:10317000520102D5322B88BF01300949C3F5EA3329
:103180004FF47A72BF33A1FB031302FB00F000EB94
:1031900093107047541AFF1F18E000E004ED00E0A0
:1031A000898888882DE9F843054672B6204F214B5F
:1031B000214A1B683C68126862B6520102D5322B64
:1031C00088BF013495B3C3F5EA331C4EDFF8649031
:1031D000DFF86480BF334FF47A72A6FB031302FB5F
:1031E00004F404EB931472B6D9F800103A68D8F8D6
:1031F00000E062B6C1F5EA33BF33A6FB03031EF05D
:10320000806FC4EB93134FF47A7002D0322988BFD9
:10321000013200FB0233B3F57A7F04D3013D05D0C0
:1032200004F57A74DFE701F007F9DCE7BDE8F8831D
:10323000541AFF1F18E000E004ED00E08988888838
:10324000F8B53E4B3E49DFF818C13E4E3E4ADFF826
:1032500014E13E4D3E4C3F4F4FF0006018604FF080
:10326000805018604FF0005018604FF08040186098
:103270004FF0004018600020086028234EF6FF71D0
:10328000CCF80010CEF8003033600EF5012E13603C
:103290002B60236005F500253B6004F50024B36234
:1032A00007F50027936206F5012602F501220EF1CB
:1032B000100E05F6E87504F6E87407F57F6710321E
:1032C00020362B602360CEF800303B601360336003
:1032D000214EBB61936109223260A7F5002706F5F4
:1032E0008056203F083638603160BB60F36047F895
:1032F000042C06F5FD2607F5FE2706F2FC760437BA
:1033000030603960B360FB6046F8042C0836C7F8BB
:10331000FC0F06F6FC76114831602B6023600260DA
:1033200001F02CF91920FFF73DFF00F05DFE40F29F
:103330001310BDE8F840FFF735BF00BF04E100E01F
:1033400004800340148003401C8003402480034019
:103350002C800340348003400080034000900B40E9
:10336000088003400C800340431E032B14D872B620
:103370000A4951F8230068B170B4094C058834F843
:103380001320466841F82360521B24F8132062B6CC
:1033900070BC704762B6704700207047B01AFF1FBC
:1033A000881CFF1F013803280BD872B6074B53F84F
:1033B000203043B100205B680130002BFBD162B6A6
:1033C0007047002070471846F9E700BF041BFF1F35
:1033D00030B472B62B4A13781D0706D52A4B196AEA
:1033E000002936D0996A002941D053781C0706D5A8
:1033F000254B196C00293ED0996C002939D093785F
:10340000190705D5204B196E002936D0996E89B160
:10341000D3781B0707D51C4BD3F880207AB3D3F899
:10342000882011213AB162B6184B00221A7030BCC4
:1034300000F072BE0D21154C154D227843F8315025
:1034400003EBC1030830013A5860227062B630BC09
:10345000704704220D4C0F4D217843F8325003EB96
:10346000C20308304A1E5860227062B6EFE7052199
:10347000E1E70921DFE70822ECE70C22EAE7102266
:10348000E8E700BF044F01000000FF1F2D1BFF1FD6
:10349000C800400088004000431E032B1DD81B4A73
:1034A000400140F0100030B4104472B6184CE25C99
:1034B000032A1BD8DFE802F00212151703220D8839
:1034C000E25410F0080F14BFC823882343EA0543D1
:1034D00008310360416062B630BC70470830022298
:1034E000EDE70522EBE708300422E8E7094A52F845
:1034F000230038B1084A52F82300416042F82310F3
:1035000062B6E9E742F82310034AF7E70000FF1F1D
:103510003C1BFF1F041BFF1F141BFF1F2DE9F04F57
:10352000DFF818B3DFF818A387B044E0AE4F4FEAD6
:10353000930807EBC809013ED9F8042003F00803FB
:10354000F6B2A2F1080003F0FF04002B40F0048162
:1035500057F838301B0C99B222F8081C002B00F0E9
:10356000F280A24B22F8064C42F8044C53F8262075
:10357000002A00F06E819E4D55F8263058609D4C13
:1035800045F8260034F81630194424F8161000F0D7
:10359000A3FD002800F05681974A984B19F0080FB8
:1035A00000F1080018BF1346C9F8040047F8383086
:1035B00008238BF800309BF80040E4B261071BD56C
:1035C0008F4B1B78ABB18F490A7802F0FF032AB109
:1035D000013BDBB20B70002B00F0EF848A490A78C4
:1035E00002F0FF032AB1013BDBB20B70002B00F0AD
:1035F000F78004238BF8003004F0080303F0FF0287
:10360000002B00F0D6809AF80030DBB21E098DD175
:103610009C08DFF8D49159F8342009EBC401C2F3B7
:103620008302013A49680C2A7ED8DFE802F08181E2
:103630007D7D7D7D7D7D477D7D7D07000868734DA7
:103640004A68734F734E286081B240F281606A4BC2
:103650006A604FF0010E0022814249F834303A602E
:10366000C9F81020C9F8182086F800E05E4C00F276
:10367000F480B1F5D06F80F07883B1F5817F00F0F0
:10368000628300F28782802900F0EC82822940F078
:103690001E83A98801F07F01042900F218835E4887
:1036A0005E4C89000844227062700278930740F1F2
:1036B000798384F800E04FF0020ED8E2544F3A6864
:1036C00042B3574B534E5749188834780D784028E9
:1036D000864645F0020828BF4FF0400E002C84F0CB
:1036E00001043470CEEB00000CBF8824C82409EB21
:1036F000C80680B285F0010544EA0E447260188065
:1037000049F8384072440D7018B9BEF1400F18BF27
:1037100000223A603D4B1A88B2F5A06F04D1002117
:103720009A785970404B1A70404A012313703FE752
:10373000364A158842F22100854200F0FF812E4A68
:1037400049F83420F0E72C4A2C4B19F0080F18BF29
:10375000134647F838302BE700F0DEFC344A354991
:1037600052F82630002B00F0B68158688C5D42F884
:10377000260003F10802C9F80420032C05D8DFE86D
:1037800004F0120F150204228A551A8819F0080F46
:103790000CBF8823C82343EA024347F8383007E7C1
:1037A00002228A55F1E703228A55EEE705228A555F
:1037B000EBE7E00700F11A82210600F14982A20737
:1037C00006D51D4A1D4913780220DBB2137008701C
:1037D000E30602D5194B10221A7007B0BDE8F08F2E
:1037E00000F006FE05E700BF0000FF1FB01AFF1F34
:1037F0005C1AFF1F881CFF1FC800400088004000A3
:10380000381BFF1FC11AFF1F401BFF1F241BFF1F78
:10381000581AFF1FC01AFF1FC0200740301BFF1F90
:103820006C1AFF1F2C1BFF1F982007409420074095
:10383000041BFF1F3C1BFF1F882007408020074000
:1038400090200740AB4A47F83800137801331370D3
:10385000AEE643F82600A84D91E642F221008142EF
:1038600000F0358100F2AF81B1F5086F00F01B82E6
:10387000B1F5106F40F02B82226AA049A878087039
:10388000120600F14583D9F828209D49130600F15E
:103890003A83D9F830209A49150600F12F83D9F8D8
:1038A00038209749140600F12483D9F84020944920
:1038B000100600F11983D9F848209149120600F149
:1038C0000E83D9F850208E49130600F10383D9F8EE
:1038D00058208B49150600F1F882D9F860208849F4
:1038E000140600F12983D9F868208549100600F1F3
:1038F0001E83D9F870208249120600F11383D9F88B
:1039000078207F49130600F10883D9F880207C498C
:10391000150600F11C83D9F888207949140600F1B6
:103920001083D9F890207649100600F1C882D9F8A2
:1039300098207349120600F1BC827248724A73499A
:10394000019073486C4D734C0497002305960295C3
:10395000804617460E461D460394386828B14468D1
:1039600000F0DAFB2046002CF9D100233B60029BDB
:1039700030681A46002342F8253028B1446800F028
:10398000CBFB2046002CF9D100223260019A98F836
:1039900000301146002241F8042B039A0191023BAA
:1039A0004FF0000122F81510032B09D8DFE813F0BF
:1039B0004B0104004B0104004FF0010388F8003074
:1039C0000135042D07F1040706F1040608F101088A
:1039D000C3D1514C514B2278464D049F059E002186
:1039E00029701A70130700F14F8262784C49DFF892
:1039F00010810A7010074FF00001C9F83010C9F8A3
:103A0000381000F12B824749A2780A700021C9F8CA
:103A10005010C9F858101107DFF8E48000F1DC817C
:103A2000E2784149364C0A7000211207C9F870103B
:103A3000C9F8781000F1B98133780193002183F03F
:103A40000102C9F89010C9F8981000200290804631
:103A50008446044635490D7845F0020E09EBCE0345
:103A60000393019B002B039B5C600CBF8824C8243C
:103A700044EA080385F0010449F83E3032700C70C6
:103A8000DFF87CE02A4BDFF8A480002840F0268194
:103A9000BCF1400F1BD144F0020C09EBCC03029C9B
:103AA000DFF85CE05C60002A40F02E81020442F006
:103AB00088029DF804304EF83C20044433700D70A9
:103AC0002346402803D100201A4A3B6010801A4A3E
:103AD0000123137028E68B5D032B00F22D8101A2D8
:103AE00052F823F0B1350000B13500003B3C000036
:103AF000413C00002D1BFF1F5C1AFF1F381BFF1FDE
:103B00000000FF1F141BFF1FB01AFF1F041BFF1F25
:103B10003C1BFF1F881CFF1F044F0100C4200740EF
:103B2000C8200740CC200740D02007402C1BFF1F97
:103B3000C01AFF1F6C1AFF1F94200740928892B989
:103B4000B14A0D784878157050708D78C8789570A6
:103B5000D07010680D79157186284D798979557165
:103B6000917100F0A580A949A94E0A78307882F0B9
:103B70000105002842F002020D700CBF8821C82107
:103B800049F8321009EBC20280F0010000213070C8
:103B90005160D4E540F20232914240F08D80A98814
:103BA00001F07F01042900F292806A88002A40F027
:103BB0008E809848CDF804E089000844017841F0EF
:103BC0000201017041E742F2212081427BD1A988A4
:103BD000002940F0E480904B904A9148AC781D68F1
:103BE0001560CDF804E00A4604702EE78D4B8E4830
:103BF00086491A614FF0020E80F800E0854F0A7086
:103C00008A49196099608A4E8A4D8B4C9A610D21C0
:103C10003970FF213170DFF840E229702270874D42
:103C2000874A8EF800109F27012406F8047C5D6007
:103C30000470DA6007B0BDE8F08F00238B55B7E45D
:103C400001238B55B4E44FF0000388F80030B7E649
:103C50007049784B80220D2008701A70A2077FF5FA
:103C6000B7ADAEE5774C4FF0020E22706270EA8875
:103C7000724580F0A38165490D78402A944645F04D
:103C8000020E28BF4FF0400C04EB0C0309EBCE00F2
:103C90000293012344604FEA0C48CCEB02000193ED
:103CA0000022C824E4E6684A664C12782270DEE7F7
:103CB000664A0F21117056E7B1F5A06F07D10123B5
:103CC00000220193C1E642F221329142F7D0514ADB
:103CD0000F231370544A0123137025E540287FF603
:103CE000DAAE44F002040EEBC401029E4E60BAB19B
:103CF0009DF80410564A19703346403888F8005031
:103D000040334EF83420DFE69DF80430337002046F
:103D1000029B0D7042F0C80203444EF83C20D0E6EE
:103D20009DF804101970029B404A88F800504038F2
:103D300040334EF83420C7E619F0080F0CBF0223B9
:103D400003238B5534E4A98801F07F010429BED8F0
:103D50006A88002ABBD12F48CDF804E089000844C6
:103D6000017821F0020101706FE63A4A5468002C94
:103D7000ADD06888B5F804E003E00C325468002C3C
:103D8000A5D013888342F8D153887345F5D1000A32
:103D900003280CBF94F800E0B2F808E067E7CDF81C
:103DA00004E052E64FF0020E61E700F095F90028BA
:103DB00000F0F18008301D4AC4F88400C4F8802067
:103DC00000F08AF9002800F0E0800830204AC9F8A5
:103DD0008C00C9F888202FE600F07EF9002800F05A
:103DE000E6800830114AC8F86400C8F8602000F086
:103DF00073F9002800F0D5800830154AC9F86C0026
:103E0000C9F868200CE600BF941CFF1F2C1BFF1F85
:103E1000C01AFF1FC0200740541AFF1F901CFF1F2D
:103E2000501BFF1F0000FF1F942007408800400028
:103E3000882007408020074098200740701AFF1F05
:103E4000C41AFF1F301BFF1F381BFF1FC11AFF1FA3
:103E5000C8004000084F01008C20074000F03CF9EA
:103E6000002800F08C8008305D4AC8F84400C8F88B
:103E7000402000F031F900287BD00830594AC9F8B9
:103E80004C00C9F84820BEE500F026F900286AD0A9
:103E90000830534AC9F82400C9F8202000F01CF962
:103EA00000285AD008304F4AC9F82C00C9F82820F9
:103EB0009BE5D1F89C00083800F02EF93DE5D1F8DB
:103EC0009400083800F028F931E5C86D083800F092
:103ED00023F902E5486D083800F01EF9F7E4C86CD4
:103EE000083800F019F9ECE4486C083800F014F9CF
:103EF000E1E4C86B083800F00FF9D6E4486B0838E5
:103F000000F00AF9CBE4C86A083800F005F9C0E40B
:103F1000606A083800F000F9B5E4C86F083800F0AE
:103F2000FBF8F2E4486F083800F0F6F8E7E4C86EF2
:103F3000083800F0F1F8DCE4486E083800F0ECF8DE
:103F4000D1E4D1F88C00083800F0E6F8E9E4D1F8C3
:103F50008400083800F0E0F8DDE42A78C9F8280089
:103F600001322A7041E52A78C9F8200001322A700E
:103F700094E72A78C9F8480001322A7043E52A7884
:103F8000C8F8400001322A7073E72A78C9F888001F
:103F900001322A7050E52A78C4F8800001322A7074
:103FA0000EE72A78C9F8680001322A7038E52A78C5
:103FB000C8F8600001322A7019E700BEBEF1400F58
:103FC000F44628BF4FF0400C04EB0C03029301238E
:103FD000CCEB0E004FEA0C48002201933AE500BFFB
:103FE00088004000C80040002DE9F843244C00F050
:103FF00037FB002204F1A00023461A605A60083300
:1040000083424FF00001F8D11E481F4A0368DFF8D1
:1040100090E01E4F1E4D1F4EDFF88880DFF888C0ED
:10402000DFF8889043F48023036013681A4843F054
:1040300040731360C4F307238EF80030C4F30743C2
:104040003B70240EFF2302F5C9222C7002F5847206
:1040500088F80030114D8CF800303370012389F856
:10406000003070268EF864104FF40014102107F809
:104070002C3C2E70046011700EF1640EBDE8F883C4
:104080000000FF1F3480044000D80040B0200740EB
:10409000B42007401020074004E100E035E400E0D0
:1040A0009C2007408020074088200740942007403C
:1040B00000F0A2B800F07AB800F054B800F08EB862
:1040C00000F06AB900F044B90846114600F0B0B8F3
:1040D000084600F031B900BF72B60D480268B2FA66
:1040E00082F30B2B10DC4FF00041D94022EA010291
:1040F000026062B6074803EBC303DB00C21800216D
:10410000C15010465160704762B60020704700BF32
:104110005808FF1F9803FF1F0D4B0E4AC31AA2FB3E
:1041200003231B090B2B0CD80B4A127852B972B619
:104130000A484FF00041026821FA03F31A43026073
:1041400062B67047064A1278002AF0D0FFF740B9ED
:104150009803FF1F398EE3382D1BFF1F5808FF1FE0
:10416000381BFF1F38B50F4D286878B14388028887
:10417000C118013393420C7A02D24380204638BDE5
:10418000FFF7CAFF002320462B6038BD064B1B7883
:104190002BB10320FFF7E8F828600028E6D14FF0A4
:1041A000FF3038BD4C1BFF1F381BFF1F10B5094CDB
:1041B000206818B143881844007A10BD064B1B785C
:1041C0002BB10320FFF7D0F820600028F2D14FF088
:1041D000FF3010BD4C1BFF1F381BFF1F044B054A4F
:1041E0001B6890881BB11A885B88D31A18447047E3
:1041F0004C1BFF1F881CFF1F0B4B1B789BB110B57E
:104200000A4C206848B1FFF787FF00230320236092
:10421000FFF7AAF830B1FFF77FFF0320FFF7A4F8FC
:104220000028F8D110BD7047381BFF1F4C1BFF1F23
:104230002DE9F04FDFF8F89083B0012289F80020D3
:10424000019169B3DFF8EC80364F019E8346D8F8C0
:104250000000B0B3344D4488C4F14001B14228BFDE
:10426000314604EB010E00221FFA8EFE2A70761AE8
:10427000A0F802E000F1080251B1013C2244594487
:104280001BF8014B02F8014F8B45F9D1B0F802E061
:10429000BEF13F0F0BD8254A05211170002ED6D153
:1042A0000198002389F8003003B0BDE8F08F402268
:1042B000028001460420FFF7EFF80022C8F8002032
:1042C000E9E73A782AB3184D4DF2E9044FF0010AB4
:1042D00007E0013C16D02A78A2B900F0ADF83A7890
:1042E000BAB10420FFF75EF80728F2D889F800A0D9
:1042F000FFF7F2FEC8F800000028ACD10C4B013CDF
:104300001870E8D101234FF0FF302B7003B0BDE8E7
:10431000F08F00234FF0FF3089F8003003B0BDE884
:10432000F08F00BF381BFF1F481BFF1F401BFF1FE4
:10433000411BFF1F441BFF1F00B583B002AB0121CF
:1043400003F8010D1846FFF773FF03B05DF804FB97
:1043500038B50E4D0E4C28680123237028B14088D3
:1043600000232370C0F1400038BD0A4B1B7813B9FD
:104370000020207038BD0420FFF714F80728F7D874
:10438000FFF7AAFE28600028E9D1F1E7441BFF1FD0
:10439000411BFF1F381BFF1FF8B5114B1B788BB15A
:1043A000104E114D346801272F7064B10F4A638895
:1043B00000271770214623800420FFF76DF837602F
:1043C00000232B70F8BDFFF787FE084B28B101468C
:1043D00004201C70FFF760F8F2E71F70F0E700BFE1
:1043E000381BFF1F441BFF1F411BFF1F401BFF1FEC
:1043F00038B50E4B1B7873B90D4C216861B103F0D1
:10440000FF054B880B800420FFF746F8256038BD78
:10441000084B01221A7038BDFFF75EFE0028F7D066
:104420000146BDE838400420FFF736B8411BFF1FA6
:10443000441BFF1F401BFF1F2DE9F843314E33780B
:1044400093B1314F3A787AB90122D9073A7036D40C
:104450009A0719D400225B073A7005D52B4B1A68CE
:1044600012B1EFF305820AB1BDE8F883EFF31081D2
:1044700072B6186818B1264C2278002A2ED000296E
:10448000F2D162B6BDE8F883DFF8908098F800209A
:10449000002ADFD0DFF88890002405E0013498F886
:1044A0000030E4B2A34212D959F824502B682846B0
:1044B0001B6998470028F1D02B699847EEE7FFF772
:1044C0008DFEC8B9134B1B781BB93378C0E733781E
:1044D000C0E7337803F0FE033370B9E745691D6028
:1044E000012323705DB1AA6101B962B60025457749
:1044F000836898472570B7E700F0B0F8E2E7064B0D
:104500001D60F1E75C08FF1F511BFF1F601BFF1FB1
:10451000641BFF1F5F08FF1F5C1BFF1F801BFF1F2B
:10452000681BFF1F70B5EFF3108272B60C4C206849
:1045300080B10C4E00254369236073B19D6102B9BF
:1045400062B6457783689847EFF3108272B62068A9
:104550000028F0D102B962B670BD3360EFE700BF4A
:10456000541BFF1F581BFF1FFFF7DCBF024A1368D5
:1045700001331360704700BF541AFF1F30B429483D
:10458000294A2A4B2A4D6024E121047011701B78BE
:10459000284C082B30D00A2B2748284937D00C2B21
:1045A0000CBF35225D2212232A60236002600B605B
:1045B000234B24491B78244ABBB101230B601360B1
:1045C000224B23491B78234A012B26D9042B0FD9D0
:1045D000082B1ED9102B94BF862387230B601360F2
:1045E0001D4B01221A7030BC70470B601360E7E767
:1045F00084230B601360F3E700F58E200F49083029
:10460000212213232A60236002600B60D0E7392245
:10461000F7E785230B601360E2E780230B601360EC
:10462000DEE700BF00400740014007405D08FF1F74
:1046300008B003400CB0034008B00B400CB00B4076
:10464000821BFF1F20B0034020B00B405E08FF1FFD
:1046500024B0034024B00B40811BFF1F704700BFF4
:1046600072B6184A184B19491160702280211A70CD
:104670001A46197013781B06FCD510B5144B84B07C
:10468000186862B6134B144C984298BF00EB800038
:1046900001A998BF40000A22FEF7BCFC01A92046F0
:1046A000002311F8012B01333AB10A2B20F8022F15
:1046B000F7D11623237004B010BD5B00DBB223706A
:1046C00004B010BD04000240000002400000074199
:1046D0000C0002407F969800EC08FF1F0B46014635
:1046E00018460BF05FB900BF08B5042000F0EEFAE1
:1046F000024B0360024A034901F018F8A45201007A
:10470000CD4A0000B052010038B50546082000F03F
:10471000DDFA2946044601F089F92046044A054994
:1047200001F004F8204600F0E9FA00F00BFB00BFAE
:1047300079590000FC54010038B50546082000F006
:10474000C5FA2946044601F085F92046044A054980
:1047500000F0ECFF204600F0D1FA00F0F3FA00BFC1
:10476000CD590000745501000FB4F0B583B000AF0F
:1047700007F1200454F8046B30460CF001FE00F2FF
:104780000E2323F00703ADEB030D00F50071234664
:10479000324668467C6000F061F8082000F096FA26
:1047A0006946044601F060F92046044A044900F0D5
:1047B000BDFF204600F0A2FA00F0C4FAFD59000047
:1047C00054550100F0B59DB000AF0C1A06466C229E
:1047D0000E49381DFEF726FB04F17A0323F0070388
:1047E000ADEB030D391D6B226846FEF71BFB22461D
:1047F000013431460DF16B006C44FEF713FB0023CE
:10480000684684F86A30FFF77FFF00BF5C4F010005
:104810002DE9F041104B84B01B6804AF88B001252E
:1048200002248DE818000295804600230AA80E464F
:1048300001F0BAF9B0420CD80446C0F1180104AD39
:10484000404629442246FEF7EDFA2046BD46BDE823
:10485000F0814FF0FF34F8E71009FF1F01392DE90F
:10486000F041074646181546044602E0227001351D
:1048700001342A78FAB1B44234D2252AF6D16978C3
:1048800073291CD07A2904D02529EFD101350A4695
:10489000ECE7A9787529E9D11A68311B204603F1A4
:1048A0000408FFF7B5FF00281CDD03352A7804440F
:1048B0004346002ADFD12270E01BBDE8F081196871
:1048C0000A78043312B907E0A64207D004F8012B96
:1048D00011F8012F002AF7D10235CAE731463846D0
:1048E000FFF770FF21463846FFF76CFF0868B0F10C
:1048F000004F08B51BD290420ED9520090420BD205
:10490000B2F1004F0DD36FF000430B604FF0004049
:10491000BDE80840FEF77ABB0130BDE80840FEF76D
:1049200075BB0A60501CBDE80840FEF76FBB01482C
:10493000FFF702FFC84F01000048704764520100B2
:10494000004870476C52010002604160704700BF30
:104950004B68834201D0002070470868801AB0FA83
:1049600080F04009704700BF704700BF704700BF2C
:1049700010B50446FEF74CFB204610BD10B50446AA
:10498000FEF746FB204610BD10B50B6886B0044606
:104990001B696846984720469DE8060001F06EF8BE
:1049A000009802AB984201D0FEF732FB204606B0D9
:1049B00010BD009802AB984201D0FEF729FB00F031
:1049C000C1F900BF70B5054682B001B3541A0F2C6F
:1049D0000E4601940AD82B68012C184613D064B9EE
:1049E000019A6A600021995402B070BD002201A9A9
:1049F000FFF77CFF019B2860AB6022463146FEF743
:104A000011FA2B68ECE732781A702B68E8E712B1DC
:104A10000248FFF779FE01920368E1E7385101008F
:104A200038B5044610460CF08FFC04F108032360EF
:104A3000054640B10CF0A4FC29462A182046FFF791
:104A4000C1FF204638BD20464FF0FF322946FFF710
:104A5000B9FF204638BD00BF30B503680C4D5B6917
:104A6000AB4283B014460CD16368834202D000206D
:104A700003B030BD2068401AB0FA80F0400903B09E
:104A800030BD0A4601466846984700990198EBE711
:104A90004949000010B5064C064907482246FFF771
:104AA0001DFE224605490648BDE81040FFF716BE28
:104AB000F806FF1F6D4900000809FF1F6949000043
:104AC0000409FF1F00487047BC52010010B5034B9A
:104AD0000360044600F08AFA204610BDA45201008B
:104AE00010B5054B0360044600F080FA2046FEF73F
:104AF0008FFA204610BD00BFA452010070B50368B4
:104B000084B000249E690094102315460293126815
:104B10008DF804406B460394B0479DF8043003F0D1
:104B20000603062B03BF009B2B600120204604B028
:104B300070BD00BF009890420CBF06200120704756
:104B400010B5034B0360044600F0FAFE204610BD8A
:104B5000E452010010B5054B0360044600F0F0FE7E
:104B60002046FEF755FA204610BD00BFE452010072
:104B700038B515461C4600F0E7FE20B10822062392
:104B80002560E260237138BDF0B583B01746089DFB
:104B90000A990B9C8D4206460BD01946304600F010
:104BA000D3FE18B1012325602771A371002003B043
:104BB000F0BD0999019300F0C7FE18B1002067719C
:104BC00003B0F0BD019BE8E72DE9F04117461C4614
:104BD00006460D4600F0B8FE08B9032C01D9BDE821
:104BE000F0812B683A46314628465B69BDE8F041C2
:104BF000184700BFF0B41B4C50F8087C6168A0F166
:104C00000806C9B1F519A9421BD04A682AB39542D2
:104C100003D322E09D4205D21A4653680C1D11466B
:104C2000002BF7D111685518AE4213D040F8043C60
:104C300023685E60F0BC704740F8041C6660F0BCFE
:104C400070470B684A6840F8042C1F4440F8087C01
:104C50006660EFE739441160ECE7134604340A4616
:104C6000E0E700BF841BFF1F30B4174C00F10803BE
:104C7000072B636886BF00F10F0121F007010821AF
:104C8000EBB11A68914204D81BE002688A4205D24F
:104C9000034658680028F8D130BC70470433521AD4
:104CA000072A09D9441845686560425018680160B0
:104CB0001C60083030BC704742681A60F9E718463B
:104CC000EAE71846231DEAE7841BFF1F38B500F109
:104CD000800528460BF02AF9044638B180220021CD
:104CE00020460BF0EBFC04F1800038BD2846FFF7AE
:104CF000BBFF04460028F1D100F0CEFC064A9368C1
:104D00008038984205D9D2681344984201D2FFF7FF
:104D100071BF0BF013B900BF841BFF1F38B5084CDF
:104D20004FF41E652846E5600BF000F9A06020B145
:104D3000002360600560436038BDE060606038BD9E
:104D4000841BFF1F1EB400F08DF81EBC0AF036FC59
:104D5000F0B50278472A83B00E461F461AD00023CA
:104D6000254C0193236820469B68984780B1019B9E
:104D70001B68019302253368214630461C6901AA4D
:104D80000123A04710B1019B3B60284603B0F0BD52
:104D90000125F0E743784E2BE1D18378552BDED106
:104DA000C378432B19D0C378432BD8D10379432B35
:104DB000D5D143792B2BD2D183792B2BCFD1C3796A
:104DC000012BCCD804D050F8204C58300190C9E7C2
:104DD00050F8200C50F8784CF8E70379462BE2D1D4
:104DE00043794F2BDFD18379522BDCD1C379002B50
:104DF000D9D10193014CB5E7B053010058530100DC
:104E000010B5044600F004F92378472BA4F12002E2
:104E100004D0836823BB8260012010BD63784E2BD1
:104E2000F7D1A378552BF4D1E378432BF1D1237933
:104E3000432BEED163792B2BEBD1A3792B2BE8D12C
:104E4000E379012BE5D854F8043C0133012B44F8F5
:104E5000043CE1D1836844F8083C8260012010BD25
:104E600000F01AFC08B500F0D3F8836883B393F818
:104E70002020472A04D00022826003F1200008BDD0
:104E800093F821204E2AF6D193F82220552AF2D108
:104E900093F82320432AEED193F82420432AEAD121
:104EA00093F825202B2AE6D193F826202B2AE2D14D
:104EB00093F82720012ADED8DA69013ADA61002A5C
:104EC000DBD19A69826000229A6103F1200008BD5B
:104ED00000F0E2FB38B5044600F09AF82278036847
:104EE000472AA4F1200105D0002B31D11C460160D6
:104EF000204638BD62784E2AF6D1A278552AF3D1E1
:104F0000E278432AF0D12279432AEDD162792B2A23
:104F1000EAD1A2792B2AE7D1E279012AE4D854F820
:104F20000C2C002A11DB0132456844F80C2C8B4212
:104F300005F1FF3242601CBF44F8103C016020467E
:104F4000646A09F083FF204638BDC2F10102EBE735
:104F500000F0A2FB013101D0FFF7F4FE00F066FF84
:104F600008B500F051F80246006800283DD090F8DE
:104F70002030472B06D0002313602030BDE80840C6
:104F800009F066BF90F821304E2BF4D190F8223012
:104F9000552BF0D190F82330432BECD190F82430EE
:104FA000432BE8D190F825302B2BE4D190F8263014
:104FB0002B2BE0D190F82730012BDCD84369002B54
:104FC00005DB013B08D05A1C0DD0436108BD0133FD
:104FD000FBD101691160F8E7036913602030BDE877
:104FE000084009F035BF00F057FB08BD704700BF0F
:104FF000704700BF004870479C53010010B504463D
:10500000FEF706F8204610BD00487047941BFF1FAE
:1050100000487047941BFF1F5028F8B554D000F08B
:105020000F040C2C4ED8DFE804F007394907174D60
:105030004D4D4D1F1B071700154655F8044B44B145
:1050400000F07006102E18BF0A461444020648BF2E
:1050500024681C602846F8BD154655F8084BEEE755
:10506000154635F9024BEAE700242746154615F8A0
:1050700001EB0EF07F06BE401EF0800F44EA0604EE
:1050800007F10707F3D11F2FD9D81EF0400FD6D054
:105090004FF0FF3606FA07F73C43D1E700242746D6
:1050A000154615F801EB0EF07F06BE401EF0800F8E
:1050B00044EA060407F10707F3D1C0E7154635F8BF
:1050C000024BBCE7FDF7A0FF033222F0030555F8C1
:1050D000044B1C602846F8BDFF2815D008B500F029
:1050E0007003202B12D00AD9402B14D0502B17D08C
:1050F000302B07D10846BDE808400AF04DBC7BB113
:10510000102B0DD0FDF780FF002070470846BDE84A
:1051100008400AF03DBC0846BDE808400AF028BC3B
:10512000002008BDF8B50C4615460746002844D0B7
:105130000AF01EFC28602678FF2E04F1010432D00C
:1051400039463046FFF7C8FF224601462B1D304640
:10515000FFF762FF0446601C23782B75FF2B29D0D4
:10516000102300242B75224610F8011B01F07F0349
:105170009340090644EA030402F10702F4D404440C
:10518000EC6003786B7500240130224610F8011B97
:1051900001F07F0393401C430B0602F10702F5D494
:1051A00004442C61F8BD686023782B75FF2B04F153
:1051B0000100D5D10023EB60E3E7BBE72DE9F04F19
:1051C00000F0030497B00023012C894690460A930F
:1051D00021D00ED3022C0AD1414648460AF0B4FB36
:1051E000002800F0D480092017B0BDE8F08FFDF74B
:1051F0000BFF00F0080000F0FF030028ECD116AA16
:10520000404642F82C1D194600920C2209F04CFE33
:105210000123049313E000F0080000F0FF040028CD
:1052200000F0B98016AA44F0020442F82C1DE4B242
:10523000009219460C224046049409F035FE40467F
:105240000AF09CFB05900028C6D010AB1A460599C1
:1052500006934046FFF766FF414604469DF854001A
:10526000FFF73AFF0DF13C0B0023129019460F2275
:10527000CDF800B0404609F0F1FD0F9B149A23F0E1
:105280000103944203F1FF3643D20DF1340A0EAF0D
:105290009DF8555000212846FFF71EFF2246534631
:1052A00001462846FFF7B8FE9DF855400546002107
:1052B0002046FFF711FF2A463B4601462046FFF7EE
:1052C000ABFE9DF85540054600212046FFF704FF40
:1052D0002A4601465B462046FFF79EFE0446002014
:1052E000024614F8011B01F07F0393400D0640EACB
:1052F000030002F10702F4D4109A0D9B13449E425E
:1053000007D30E9A13449E42C0F0BA80149BA34266
:10531000BED8002503950124049BDB0756D4049BCB
:10532000190740F1A880012C00F09D810DF1340A8D
:105330000EAF16A9002341F8289D1A460091404659
:10534000194609F0B1FD002319460122CDF800A04D
:1053500040460D9509F0A8FD002319460F2200973D
:10536000404609F07BFD0E9B039A009703F0010570
:1053700000231543404619460F220E9509F094FD6F
:10538000022C00F0F580072017B0BDE8F08F082050
:1053900017B0BDE8F08F10AB009306930D222346A3
:1053A00021464046D9F8205009F058FD109B9D42F7
:1053B00024D016AA234642F82C9D2146009240464E
:1053C0000C2209F071FD0223049338E70EAF00238D
:1053D00019460D22009740460A9C09F03FFD059AA8
:1053E0000E9BC9F82C20039AC9F82440C9F828500C
:1053F000C9F83020C9F820300620F5E616AA234661
:1054000042F82C9D2146009240460C2209F04CFDAA
:10541000D9F83030039383B3D9F82C30D9F8285019
:10542000059303240DF1340A0EAF002D81DA069A9C
:1054300005994046FFF776FE41469DF85400FFF778
:105440004BFEAA0082F00302D243139E1290B3587F
:10545000164433B13246002352F8041F01330029A9
:10546000FAD10422C9F82830C9F82C00C9F83460F0
:10547000C9F830205DE7012CD4D1484600F0C6FCC5
:105480000F9B002B3FF4A8AE119A134403930028FE
:1054900000F0D680149C01380444002B3FF49CAEED
:1054A000002C00F0D180049B13F00803099300F056
:1054B000BD8047224E2389F8002089F8013055220B
:1054C000432389F8022089F8033046224F2389F8C4
:1054D000042089F805305222002389F8062089F833
:1054E000073000230793CDF8208000252A4614F8C2
:1054F000011B01F07F039340080645EA030502F112
:105500000702F4D41F2A05D8490603D50123934086
:105510005B421D4300263246204610F8011B01F075
:105520007F0393401E430B0602F10702F5D41F2AA6
:1055300005D8480603D5012393405B421E43002D46
:105540003DD03FDD9DF85400FF286DD000F00703EB
:10555000042B3FF64CAE01A252F823F0A3550000F5
:10556000EF5100009D550000A35500007B55000041
:105570004846FFF745FC072036E6EB005B42139AEE
:1055800012991A443B46FFF747FD0E9999B1B9F1BC
:10559000000F09D1002E5ED03444A6E76B005B42B9
:1055A000EDE7AB005B42EAE70AAB00224846FFF7B3
:1055B000CFFB0028EED0DDF820800324ACE60123E9
:1055C0000793E7E7B9F1000F01D0099B93B16B1C7A
:1055D000C3EB8373139A52F82330002BDAD1049B68
:1055E000DDF82080DA073FF5F2AE099B002B3CD0B6
:1055F00000F060F805F10108C8EB8873139A0A9867
:1056000052F823100F9002EB830821B9E7E758F80E
:10561000041F0029E3D041445B4600224846FFF7BF
:1056200097FB0028F3D0B5E70023A8E799F80730E7
:10563000012B0CBF59F8203C09F158030A9350E79D
:10564000039B002B3FF4C8AD049B13F001057FF4CE
:10565000C3AD022463E6079BDDF82080002BF3D165
:10566000BAE5FFF737FC00F017F80324DDE600BFCA
:1056700008B58047FDF7C8FCFFF72CFCFDF7C4FC1C
:105680000D460446FFF76CFC013501D0FFF75AFBCD
:10569000204600F0CBFB00BF08B5034B1868BFF3F2
:1056A0005F8FFFF7E5FF00BF1409FF1F08B58047B4
:1056B000FFF7F2FF08B5034B1868BFF35F8FFFF7E2
:1056C000F5FF00BF0C09FF1F024B1868BFF35F8F87
:1056D000704700BF1409FF1F024B1868BFF35F8FAC
:1056E000704700BF0C09FF1F012810B51AD8BFF37F
:1056F0005F8FA1F1280353E8002F013A43E800200F
:105700000028F8D1BFF35F8F5AB951F81C3C01F162
:1057100058040BB1204698472046BDE81040FFF7DB
:10572000EDBA10BD51F8140CFFF7A2FFF8B504460E
:105730000F461646FFF76CFC436801252B44436077
:1057400044F8787C44F8746C44F8805CFFF7C4FF3C
:1057500044F8700CFFF7B8FF472343224FF04E0E7A
:10576000104904F8583CA4F158052B23552700266E
:1057700044F86C0C04F857EC44F8501C04F8552C11
:1057800004F8542C04F8533C04F8523C04F8567CBA
:1057900004F8516C284609F0FFFE2846FFF79AFBF3
:1057A000FFF77AFFE956000010B5FFF731FC4268B9
:1057B0000368013242606BB193F82020472A0BD076
:1057C0000022026003F12004204609F009FF204670
:1057D000FFF780FBFFF760FF93F821204E2AEFD1FF
:1057E00093F82220552AEBD193F82320432AE7D1BE
:1057F00093F82420432AE3D193F825202B2ADFD1E4
:1058000093F826202B2ADBD193F82720012AD7D81A
:105810005A6952425A61D5E710B5034B03600446FA
:10582000FFF78EF9204610BD0454010010B5054B5A
:1058300003600446FFF784F92046FDF7E9FB2046A4
:1058400010BD00BF045401002DE9F04F81B00E4699
:1058500019461F46914683460A9CDDF82CA0DDF8C8
:1058600030800D9D00F070F870B1002E2C6085F82E
:1058700004901FDB3444A0450CBF06240124AC7106
:10588000002001B0BDE8F08F444518D0DBF80800D7
:10589000D0F800E00D95CDF83080CDF82CA00A941A
:1058A000DEF81C403B464A463146A44601B0BDE8FE
:1058B000F04F60470236E3D10123AB71E0E7514678
:1058C000584600F041F80028E0D0002085F8059007
:1058D00001B0BDE8F08F00BF70B582B00D46069CE8
:1058E0009442064609D0B06806680694346A294690
:1058F000A44602B0BDE8704060471946019200938B
:1059000000F022F8009B019A0028ECD0062002B09B
:1059100070BD00BF2DE9F04107460C4615461E46F6
:10592000FFF726F908B1BDE8F081B868076821469D
:10593000BC6933462A46A446BDE8F041604700BF33
:10594000704700BF00207047814211D008B5406801
:1059500003782A2B0AD049680B782A2B08BF01311B
:105960000BF0A2F9B0FA80F0400908BD002008BD94
:10597000012070474068704710B543680C4A0D49D4
:1059800001600446A3F10C00904282B005D120468C
:10599000FFF72CFB204602B010BD53F8042C511E1B
:1059A000002A43F8041CF2DC01A900F0C5F8EEE778
:1059B000A01BFF1F4855010010B50446FFF7DCFF90
:1059C0002046FDF725FB204610BD00BF10B5034B58
:1059D00003600446FFF7D0FF204610BD8855010044
:1059E00010B5054B03600446FFF7C6FF2046FDF7E0
:1059F0000FFB204610BD00BF8855010010B5034BBA
:105A000003600446FFF7B8FF204610BD345501007F
:105A100010B5054B03600446FFF7AEFF2046FDF7C7
:105A2000F7FA204610BD00BF3455010010B5084BF1
:105A300082B0044601AA40F8043B00F09FF82046DB
:105A400002B010BD2046FFF7D1FAFFF77BF900BF87
:105A50004855010010B50446FFF7E8FF014B2360ED
:105A6000204610BD8855010010B50446FFF7DEFF43
:105A7000014B2360204610BD3455010010B582B0A3
:105A800001AB044600F06CF8204602B010BD00BF28
:105A9000134B984210B51FD88842044614D94A00C7
:105AA000904238BF144604F11D02B2F5805F04F144
:105AB0000D000BD9A14209D204F58054C2F30B02A8
:105AC000A41A9C4228BF1C4604F10D00FDF79EFA63
:105AD00000224460826010BD0248FEF72DFE00BF28
