:10000000F8FF0220990100009D29000055290000F9
:1000100055290000552900005529000055290000E8
:100020005529000055290000552900009D29000090
:100030009D29000055290000353F0000393F000090
:100040009D2900009D2900009D2900009D29000098
:100050009D2900009D2900009D2900009D29000088
:100060009D2900009D2900009D2900009D29000078
:100070009D2900009D2900009D2900009D29000068
:100080009D2900009D2900009D2900009D29000058
:100090009D2900009D2900009D2900009D29000048
:1000A000B1250000BD2500009D2900009D2900000C
:1000B0009D2900009D2900009D2900009D29000028
:1000C0009D2900009D2900009D2900009D29000018
:1000D0009D2900009D2900009D2900009D29000008
:1000E0009D2900009D2900009D2900009D290000F8
:1000F0009D2900009D2900009D2900009D290000E8
:100100009D2900009D2900009D2900009D290000D7
:100110001D1B0000E92E00009D2900009D29000004
:100120009D2900009D2900009D2900009D290000B7
:100130009D2900009D2900009D2900009D290000A7
:100140009D2900009D2900009D2900009D29000097
:100150009D2900009D2900009D2900009D29000087
:100160009D2900009D290000C92500009D2900004F
:100170009D2900009D2900009D2900009D29000067
:100180009D2900009D2900009D2900009D29000057
:100190009D2900009D290000584B4CF2205210B5BB
:1001A0001A804DF628121A8000BF00BF02F0FAFB39
:1001B000534B4FF030621A60524A9A60524ADA60EA
:1001C000524B4FF470021A60514A136813F4807353
:1001D00004D150490B604FF4A85313604E4B1A786A
:1001E000110703D51A7842F008021A704B4B4C499C
:1001F0002A221A704B4A4C4B8B4204D252F8040FFD
:1002000043F8040BF8E7494B494900228B4202D2DC
:1002100043F8042BFAE74749474A002352F82300E2
:1002200041F823000133662BF8D1444B444A802126
:1002300003F8011B9342FBD1424B3E4A1A60424BEA
:100240008A221A70A3F5805324225A70A0221A70B1
:100250009A799207FCD59A79D406FCD43B4A9379D3
:1002600003F00C03082B394BF9D103221A714622F3
:100270005A719A799006FCD5344A9179334B4906E4
:10028000FBD5334A4FF08271116009215160202261
:100290001A709A7902F00C020C2AFAD12D4B2E4AD0
:1002A0001A602E4B2E4A1A6000225A60072243F829
:1002B000042C2C4AC3F80C2D62B602F0A7FC154B97
:1002C0001B68DA0705D5284802F012FC274B284A9C
:1002D0001A60284B1B785B0609D5244C244B2268F6
:1002E0009A4204D1204802F003FC0023236006F068
:1002F000BDF902F05DFB02F08BFAFEE70E2005402F
:1003000030800440823F04000100002B88ED00E0B3
:1003100010D0034014D0034002D0074000E0074053
:100320003C11FF1F0C750000F806FF1F4011FF1F56
:100330009019FF1F0002FF1F0000000000E400E012
:1003400056E400E008ED00E00050064000400640A2
:100350004480044004800440C010050014E000E024
:10036000BFD40100000020201A24785F1CE0034065
:10037000A5C3945A00F00740FFFFFFFFFFFFFFFFF8
:10038000FFFFFFFFFFFFFFFFFFFFFFFFFFFFFFFF7D
:10039000FFFFFFFFFFFFFFFFFFFFFFFFFFFFFFFF6D
:1003A000FFFFFFFFFFFFFFFFFFFFFFFFFFFFFFFF5D
:1003B000FFFFFFFFFFFFFFFFFFFFFFFFFFFFFFFF4D
:1003C000FFFFFFFFFFFFFFFFFFFFFFFFFFFFFFFF3D
:1003D000FFFFFFFFFFFFFFFFFFFFFFFFFFFFFFFF2D
:1003E000FFFFFFFFFFFFFFFFFFFFFFFFFFFFFFFF1D
:1003F000FFFFFFFFFFFFFFFFFFFFFFFFFFFFFFFF0D
:10040000FFFFFFFFFFFFFFFFFFFFFFFFDEF9FFFF23
:1004100010B5054C237833B9044B13B10448AFF33E
:1004200000800123237010BD4011FF1F0000000059
:1004300010750000084B10B51BB108490848AFF310
:1004400000800848036803B910BD074B002BFBD0A0
:10045000BDE81040184700BF000000004411FF1F16
:10046000107500003C11FF1F0000000038B5084C5B
:1004700001600546204601F0D1FD2046222101F011
:1004800017FE2046212101F045FE284638BD00BF59
:100490006807FF1FF8B5054604460822012315F832
:1004A000031B354801F076FF334A04F10B07104671
:1004B00092F8383092F83910C618994203F10103C6
:1004C0008ABF80F83830FF23337E05F8013FBD42F4
:1004D000EED1A27AE37AC2F34000C2F38007C2F3FE
:1004E000C006C2F30015E073C2F3401002F0010130
:1004F00027746674C2F3801703F00106D209A5744D
:10050000E074C3F34005C3F38000C3F3C00E277546
:100510006275C3F30017A675E575C3F34016C3F300
:1005200080152076DB0904F135000022A776E676F7
:1005300025776377A17384F819E00546174604F11F
:100540000E0604F1220310F8014F0CB901290AD05C
:100550000132102A1F7005F8011F03F101030AD0B0
:1005600016F8011FEFE70132102A197005F8011F74
:1005700003F10103F4D1F8BD6807FF1FFFFFFFFF80
:100580002DE9F84304460FF27009D9E9008901F01A
:1005900033FA1BA7D7E90067154B16490022002044
:1005A000C4E90423C4E908010022002300214FF418
:1005B000FA7540F6C410E065C4E90689C4E910671D
:1005C000A565C4E90223C4E90C23C4E90E23C4E9E8
:1005D0001223C4E91423C4E91823C4E91A23A1622D
:1005E00084F8701084F871102046BDE8F88300BFCD
:1005F0000000E03F0000F03F0000000000E070401D
:100600000000000000388FC02DE9F04F2DED088B61
:10061000D14CD24F99B0204601F000FD2046222156
:1006200001F046FD2046212101F074FD01210D203D
:1006300002F076FA01210D2002F06CFAB2A3D3E9A0
:10064000002318AC64E902230FF2C429D9E9008918
:100650000DF1480B234614AA59460026C0489FEDC9
:10066000AE8B9FEDAF9B9FEDB0ABCDE91289CDE98D
:10067000146700F0F1FD9FEDAE7B0BA80EAE0DF1FF
:10068000280809AF0DF1300A14AB03904FF00005B4
:100690000DF1230040F6340906940593324610AB61
:1006A0004146CDF810A001904FF0200E8DF8235058
:1006B0008DF82450CDF800B00297AA48CDF828E074
:1006C0004FF448758DED109B8DED169B8DED127BD3
:1006D0008DED14AB0B95CDF830908DED0E8B01F0B8
:1006E00095FA14AB9FED947B05934FF000050BAB8F
:1006F00003938DF824500DF123034FF448750694AD
:10070000CDF810A00193324610AB41464FF01D0EBC
:100710000B9502974FF00205CDF800B09248CDF846
:1007200030908DED109B8DED149B8DED16AB8DED06
:10073000127BCDF828E08DF823508DED0E8B01F063
:1007400065FA14AB9FED7E7B05930BAB03938DF89D
:1007500023500DF123034FF000050694CDF810A0AF
:100760000193324610AB41464FF01A0E8DF82450DB
:1007700002974FF44875CDF800B07C480B95CDF842
:1007800030908DED149B8DED16AB8DED127BCDF879
:1007900028E08DED0E8B8DED108B01F037FA14AB48
:1007A0009FED697B05934FF002000BAB03938DF82F
:1007B00023000DF123034FF000000694CDF810A0A4
:1007C0000193324610AB41464FF00C0E8DF82400D9
:1007D0000297CDF800B066480B958DED127BCDF8F1
:1007E00030908DED14AB8DED169BCDF828E08DED9E
:1007F0000E8B8DED108B01F009FA14AB9FED54BBFD
:1008000005934FF000050BAB03938DF823500DF1CA
:1008100023034FF4487506940193524610AB4146AA
:100820004FF01F0E0B9504960297CDF800B051487B
:10083000CDF838904FF001058DED14AB8DED169B82
:10084000CDF828E08DF824508DED0C8B8DED108BBC
:100850008DED12BB01F0DAF914AB05934FF00005F2
:100860000BAB03938DF823500DF123034FF00105DB
:1008700006940193524610AB41464FF01C0E8DF882
:10088000245004960297CDF800B03B48CDF838903C
:100890004FF448750B958DED14AB8DED169BCDF88F
:1008A00028E08DED108B8DED128B01F0AFF914ABBC
:1008B00005934FF000050BAB03938DF823500DF11A
:1008C00023034FF0010506940193524610AB4146B5
:1008D0004FF0190E8DF8245004960297CDF800B011
:1008E0002648CDF838904FF448750B958DED14AB34
:1008F0008DED169BCDF828E08DED108B8DED128BD4
:1009000001F084F93CE000BF0000000000E05F401F
:100910000000006066264740000000000000000064
:10092000000000000080564000000000008056C01B
:1009300000000000004054C000000000000022C081
:1009400000000000000026C000000000004055C06C
:10095000000000000000F0BF6807FF1F004060407B
:100960007013FF1FD816FF1FE815FF1F9014FF1FFD
:100970000014FF1F6812FF1FF812FF1FD811FF1F7E
:1009800014AB05934FF001050BAB03938DF8245086
:100990000DF123034FF4487506940193524610ABB2
:1009A00041464FF00B0E0B9504960297CDF800B020
:1009B0007948CDF838904FF000058DF823508DED33
:1009C00014AB8DED169BCDF828E08DED12BB8DEDAF
:1009D000108B01F01BF90DF123039FED639B9FED3D
:1009E00064AB9FED657B02934FF0020514AB0DF1F4
:1009F000220A05938DF823500BAB4FF000054FF4FE
:100A0000C86906940493324610AB39464FF01E0E67
:100A10008DF82250CDF80C80CDF800B0CDF804A0B0
:100A20005E48CDF824E04FF416658DED127B0B95F2
:100A30008DED0E8B8DED108B8DED149B8DED16AB2A
:100A4000CDF8289001F0E2F80DF123039FED4C7BE7
:100A500002934FF002050BAB04938DF8235014ABB7
:100A60004FF4166506940593324610AB39464FF0A5
:100A70001B0E0B95CDF804A0CDF80C80CDF800B07E
:100A80004748CDF824E04FF000058DF822508DED59
:100A9000127BCDF828908DED149B8DED16AB8DED6E
:100AA000108B01F0B3F80DF123039FED377B029318
:100AB0004FF002050BAB04938DF8235014AB4FF4A9
:100AC00016654FF0180E06940593324610AB394662
:100AD0000B95CDF804A0CDF80C80CDF800B03148CE
:100AE000CDF824E04FF000058DF822508DED127BFB
:100AF000CDF828908DED14AB8DED169B8DED108B00
:100B000001F084F80DF123039FED217B02934FF058
:100B100002050BAB04938DF8235014AB4FF0000586
:100B2000069405938DF82250CDF804A03946CDF8EF
:100B30000C80CDF800B010AB32460A241A48CDF82C
:100B400028904FF416658DED108B0B958DED14AB41
:100B50008DED169B8DED127B099401F057F819B0BD
:100B6000BDEC088BBDE8F08F0000000000005EC007
:100B70000000000000004EC00000000000002AC07D
:100B800000000000008042C000000000000049405A
:100B900000000000000047402015FF1F6016FF1FE7
:100BA0006011FF1F8813FF1F6817FF1FFFFFFFFF64
:100BB0002DE9F04F2DED028BC74EA3B03046FFF765
:100BC00069FCC64801F0AEF9C54801F0ABF9C5486B
:100BD00001F0A8F9C44801F0A5F9C44801F0A2F950
:100BE000C34801F09FF9C34801F09CF9C24801F0E5
:100BF00099F9C24801F096F9C14801F093F9C1484A
:100C000001F090F9C04801F08DF9F0796FF0C6035A
:100C100003FB00F00028B8BFFF300012643005F07D
:100C2000C1F9B379044603EB431003EB4003C3EB74
:100C30008303181264380D4605F0B4F922460646BF
:100C40000F462B462046294605F012FA32468046CA
:100C500089463B463046394605F00AFA02460B46BD
:100C60004046494605F052F800220023CDE9020132
:100C700005F070FC9DED020B08B103F0E3FA22468B
:100C800005F1004347EC116B43EC102B03F0D8FA4D
:100C900083A3D3E900233046394605F0E9F99FEDF7
:100CA000824B41EC180BB0EE443AF0EE643A41EC62
:100CB000100B9FED7F2B9FED801B9448944F954E1A
:100CC000DFF85CB2DFF85CA200F0CAFD9FED7C4B60
:100CD0008DED0A0BB0EE480AF0EE680A8DED0C1BA4
:100CE0008DED0E2B9FED741B9FED712B9FED6E3BD9
:100CF000864800F0B5FD9FED724B8DED100BB0EE08
:100D0000480AF0EE680A8DED121B8DED142B9FED55
:100D10006A1B9FED672B9FED643B7C4800F0A0FDB4
:100D20009FED614B8DED160BB0EE443AF0EE643A58
:100D3000B0EE480AF0EE680A8DED181B8DED1A2B07
:100D40009FED5D1B9FED5A2B704800F089FD5EA35F
:100D5000D3E90023DDE90C018DED1C0B8DED1E1B8D
:100D60008DED202B04F0D2FF0022CDE906016A4B65
:100D7000DDE90E0104F0CAFF0DF11704CDE9080109
:100D800008AB06AA00250AA98DE8900063488DF8F3
:100D9000175000F0D3FC4CA3D3E90023DDE9120186
:100DA00004F0B4FF0022CDE906015B4BDDE914013C
:100DB00004F0ACFF08ABCDE9080106AA10A9009425
:100DC000019656488DF8175000F0B8FC3EA3D3E9C1
:100DD0000023DDE9180104F099FF0022864601F1A5
:100DE00000454D4BCDF818E0DDE91A01079504F0F8
:100DF0008DFF0125CDE9080108AB06AA16A90094CC
:100E0000CDF804B045488DF8175000F097FC2EA39C
:100E1000D3E90023DDE91E0104F078FF00228446B7
:100E200001F1004E3C4BCDF818C0DDE92001CDF8B2
:100E30001CE004F06BFF08ABCDE9080106AA1CA971
:100E40000094CDF804A035488DF8175000F076FCDA
:100E5000D7E900011EA3D3E9002304F057FFFB6884
:100E6000804603F1004E8946C7E90089D7E90401AD
:100E7000C7F80CE016A3D3E9002304F045FF14A340
:100E8000D3E90023C7E90401D6E9000104F03EFFDD
:100E9000F36803F1004EC6F80CE0C6E9000143E038
:100EA000000000A09999A93F000000000000000088
:100EB000000000606666E63F00000000000044405D
:100EC0000000000000806640000000606626474089
:100ED00000000060FB2109409815FF1FD816FF1F76
:100EE0006812FF1F6016FF1FE815FF1FF812FF1F93
:100EF0006011FF1F9014FF1FD811FF1F8813FF1FE1
:100F00000014FF1F2015FF1F6817FF1F7814FF1F15
:100F10005017FF1F5012FF1F000069407013FF1F82
:100F20000815FF1FE012FF1FA0A3D3E90023D6E995
:100F3000040104F0E9FE9DA3D3E90023C6E90401FE
:100F4000DBE9000104F0E2FE98A3D3E90023CBE93A
:100F50000001DBE9040104F0D7FE94A3D3E90023E8
:100F6000CBE90401DAE9000104F0D0FE8FA3D3E954
:100F70000023CAE90001DAE9040104F0C5FE7CA3FC
:100F8000D3E90023CAE904014046494605F070F858
:100F9000DFF820928DF817504FF00008CDE90601D8
:100FA000234608AA06A97448CDE9088900F0C0FEC6
:100FB000D7E902016EA3D3E9002305F059F82346CF
:100FC000CDE9060108AA06A96C488DF81750CDE9AD
:100FD000088900F0ADFED7E9040165A3D3E9002339
:100FE00005F046F82346CDE9060108AA06A964489B
:100FF0008DF81750CDE9088900F09AFED6E9000176
:101000005BA3D3E9002305F033F82346CDE90601BD
:1010100008AA06A95B488DF81750CDE9088900F0A9
:1010200087FED6E9020152A3D3E9002305F020F898
:101030002346CDE9060108AA06A953488DF81750A2
:10104000CDE9088900F074FED6E9040148A3D3E98C
:10105000002305F00DF82346CDE9060108AA06A9EC
:101060004A488DF81750CDE9088900F061FEDBE9A8
:1010700000013FA3D3E9002304F0FAFF2346CDE9A2
:10108000060108AA06A942488DF81750CDE908893B
:1010900000F04EFEDBE9020135A3D3E9002304F0A2
:1010A000E7FF2346CDE9060108AA06A939488DF8CD
:1010B0001750CDE9088900F03BFEDBE904012CA3C1
:1010C000D3E9002304F0D4FF2346CDE9060108AAA2
:1010D00006A931488DF81750CDE9088900F028FE9F
:1010E000DAE9000122A3D3E9002304F0C1FF23467B
:1010F000CDE9060108AA06A928488DF81750CDE9C0
:10110000088900F015FEDAE9020119A3D3E90023EA
:1011100004F0AEFF2346CDE9060108AA06A920483F
:101120008DF81750CDE9088900F002FEDAE90401D4
:101130000FA3D3E9002304F09BFF234608AACDE9BF
:10114000060106A917488DF81750CDE9088900F067
:10115000EFFD0B4800F014FE0221134801F07CFA69
:101160000A2002F0CFFD23B0BDEC028BBDE8F08F6A
:1011700000000020DCA54C40D816FF1F6812FF1F9E
:101180006016FF1FE815FF1FF812FF1F6011FF1FF9
:101190009014FF1FD811FF1F8813FF1F0014FF1F9B
:1011A0002015FF1F6817FF1F4408FF1F0000006085
:1011B000FB21094000408F4008B574211848FFF713
:1011C00055F91848FFF7DCF91748FFF7D9F9174820
:1011D000FFF7D6F91648FFF7D3F91648FFF7D0F90D
:1011E0001548FFF7CDF91548FFF7CAF91448FFF77E
:1011F000C7F91448FFF7C4F91348FFF7C1F91348BA
:10120000FFF7BEF91248FFF7BBF99FED030B11483A
:10121000BDE8084000F0B8BA000000000000E03F60
:101220009815FF1FD816FF1F6812FF1F6016FF1FBB
:10123000E815FF1FF812FF1F6011FF1F9014FF1F1A
:10124000D811FF1F8813FF1F0014FF1F2015FF1F59
:101250006817FF1F7814FF1F30B4D1E90045C0E9BB
:101260000045D2E90045C0E90245D3E9002330BC7E
:10127000C0E90423704700BF2DE9F04F1C4694E8F5
:101280004040D2E90023044694ED007B85B0D1F8BC
:1012900000804D68104619460EF100478DED007B29
:1012A00004F0E6FE3246CDE902013B4630463946BF
:1012B00004F0DEFE02460B46DDE9020104F026FDE5
:1012C000DDE9002306460F461046194604F0D0FE1D
:1012D00002460B463046394604F016FD05F100493A
:1012E00006460F4642464B464046494604F0C0FE7D
:1012F00002460B4630463946D4E902AB04F006FDFF
:10130000524606460F465B465046594604F0B0FE2C
:1013100002460B4630463946D4E9044504F0F4FC55
:10132000224606460F462B462046294604F0A0FEDC
:1013300002460B463046394604F0E6FC22462B4670
:1013400006460F462046294604F0E0FC52465B461E
:1013500004F08EFE02460B463046394604F0B2FFDA
:1013600000220E4B04460D4605F012F930B10B4D2C
:10137000002445EC104B05B0BDE8F08F0022084B6F
:101380002046294605F0E6F80028F2D0044D002456
:1013900045EC104B05B0BDE8F08F00BF0000F03FFA
:1013A0000000F0BFFFFFFFFF2DE9F04F2DED068B92
:1013B00085B09046DDF850B0DBE9006799463246CB
:1013C0003B4604460D463046394604F051FE02467F
:1013D0000B460020664904F097FC41EC100B02F02C
:1013E00031FF51EC100B10EE102A01F100439BED80
:1013F000001B43EC102B02F023FF99ED007B8DEDD9
:10140000027B98ED007BDDE9022351EC170B1646B9
:1014100003F1004717EE102A0B465BEC10AB8DED85
:10142000007B04F025FE3246804689463B46304626
:10143000394604F01DFE02460B464046494604F07C
:1014400065FCD4E9008906460F4642464B464046B5
:10145000494604F00DFE02460B463046394604F07C
:1014600053FC0022002341EC180B05F073F808B17F
:101470009FED3D8B9DED001B9DED020B02F0E0FE0C
:1014800059EC108BB0EE480AF0EE680A02F0DAFE72
:101490006168226801F1004343EC112B02F0D0FE99
:1014A0006B68B0EE409AF0EE609AB0EE480AF0EE4B
:1014B000680A03F100472E6802F0C4FEB0EE401A3D
:1014C000F0EE601A47EC106B02F0BAFEB0EE408A04
:1014D000F0EE608A4BEC10AB02F052FEB0EE40AA88
:1014E000F0EE60AA4BEC10AB02F0EAFDD4E9046721
:1014F00053EC102B3046394604F0BAFDD4E90223F0
:1015000004F004FC53EC1A2BCDE9000130463946B7
:1015100004F0AEFD9DED001B41EC100B02F090FEBF
:1015200053EC192B404609F100418DED000B04F0FE
:10153000EBFB9DED000B159C53EC102BC4E9000157
:1015400051EC180B04F0E0FB159C01F10041E16047
:1015500021460BF10043A060C1F810A0636105B003
:10156000BDEC068BBDE8F08F00000000000000001D
:101570000000F03FFFFFFFFF2DE9F04F2DED068B40
:1015800085B09046DDF850B0DBE9006799463246F9
:101590003B4604460D463046394604F069FD024696
:1015A0000B460020644904F0AFFB41EC100B02F045
:1015B00049FE51EC100B10EE102A01F100439BED97
:1015C000001B43EC102B02F03BFE99ED007B8DEDF0
:1015D000027B98ED007BDDE9022351EC170B1646E8
:1015E00003F1004717EE102A0B465BEC10AB8DEDB4
:1015F000007B04F03DFD3246804689463B4630463E
:10160000394604F035FD02460B464046494604F093
:101610007DFBD4E9008906460F4642464B464046CC
:10162000494604F025FD02460B463046394604F093
:101630006BFB0022002341EC180B04F08BFF08B178
:101640009FED3B8B9DED001B9DED020B02F0F8FD25
:1016500059EC108BB0EE480AF0EE680A02F0F2FD89
:1016600094ED001B02F0ECFD6B68B0EE409AF0EEDA
:10167000609AB0EE480AF0EE680A03F100472E685F
:1016800002F0E0FDB0EE401AF0EE601A47EC106B8D
:1016900002F0D6FDB0EE408AF0EE608A4BEC10AB63
:1016A00002F06EFDB0EE40AAF0EE60AA4BEC10AB7B
:1016B00002F006FDD4E9046753EC102B304639469E
:1016C00004F0D6FCD4E9022304F020FB53EC1A2BDF
:1016D000CDE900013046394604F0CAFC9DED001BFF
:1016E00041EC100B02F0ACFD53EC192B404609F114
:1016F00000418DED000B04F007FB9DED000B159CE8
:1017000053EC102BC4E9000151EC180B04F0FCFA67
:10171000159C01F10041E16021460BF10043A060FE
:10172000C1F810A0636105B0BDEC068BBDE8F08F79
:1017300000000000000000000000F03F2DE9F04331
:1017400085B099460C9F0D9E04460D469046FFF7C6
:1017500093FD3B7801968DED020B02AF4BB14B46EA
:101760004246294620460097FFF706FF05B0BDE830
:10177000F0834B464246294620460097FFF714FE69
:1017800005B0BDE8F08300BF80ED000B704700BFDF
:101790002DE9D043044682B08DED000B01F0C6F96F
:1017A000A3689FED2D7A2D4FC01A07EE900AF8EE30
:1017B000677A0026C7EE876A16EE900A04F004FCEA
:1017C0008046894601F0B2F99DED000BA06053EC14
:1017D000102B4046494604F04BFCD4E9042304F0A6
:1017E00095FA32463B468046894604F0D1FE30B138
:1017F0009FED130B84ED040B02B0BDE8D0830022F3
:1018000000234046494604F0A5FE88B942464B46AF
:10181000C4E904894046494604F078FA0AA3D3E9AA
:10182000002304F025FC41EC100B02B0BDE8D0838E
:101830009FED070BC4E9046702B0BDE8D08300BF89
:10184000000000000000000000000060FB210940D3
:1018500000000060FB211940002474490000F03FA3
:101860002DE9F04F2DED028B99B05BEC11AB59ECEB
:10187000128B8DED044B019057EC106BFFF788FF36
:101880009DED044B002251EC140B594B8DED020BD6
:1018900004F018FD9DED020B04460D4650A3D3E95C
:1018A000002351EC100B04F00DFD02460B462046C0
:1018B000294604F02BFA00224E4B04460D4604F054
:1018C00067FE38B12046294600224A4B04F01CFA34
:1018D00004460D460CA802F0E7FB00220023304628
:1018E000394604F055FE002874D030463946019B35
:1018F000D3E9002304F02EFEF0B942464B462046C1
:10190000294604F027FE50B300200021CDE9100144
:1019100052465B465046594604F0F8F922462B469B
:1019200004F0A6FB42464B4604F0CCFC52465B4614
:1019300004F0EAF9CDE90C010CAD0FCD12AC0FC4E7
:1019400095E8030084E803009DED120B9DED162B36
:101950009DED141B19B0BDEC028BBDE8F08F204645
:10196000294642464B4604F0CFF9424604460D460E
:101970004B4600201F4904F0C7F902460B4620469B
:10198000294604F09FFC18A3D3E9002304F070FB60
:1019900041EC100B41EC180B02F092FB504653EC5B
:1019A000102B594604F064FBB0EE480AF0EE680ACA
:1019B000CDE90C0102F0E4FB504653EC102B0BF187
:1019C000004104F055FB02460B4604F09FF9CDE9B7
:1019D0001001B1E7304607F1004188E7AFF300801E
:1019E00000000060FB21194000000060FB2109405D
:1019F000008076400000F03F70B40F4E0023358821
:101A000003710C21012215424FEA42040AD00379E6
:101A1000013903F10103A2B20371F4D1FF23037171
:101A200070BC704705490B88154323EA02023580D4
:101A30000A8070BC704700BFE817FF1FE417FF1F44
:101A4000F8B504790B2C01D92046F8BD0646CDB275
:101A5000284601211F46144601F062F81B483279DE
:101A60001B4B01889D54012393400B43194903806C
:101A70000B681948C4EB0414C7EB071745F2E4756B
:101A800013F480033480778020F8125016D10A684E
:101A9000124D1348DFF85CE0124F134C42F4800201
:101AA0000A604FF6FF722A601049CEF8003042F605
:101AB000A27520223B600560016022700C4B4FF440
:101AC00080121A6034792046F8BD00BFE417FF1F6A
:101AD0000418FF1F3C800440EC17FF1F0460034004
:101AE000006003400C60034034E400E0A22F0100DA
:101AF00004E100E0086003400388C1EB0111994252
:101B000003DB43888B42A8BF0B4602790B2A9CBF9C
:101B1000014921F812307047EC17FF1FF8B5324E1B
:101B2000324D96F900202B881341DC0753D4304CFA
:101B300094F900300B2B0EDC298841FA03F2D00710
:101B400002D52EE0D2072BD401335BB20C2B41FA25
:101B500003F2F7D1237027480268C2F5922101F5FC
:101B6000787140F2DB53994217DD4EF660238B42C9
:101B7000A8BF0B461A44204902600E681F4D204A38
:101B80001C4F334442F6A3760B602E6003689342E9
:101B900002D900233B602370F8BD40F2DC53E9E733
:101BA0002370184A0121D05C00F0B4FF94F9003092
:101BB000104A1549104831F8135011683370294400
:101BC000116002680D492A44013342F6A375026090
:101BD0000D602370F8BD0B4B0021985C00F09AFF5C
:101BE0000C233370A3E700BFF806FF1FE417FF1FA5
:101BF000E617FF1FE017FF1F0C6003400060034063
:101C0000DF9304000418FF1FEC17FF1F2DE9F04FAE
:101C100083B080460F9F0968129D109E1446994616
:101C2000826DC36DFFF70CFF3868C8F8580036683E
:101C3000C8F85C60301A04F0B5F9119B8246D3E90C
:101C400000238B46D5E9000104F05EF802460B46FE
:101C50005046594604F036FB82468B463046C8E96A
:101C600018AB04F09FF9D5E9002306460F4650460D
:101C7000594604F0FDF902460B463046394604F059
:101C800043F806460F46C8E91A670C9BD3E90001E2
:101C900004F09EFCD9E90023C8E90C230D9BD4E98C
:101CA00000451B7888F82C30C8E90E45C8F8280094
:101CB00004F078F922462B4604F028F802460B4639
:101CC000C8E91023C8E912235046594604F0D0F958
:101CD00032463B4604F01AF80022002304460D4623
:101CE00004F04CFCB0B100220F4B2046294604F012
:101CF0000DF804F06DFC01464046FFF7FDFE0B4B6E
:101D00001B680193019804F03DF9C8E9020103B092
:101D1000BDE8F08F0022044B2046294603F0F4FF73
:101D200004F056FC0146E7E70000E03F1418FF1FEF
:101D3000F8B50446D1E90067002084F871001B78EB
:101D400084F870301546304639460BA3D3E900239A
:101D500004F01EFC60B1A06A04F024F932463B4650
:101D600003F0D4FFC4E91001D5E90023C4E914232A
:101D7000F8BD00BFAFF300800000000000308FC04E
:101D800010B50446806A04F00DF902460B46D4E90A
:101D9000120103F0B9FF41EC100B10BDFFFFFFFF74
:101DA0002DE9F047D0E9104582B082465BA3D3E924
:101DB00000232046294604F0EBFB00285DD0DAE939
:101DC000126722462B463046394603F09DFF00221B
:101DD00000238046894604F0DBFB00287AD0424687
:101DE0004B46DAE9040104F0D3FB002848D1204631
:101DF00032463B46294603F087FF0022002304F0C9
:101E0000A9FB0024002869D13F4D404B0022DAE9AC
:101E1000080104F057FA22462B4604F029F9DAE9C2
:101E2000142304F025F932463B4603F06FFFDAE94C
:101E30001823CAE9120104F01BF9DAE91A2303F0A6
:101E400065FF0022002304460D4604F097FB00289E
:101E500046D000222E4B2046294603F057FF04F0BF
:101E6000B7FB01465046FFF747FE2A4B1B6800931D
:101E7000009804F087F8CAE9020102B0BDE8F087D3
:101E8000DAE918232046294604F0F2F8DAE91A23A1
:101E900003F03CFF0022002306460F4604F06EFBD1
:101EA00040B300221A4B3046394603F02FFF04F0AE
:101EB0008FFB01465046CAE91245FFF71DFE154B40
:101EC0001B680193019804F05DF8CAE9020102B0B1
:101ED000BDE8F087424609F1004382E70E4D94E7E2
:101EE00000220B4B2046294603F00EFF04F070FB46
:101EF0000146B7E70022064B3046394603F004FF9F
:101F000004F066FB0146D5E70000F03F00408F403B
:101F10000000E03F1418FF1F0000F0BF00000000A9
:101F200000308FC090F87130E3B910B50E4B82B01D
:101F30001B6801930446019804F024F8D4E90223B5
:101F400003F0E2FED4E9082304F022FB20B120468E
:101F5000FFF726FF02B010BD94F87030002BF6D0CA
:101F600002B010BD704700BF1418FF1F002070475B
:101F700090F8392090F83800101A704790F83830EF
:101F800090F839209A4205D95A1C034480F8382029
:101F9000187E70474FF0FF30704700BF90F8383020
:101FA00090F839209A4286BF1B18187E4FF0FF30F8
:101FB000704700BF704700BF38B50546B0F85E00F7
:101FC00090B195F85D301446C3F1210294420CD8CB
:101FD00005F13B001844224600F022FC95F85D30E4
:101FE000234485F85D30204638BD01201446287111
:101FF000EEE700BFB0F85E306BB190F85D30202B9B
:1020000007D8C218013380F85D30012082F83B10F8
:102010007047012303710020704700BF002342690D
:1020200080F8383080F8393080F85C3080F85D30E6
:1020300080F85E3080F85F3006CA30B40D680469FD
:1020400043662A4383660A60A370426990F8613050
:102050001649146813441D7A5B7B01EBC5051B020E
:102060006D6803F4E06343F064032B6090F8623022
:1020700013449D7CDB7D01EBC5011B02496803F421
:10208000E06343F064030B6021685368194205D094
:1020900003692C225A70036904229A710369202271
:1020A0005A71036980229A7030BC704750700000EA
:1020B00070B490F8613045692B441E7A8E420AD084
:1020C000EC1D002314F8012FFF2A04D08A4204D00B
:1020D0000133052BF6D170BC704795E806000968FE
:1020E000114211D00A4901EBC6061D447268002452
:1020F00014602C7A6A7B01EBC401120202F4E062E4
:10210000496842F064020A6080F86130E3E700BF8A
:102110005070000070B490F8623045692B449E7C8A
:102120008E420BD005F11104002314F8012FFF2A71
:1021300004D08A4204D00133052BF6D170BC70471D
:1021400095E806000968114211D00A4901EBC6065C
:102150001D44726800241460AC7CEA7D01EBC4016C
:10216000120202F4E062496842F064020A6080F8F8
:102170006230E3E75070000038B50269D478E4B209
:10218000E106054624D51023D37063061FD504F05D
:10219000040404F0FF03002C5AD042496A6E002365
:1021A0000B7085F85D30002A66D0904795F85D3059
:1021B000002B61D02B69D0229A702B6995F83B20B7
:1021C0001A712B69012285F85C200222DA7038BD71
:1021D00004F0400303F0FF00002BD8D19379DBB269
:1021E00003F0600160294ED0937803F0100303F0F0
:1021F000FF01B3B114F0010437D195F85C3095F8C4
:102200005D1099424BD9591C2B4485F85C1093F80A
:102210003B3013712B69D0229A702B690222DA703D
:10222000D5E785F86010937943F0200393712B690B
:1022300095F839101A791F29D2B2C6D819480078F2
:102240000028C2D06818013185F839100276BCE741
:102250002A6985F83930C02393702B69114A19799E
:10226000012111700222DA70B1E7C02393702B694B
:102270001A790222DA70AAE70122002385F85D208C
:1022800085F83B3096E703F0DF039371AB6E23B123
:1022900085F8380095F8390098472A69A4E7147141
:1022A000B8E700BF1018FF1F2DE9F047374FDFF8E0
:1022B000E0903B68026982B006460093DDF800803A
:1022C0000021C825D3789B065BD53B680193019B11
:1022D000C8EB03030F2BF5D949B1102BF2D0002026
:1022E0009070336980229A7002B0BDE8F0877269FD
:1022F00096F8613013440521187A00F011FC7269D8
:1023000096F861301344012193F812A0504600F072
:1023100007FC09240021504600F0FCFB2B46013B42
:10232000FDD10121504600F0F5FB2B46013BFDD1CC
:10233000013CEFD1706996F8611001444FF4C87206
:102340000C7A4B7B09EBC4011B02496803F4E06380
:1023500043F064030B6096F862300344997CDB7DA4
:1023600009EBC1011B02496803F4E06343F0640315
:102370000B60013AFDD13269D3789B064FF0010121
:10238000A3D4012002B0BDE8F08700BF1418FF1FDE
:10239000507000002DE9F04106690025122780F8F1
:1023A000385080F83950F770D0F810C09CF802E02F
:1023B0000EF0200E88B00446884615461E46BEF133
:1023C000000F49D0B4238CF80230784B21691A6889
:1023D0000092DDF800E006E01A6801920198CEEB69
:1023E0000000042830D8C87800F0200000F0FF0773
:1023F0000028F1D04FEA480242F00102D2B20A713D
:102400001A680292DDF808E0206906E01A68039273
:102410000399CEEB010105292AD8C17801F0020108
:1024200001F0FF070029F1D04FF0020C80F803C043
:102430002269D17811F0110722D12DBB002E0CBFDB
:10244000A0238023937003E08F70236980229A7009
:10245000384608B0BDE8F0810EF0FF07FFF724FF13
:102460000028F5D0236984F85F70B0229A70ACE739
:1024700087702369802238469A7008B0BDE8F081E1
:10248000802393700027E3E7012D75D0A021917080
:1024900021690A79BE4667464FF0A80C1A68049273
:1024A000049805E01A680592059A121A052A4AD876
:1024B000CA7802F0020202F0FF08002AF2D0CF70C0
:1024C0002169CA78D2B212F0100F08465AD192068A
:1024D00058D5013DEDB2012D49D0BEF11F0F3BD9BA
:1024E0000A79012DDAD11A680692069D05E01A686C
:1024F0000792079A521B052A46D8C27802F00202B8
:1025000002F0FF01002AF2D00223C3702269D378BF
:10251000DBB2D9063AD49B0634D5B023BEF11F0FE7
:1025200093703FD8226904EB0E0312791A760EF1EC
:10253000010E5FFA8EFE16B1236980229A7084F82C
:1025400039E0774684E781F80280236980229A7017
:10255000774684F839E07BE704EB0E0291F80480BB
:1025600082F818800EF1010E5FFA8EFEB9E781F84D
:1025700002C021690846B0E7A82191702069BE46D3
:102580000279B0E7774663E78170DEE71021C82360
:10259000D170013BFDD12269937803F0F7037746B0
:1025A000937055E723691B79C5E700BF1418FF1F17
:1025B0000148FFF7E1BD00BF6807FF1F0148FFF7B3
:1025C000DBBD00BFD407FF1F0148FFF7D5BD00BF2B
:1025D000FC06FF1FF0B507468BB0002A33D0012A56
:1025E00008BF0A2251B3212400E0F4B2B1FBF2F596
:1025F00002FB1511C8B2092900F1300198BFC8B219
:102600000AA988BF3730214488BFC0B201F8240C22
:10261000661E2946002DE8D133B1013CE4B20AAB75
:1026200023442D2203F8242C3B6801AA11195B686E
:102630003846C4F1220298470BB0F0BD30228DF825
:1026400025202124E8E70368C9B21B6898470BB02E
:10265000F0BD00BFFFFFFFFF2DE9F04357EC106B0B
:1026600085B005460C4610EE102A3B4610EE100AC7
:10267000394603F097FF002840F0B28027F0004968
:10268000304649464FF0FF32594B03F08BFF90B96B
:10269000304649464FF0FF32554B03F065FF50B9C5
:1026A0002B6854495B682846032298478046404679
:1026B00005B0BDE8F0834FF060424F4B30463946DD
:1026C00003F066FF002872D14FF060424B4B30465A
:1026D000394603F03FFF002869D10022002330462D
:1026E000394603F037FF002864D18146002C67D0BB
:1026F000434900204FF000083BA3D3E9002308F131
:10270000010803F0B5FC5FFA88F39C42F4D8024656
:102710000B463046394603F0F9FA0F46064603F0F9
:102720007FFF804603F02EFC02460B4630463946BA
:1027300003F0EAFA4B4606460F460A22414628466F
:10274000FFF748FF0F2C28BF0F2404F101092E23A7
:1027500080465FFA89F98DF8003001240022294B68
:102760003046394603F084FC0F46064603F058FF16
:1027700004AB2344C0B200F1300203F8102C03F084
:1027800011FC02460B463046394603F0BDFA0134CF
:10279000E4B24C4506460F46E0D12B6822465B6802
:1027A000284669469847404605B0BDE8F0832B6847
:1027B000154977E707F100431F464FF0010995E7F8
:1027C00000220F4B3046394603F0A0FA03F028FFF1
:1027D0004B4601460A222846FFF7FCFE804666E784
:1027E0002B680A495EE700BF000000A09999B93F35
:1027F000FFFFEF7F4C700000FFFFEF41FFFFEFC1D5
:102800000000E03F000024404870000044700000D9
:1028100008B5FDF7F9FEFEF7CBF901F0F3FAFAE798
:10282000844641EA000313F003036DD1403A41D3DB
:1028300051F8043B40F8043B51F8043B40F8043B9A
:1028400051F8043B40F8043B51F8043B40F8043B8A
:1028500051F8043B40F8043B51F8043B40F8043B7A
:1028600051F8043B40F8043B51F8043B40F8043B6A
:1028700051F8043B40F8043B51F8043B40F8043B5A
:1028800051F8043B40F8043B51F8043B40F8043B4A
:1028900051F8043B40F8043B51F8043B40F8043B3A
:1028A00051F8043B40F8043B51F8043B40F8043B2A
:1028B000403ABDD2303211D351F8043B40F8043BCA
:1028C00051F8043B40F8043B51F8043B40F8043B0A
:1028D00051F8043B40F8043B103AEDD20C3205D3DA
:1028E00051F8043B40F8043B043AF9D2043208D0D2
:1028F000D2071CBF11F8013B00F8013B01D30B8844
:1029000003806046704700BF082A13D38B078DD021
:1029100010F003038AD0C3F10403D21ADB071CBFF3
:1029200011F8013B00F8013B80D331F8023B20F85D
:10293000023B7BE7043AD9D3013A11F8013B00F896
:10294000013BF9D20B7803704B7843708B7883701E
:102950006046704708B5104C08E0236859050DD44F
:1029600023681A050FD42368DB0411D423685803A5
:10297000F3D500F0B9FA23685905F1D500F00EF847
:1029800023681A05EFD500F009F82368DB04EDD5BC
:1029900000F004F8EAE700BF3480044008B5FFF710
:1029A000D9FF00BF014B10221A807047002005405C
:1029B000704700BF094908B50B6830B16A46184432
:1029C000A2F50052904202D20860184608BD03F0FA
:1029D00047FE0C2303604FF0FF3008BD4008FF1F87
:1029E000F0B44D1E2E46002400E00134B0FBF2F39B
:1029F00002FB1300092800F130078ABF3730F8B214
:102A0000C0B206F8010F1846002BEED10A19537018
:102A10004CB1107815F8016F28700133E01A834229
:102A200002F80169F5DB0846F0BC704710B4114BA1
:102A300053F8302092F8804234B1012379B182F802
:102A400080305DF8044B704703EBC0035B681A6885
:102A500051B922F002021A605DF8044B704782F807
:102A600000315DF8044B704742F003021A605DF8D4
:102A7000044B7047507000001C4A02EBC003012950
:102A80005B6811D004291BD052F83000002280F876
:102A9000802229B1022920D0032922D01A60704750
:102AA0004FF480721A60704752F830004FF4A272EF
:102AB00080F880121A601A6822F020021A607047AB
:102AC00052F830104FF4A272012081F880021A608F
:102AD0001A6842F020021A60704740F203121A602E
:102AE00070474FF481721A60704700BF5070000049
:102AF00030B4054B054D064C002210211A602A60A7
:102B00002060196030BC704714D0034004D00340EB
:102B100000D003403F2801D8FFF788BF704700BFAF
:102B20003F2801D8FFF7A8BF704700BF72B60C4915
:102B30000C4B0D4A1B680868126862B6520102D538
:102B4000322B88BF01300949C3F5EA334FF47A725A
:102B5000BF33A1FB031302FB00F000EB931070479F
:102B60001418FF1F18E000E004ED00E08988888851
:102B70002DE9F843054672B6204F214B214A1B68C8
:102B80003C68126862B6520102D5322B88BF01340C
:102B900095B3C3F5EA331C4EDFF86490DFF8648028
:102BA000BF334FF47A72A6FB031302FB04F404EB69
:102BB000931472B6D9F800103A68D8F800E062B6FB
:102BC000C1F5EA33BF33A6FB03031EF0806FC4EBED
:102BD00093134FF47A7002D0322988BF013200FB80
:102BE0000233B3F57A7F04D3013D05D004F57A743E
:102BF000DFE701F007F9DCE7BDE8F8831418FF1FF1
:102C000018E000E004ED00E089888888F8B53E4BC4
:102C10003E49DFF818C13E4E3E4ADFF814E13E4D12
:102C20003E4C3F4F4FF0006018604FF080501860EE
:102C30004FF0005018604FF0804018604FF0004097
:102C400018600020086028234EF6FF71CCF80010B1
:102C5000CEF8003033600EF5012E13602B60236038
:102C600005F500253B6004F50024B36207F5002755
:102C7000936206F5012602F501220EF1100E05F60B
:102C8000E87504F6E87407F57F67103220362B608C
:102C90002360CEF800303B6013603360214EBB618F
:102CA000936109223260A7F5002706F58056203F80
:102CB000083638603160BB60F36047F8042C06F5D5
:102CC000FD2607F5FE2706F2FC76043730603960F2
:102CD000B360FB6046F8042C0836C7F8FC0F06F614
:102CE000FC76114831602B602360026001F02CF902
:102CF0001920FFF73DFF00F05DFE40F21310BDE824
:102D0000F840FFF735BF00BF04E100E00480034056
:102D1000148003401C800340248003402C80034027
:102D2000348003400080034000900B400880034043
:102D30000C800340431E032B14D872B60A4951F885
:102D4000230068B170B4094C058834F81320466834
:102D500041F82360521B24F8132062B670BC704700
:102D600062B67047002070477018FF1F7819FF1F68
:102D7000013803280BD872B6074B53F8203043B103
:102D800000205B680130002BFBD162B67047002049
:102D900070471846F9E700BFC418FF1F30B472B679
:102DA0002B4A13781D0706D52A4B196A002936D0FD
:102DB000996A002941D053781C0706D5254B196C18
:102DC00000293ED0996C002939D09378190705D590
:102DD000204B196E002936D0996E89B1D3781B0724
:102DE00007D51C4BD3F880207AB3D3F88820112163
:102DF0003AB162B6184B00221A7030BC00F072BEB5
:102E00000D21154C154D227843F8315003EBC103C9
:102E10000830013A5860227062B630BC7047042214
:102E20000D4C0F4D217843F8325003EBC2030830AC
:102E30004A1E5860227062B6EFE70521E1E70921DA
:102E4000DFE70822ECE70C22EAE71022E8E700BF00
:102E5000787200000000FF1FED18FF1FC80040003F
:102E600088004000431E032B1DD81B4A400140F040
:102E7000100030B4104472B6184CE25C032A1BD820
:102E8000DFE802F00212151703220D88E25410F059
:102E9000080F14BFC823882343EA054308310360A1
:102EA000416062B630BC704708300222EDE705226F
:102EB000EBE708300422E8E7094A52F8230038B16A
:102EC000084A52F82300416042F8231062B6E9E74D
:102ED00042F82310034AF7E70000FF1FFC18FF1F0A
:102EE000C418FF1FD418FF1F2DE9F04FDFF818B3E7
:102EF000DFF818A387B044E0AE4F4FEA930807EB22
:102F0000C809013ED9F8042003F00803F6B2A2F183
:102F1000080003F0FF04002B40F0048157F838301C
:102F20001B0C99B222F8081C002B00F0F280A24B77
:102F300022F8064C42F8044C53F82620002A00F0F0
:102F40006E819E4D55F8263058609D4C45F8260000
:102F500034F81630194424F8161000F0A3FD0028A8
:102F600000F05681974A984B19F0080F00F10800BD
:102F700018BF1346C9F8040047F8383008238BF807
:102F800000309BF80040E4B261071BD58F4B1B78E3
:102F9000ABB18F490A7802F0FF032AB1013BDBB2E3
:102FA0000B70002B00F0EF848A490A7802F0FF03CF
:102FB0002AB1013BDBB20B70002B00F0F780042339
:102FC0008BF8003004F0080303F0FF02002B00F040
:102FD000D6809AF80030DBB21E098DD19C08DFF84C
:102FE000D49159F8342009EBC401C2F38302013AA9
:102FF00049680C2A7ED8DFE802F081817D7D7D7DE5
:103000007D7D477D7D7D07000868734D4A68734F5D
:10301000734E286081B240F281606A4B6A604FF063
:10302000010E0022814249F834303A60C9F810207C
:10303000C9F8182086F800E05E4C00F2F480B1F583
:10304000D06F80F07883B1F5817F00F0628300F269
:103050008782802900F0EC82822940F01E83A988B3
:1030600001F07F01042900F218835E485E4C89005C
:103070000844227062700278930740F1798384F8E3
:1030800000E04FF0020ED8E2544F3A6842B3574B7B
:10309000534E5749188834780D784028864645F0B5
:1030A000020828BF4FF0400E002C84F00104347059
:1030B000CEEB00000CBF8824C82409EBC80680B200
:1030C00085F0010544EA0E447260188049F83840E2
:1030D00072440D7018B9BEF1400F18BF00223A605B
:1030E0003D4B1A88B2F5A06F04D100219A7859702F
:1030F000404B1A70404A012313703FE7364A158847
:1031000042F22100854200F0FF812E4A49F8342026
:10311000F0E72C4A2C4B19F0080F18BF134647F85C
:1031200038302BE700F0DEFC344A354952F82630BF
:10313000002B00F0B68158688C5D42F8260003F140
:103140000802C9F80420032C05D8DFE804F0120FA8
:10315000150204228A551A8819F0080F0CBF88231B
:10316000C82343EA024347F8383007E702228A556A
:10317000F1E703228A55EEE705228A55EBE7E007DF
:1031800000F11A82210600F14982A20706D51D4AE4
:103190001D4913780220DBB213700870E30602D5D4
:1031A000194B10221A7007B0BDE8F08F00F006FE30
:1031B00005E700BF0000FF1F7018FF1F1C18FF1F4E
:1031C0007819FF1FC800400088004000F818FF1F52
:1031D0008118FF1F0019FF1FE418FF1F1818FF1F99
:1031E0008018FF1FC0200740F018FF1F2C18FF1F7A
:1031F000EC18FF1F9820074094200740C418FF1FB9
:10320000FC18FF1F882007408020074090200740BF
:10321000AB4A47F83800137801331370AEE643F831
:103220002600A84D91E642F22100814200F035814E
:1032300000F2AF81B1F5086F00F01B82B1F5106F9D
:1032400040F02B82226AA049A8780870120600F18B
:103250004583D9F828209D49130600F13A83D9F80F
:1032600030209A49150600F12F83D9F83820974964
:10327000140600F12483D9F840209449100600F187
:103280001983D9F848209149120600F10E83D9F824
:1032900050208E49130600F10383D9F858208B493A
:1032A000150600F1F882D9F860208849140600F16B
:1032B0002983D9F868208549100600F11E83D9F8C2
:1032C00070208249120600F11383D9F878207F49D3
:1032D000130600F10883D9F880207C49150600F117
:1032E0001C83D9F888207949140600F11083D9F895
:1032F00090207649100600F1C882D9F898207349C9
:10330000120600F1BC827248724A734901907348F8
:103310006C4D734C04970023059602958046174622
:103320000E461D460394386828B1446800F0DAFB65
:103330002046002CF9D100233B60029B30681A46DE
:10334000002342F8253028B1446800F0CBFB20462A
:10335000002CF9D100223260019A98F80030114611
:10336000002241F8042B039A0191023B4FF0000127
:1033700022F81510032B09D8DFE813F04B010400E5
:103380004B0104004FF0010388F800300135042D93
:1033900007F1040706F1040608F10108C3D1514CF6
:1033A000514B2278464D049F059E002129701A70CA
:1033B000130700F14F8262784C49DFF810810A70E0
:1033C00010074FF00001C9F83010C9F8381000F1AB
:1033D0002B824749A2780A700021C9F85010C9F819
:1033E00058101107DFF8E48000F1DC81E2784149F0
:1033F000364C0A7000211207C9F87010C9F878100D
:1034000000F1B98133780193002183F00102C9F8FA
:103410009010C9F898100020029080468446044617
:1034200035490D7845F0020E09EBCE030393019B5D
:10343000002B039B5C600CBF8824C82444EA08036B
:1034400085F0010449F83E3032700C70DFF87CE002
:103450002A4BDFF8A480002840F02681BCF1400F01
:103460001BD144F0020C09EBCC03029CDFF85CE0BA
:103470005C60002A40F02E81020442F088029DF830
:1034800004304EF83C20044433700D70234640282D
:1034900003D100201A4A3B6010801A4A012313709E
:1034A00028E68B5D032B00F22D8101A252F823F058
:1034B0007D2F00007D2F0000073600000D36000034
:1034C000ED18FF1F1C18FF1FF818FF1F0000FF1F3B
:1034D000D418FF1F7018FF1FC418FF1FFC18FF1F10
:1034E0007819FF1F78720000C4200740C8200740E9
:1034F000CC200740D0200740EC18FF1F8018FF1F8A
:103500002C18FF1F94200740928892B9B14A0D7879
:103510004878157050708D78C8789570D0701068A4
:103520000D79157186284D7989795571917100F061
:10353000A580A949A94E0A78307882F001050028B3
:1035400042F002020D700CBF8821C82149F83210E8
:1035500009EBC20280F00100002130705160D4E517
:1035600040F20232914240F08D80A98801F07F0143
:10357000042900F292806A88002A40F08E809848E0
:10358000CDF804E089000844017841F0020101709F
:1035900041E742F2212081427BD1A988002940F0F5
:1035A000E480904B904A9148AC781D681560CDF846
:1035B00004E00A4604702EE78D4B8E4886491A6156
:1035C0004FF0020E80F800E0854F0A708A491960BA
:1035D00099608A4E8A4D8B4C9A610D213970FF217A
:1035E0003170DFF840E229702270874D874A8EF8EB
:1035F00000109F27012406F8047C5D600470DA60E7
:1036000007B0BDE8F08F00238B55B7E401238B553D
:10361000B4E44FF0000388F80030B7E67049784B07
:1036200080220D2008701A70A2077FF5B7ADAEE5B5
:10363000774C4FF0020E22706270EA88724580F07B
:10364000A38165490D78402A944645F0020E28BFB3
:103650004FF0400C04EB0C0309EBCE000293012366
:1036600044604FEA0C48CCEB020001930022C824CE
:10367000E4E6684A664C12782270DEE7664A0F215B
:10368000117056E7B1F5A06F07D101230022019315
:10369000C1E642F221329142F7D0514A0F23137012
:1036A000544A0123137025E540287FF6DAAE44F032
:1036B00002040EEBC401029E4E60BAB19DF80410E4
:1036C000564A19703346403888F8005040334EF857
:1036D0003420DFE69DF8043033700204029B0D7045
:1036E00042F0C80203444EF83C20D0E69DF8041096
:1036F0001970029B404A88F80050403840334EF819
:103700003420C7E619F0080F0CBF022303238B55A2
:1037100034E4A98801F07F010429BED86A88002A10
:10372000BBD12F48CDF804E089000844017821F08E
:10373000020101706FE63A4A5468002CADD06888E7
:10374000B5F804E003E00C325468002CA5D01388CF
:103750008342F8D153887345F5D1000A03280CBF82
:1037600094F800E0B2F808E067E7CDF804E052E62C
:103770004FF0020E61E700F095F9002800F0F180AB
:1037800008301D4AC4F88400C4F8802000F08AF98B
:10379000002800F0E0800830204AC9F88C00C9F801
:1037A00088202FE600F07EF9002800F0E68008303F
:1037B000114AC8F86400C8F8602000F073F90028C6
:1037C00000F0D5800830154AC9F86C00C9F86820A7
:1037D0000CE600BF8019FF1FEC18FF1F8018FF1FA9
:1037E000C02007401418FF1F8819FF1F1019FF1F62
:1037F0000000FF1F942007408800400088200740F9
:1038000080200740982007403018FF1F8418FF1FB2
:10381000F018FF1FF818FF1F8118FF1FC800400095
:103820007C7200008C20074000F03CF9002800F07A
:103830008C8008305D4AC8F84400C8F8402000F089
:1038400031F900287BD00830594AC9F84C00C9F832
:103850004820BEE500F026F900286AD00830534A17
:10386000C9F82400C9F8202000F01CF900285AD01B
:1038700008304F4AC9F82C00C9F828209BE5D1F838
:103880009C00083800F02EF93DE5D1F89400083886
:1038900000F028F931E5C86D083800F023F902E599
:1038A000486D083800F01EF9F7E4C86C083800F0DD
:1038B00019F9ECE4486C083800F014F9E1E4C86B3D
:1038C000083800F00FF9D6E4486B083800F00AF920
:1038D000CBE4C86A083800F005F9C0E4606A08382B
:1038E00000F000F9B5E4C86F083800F0FBF8F2E426
:1038F000486F083800F0F6F8E7E4C86E083800F0C2
:10390000F1F8DCE4486E083800F0ECF8D1E4D1F8C6
:103910008C00083800F0E6F8E9E4D1F884000838B3
:1039200000F0E0F8DDE42A78C9F8280001322A70B6
:1039300041E52A78C9F8200001322A7094E72A78F4
:10394000C9F8480001322A7043E52A78C8F84000D7
:1039500001322A7073E72A78C9F8880001322A7088
:1039600050E52A78C4F8800001322A700EE72A78E0
:10397000C9F8680001322A7038E52A78C8F8600072
:1039800001322A7019E700BEBEF1400FF44628BF8D
:103990004FF0400C04EB0C0302930123CCEB0E0020
:1039A0004FEA0C48002201933AE500BF880040002E
:1039B000C80040002DE9F843244C00F037FB0022FA
:1039C00004F1A00023461A605A60083383424FF086
:1039D0000001F8D11E481F4A0368DFF890E01E4F2F
:1039E0001E4D1F4EDFF88880DFF888C0DFF8889012
:1039F00043F48023036013681A4843F04073136054
:103A0000C4F307238EF80030C4F307433B70240E41
:103A1000FF2302F5C9222C7002F5847288F8003069
:103A2000114D8CF800303370012389F80030702676
:103A30008EF864104FF40014102107F82C3C2E70FF
:103A4000046011700EF1640EBDE8F8830000FF1FE2
:103A50003480044000D80040B0200740B420074024
:103A60001020074004E100E035E400E09C2007401E
:103A700080200740882007409420074000F0A2B82B
:103A800000F07AB800F054B800F08EB800F06AB9CF
:103A900000F044B90846114600F0B0B8084600F0FE
:103AA00031B900BF72B60D480268B2FA82F30B2B2F
:103AB00010DC4FF00041D94022EA0102026062B6F8
:103AC000074803EBC303DB00C2180021C1501046B6
:103AD0005160704762B60020704700BF5408FF1F56
:103AE0009803FF1F0D4B0E4AC31AA2FB03231B09A9
:103AF0000B2B0CD80B4A127852B972B60A484FF009
:103B00000041026821FA03F31A43026062B670476B
:103B1000064A1278002AF0D0FFF740B99803FF1F39
:103B2000398EE338ED18FF1F5408FF1FF818FF1FE8
:103B300038B50F4D286878B143880288C118013321
:103B400093420C7A02D24380204638BDFFF7CAFF69
:103B5000002320462B6038BD064B1B782BB1032079
:103B6000FFF7E8F828600028E6D14FF0FF3038BDB5
:103B70000C19FF1FF818FF1F10B5094C206818B169
:103B800043881844007A10BD064B1B782BB10320E4
:103B9000FFF7D0F820600028F2D14FF0FF3010BDC1
:103BA0000C19FF1FF818FF1F044B054A1B6890886B
:103BB0001BB11A885B88D31A184470470C19FF1F71
:103BC0007819FF1F0B4B1B789BB110B50A4C20686E
:103BD00048B1FFF787FF002303202360FFF7AAF80F
:103BE00030B1FFF77FFF0320FFF7A4F80028F8D1DA
:103BF00010BD7047F818FF1F0C19FF1F2DE9F04F7B
:103C0000DFF8F89083B0012289F80020019169B3B0
:103C1000DFF8EC80364F019E8346D8F80000B0B341
:103C2000344D4488C4F14001B14228BF314604EB11
:103C3000010E00221FFA8EFE2A70761AA0F802E00A
:103C400000F1080251B1013C224459441BF8014BD8
:103C500002F8014F8B45F9D1B0F802E0BEF13F0FF9
:103C60000BD8254A05211170002ED6D101980023CA
:103C700089F8003003B0BDE8F08F40220280014691
:103C80000420FFF7EFF80022C8F80020E9E73A78AF
:103C90002AB3184D4DF2E9044FF0010A07E0013C48
:103CA00016D02A78A2B900F0ADF83A78BAB104205B
:103CB000FFF75EF80728F2D889F800A0FFF7F2FEB8
:103CC000C8F800000028ACD10C4B013C1870E8D1BA
:103CD00001234FF0FF302B7003B0BDE8F08F0023BD
:103CE0004FF0FF3089F8003003B0BDE8F08F00BF1F
:103CF000F818FF1F0819FF1F0019FF1F0119FF1FE8
:103D00000419FF1F00B583B002AB012103F8010DB8
:103D10001846FFF773FF03B05DF804FB38B50E4D8E
:103D20000E4C28680123237028B14088002323709B
:103D3000C0F1400038BD0A4B1B7813B90020207039
:103D400038BD0420FFF714F80728F7D8FFF7AAFEBC
:103D500028600028E9D1F1E70419FF1F0119FF1FAE
:103D6000F818FF1FF8B5114B1B788BB1104E114D91
:103D7000346801272F7064B10F4A638800271770D9
:103D8000214623800420FFF76DF8376000232B7055
:103D9000F8BDFFF787FE084B28B1014604201C70D0
:103DA000FFF760F8F2E71F70F0E700BFF818FF1F99
:103DB0000419FF1F0119FF1F0019FF1F38B50E4B13
:103DC0001B7873B90D4C216861B103F0FF054B8876
:103DD0000B800420FFF746F8256038BD084B012210
:103DE0001A7038BDFFF75EFE0028F7D00146BDE827
:103DF00038400420FFF736B80119FF1F0419FF1FD0
:103E00000019FF1F2DE9F843314E337893B1314F3C
:103E10003A787AB90122D9073A7036D49A0719D478
:103E200000225B073A7005D52B4B1A6812B1EFF3ED
:103E300005820AB1BDE8F883EFF3108172B6186805
:103E400018B1264C2278002A2ED00029F2D162B671
:103E5000BDE8F883DFF8908098F80020002ADFD0D2
:103E6000DFF88890002405E0013498F80030E4B2CF
:103E7000A34212D959F824502B6828461B69984749
:103E80000028F1D02B699847EEE7FFF78DFEC8B9FF
:103E9000134B1B781BB93378C0E73378C0E733780E
:103EA00003F0FE033370B9E745691D6001232370F9
:103EB0005DB1AA6101B962B600254577836898476C
:103EC0002570B7E700F0B0F8E2E7064B1D60F1E7B8
:103ED0005808FF1F1119FF1F2019FF1F2419FF1F6A
:103EE0005B08FF1F1C19FF1F4019FF1F2819FF1F28
:103EF00070B5EFF3108272B60C4C206880B10C4E96
:103F000000254369236073B19D6102B962B64577AC
:103F100083689847EFF3108272B620680028F0D1CA
:103F200002B962B670BD3360EFE700BF1419FF1F1E
:103F30001819FF1FFFF7DCBF024A13680133136033
:103F4000704700BF1418FF1F30B42948294A2A4B74
:103F50002A4D6024E121047011701B78284C082B35
:103F600030D00A2B2748284937D00C2B0CBF3522DC
:103F70005D2212232A60236002600B60234B2449D8
:103F80001B78244ABBB101230B601360224B2349E9
:103F90001B78234A012B26D9042B0FD9082B1ED9B5
:103FA000102B94BF862387230B6013601D4B0122C7
:103FB0001A7030BC70470B601360E7E784230B6016
:103FC0001360F3E700F58E200F49083021221323F8
:103FD0002A60236002600B60D0E73922F7E785236F
:103FE0000B601360E2E780230B601360DEE700BF25
:103FF00000400740014007405908FF1F08B0034038
:104000000CB0034008B00B400CB00B404219FF1F2E
:1040100020B0034020B00B405A08FF1F24B00340DB
:1040200024B00B404119FF1F704700BF72B6184AF9
:10403000184B19491160702280211A701A461970A4
:1040400013781B06FCD510B5144B84B0186862B603
:10405000134B144C984298BF00EB800001A998BF05
:1040600040000A22FEF7BCFC01A92046002311F8FB
:10407000012B01333AB10A2B20F8022FF7D1162376
:10408000237004B010BD5B00DBB2237004B010BD20
:104090000400024000000240000007410C00024002
:1040A0007F969800E808FF1F30B400240025C0E97F
:1040B0000045C0E90245C0E9044530BC704700BF77
:1040C00000B551EC100B2C4A21F00043934285B00F
:1040D00020DD2A4A934209DD10EE102A0B4601F03A
:1040E00013FE41EC100B05B05DF804FB684600F0D0
:1040F00003FA00F00300012828D0022815D060B38D
:1041000001209DED021B9DED000B01F041FA51ECE9
:10411000100BE6E79FED161B00F0E6FC51EC100BD0
:1041200041EC100B05B05DF804FB9DED021B9DED0D
:10413000000B00F0D9FC53EC102B10EE100A03F129
:10414000004141EC100B05B05DF804FB9DED021B36
:104150009DED000B01F01CFAEDE79DED021B9DEDBE
:10416000000B00F0C1FC51EC100BBAE7AFF300807C
:104170000000000000000000FB21E93FFFFFEF7F8F
:1041800000B551EC100B2C4A21F00043934285B04E
:1041900027DD2A4A934209DD10EE102A0B4601F072
:1041A000B3FD41EC100B05B05DF804FB684600F070
:1041B000A3F900F00300012827D002281DD068B31E
:1041C0009DED021B9DED000B00F08EFC53EC102BBF
:1041D00010EE100A03F1004141EC100B05B05DF840
:1041E00004FB00209FED121B01F0D2F951EC100BE3
:1041F00041EC100B05B05DF804FB01209DED021BA6
:104200009DED000B01F0C4F9E0E79DED021B9DED73
:10421000000B00F069FC51EC100BC2E701209DED92
:10422000021B9DED000B01F0B3F951EC100BB8E748
:104230000000000000000000FB21E93FFFFFEF7FCE
:1042400000F062B82DE9F0432DED028B8BB055ECF8
:10425000104B00F077FB294BB0EE408AF0EE608AFD
:1042600093F90060731C12D022462B462046294643
:1042700002F098F9074650B94FF000084FF00009D6
:104280002046294642464B4602F064F940B9B0EE5A
:10429000480AF0EE680A0BB0BDEC028BBDE8F08373
:1042A000174B08970122CDE90445CDE902458DE879
:1042B0000C00B6B142464B464046494602F002F871
:1042C000022ECDE906010ED102F0CAF921230360C6
:1042D000089B73B99DED060B0BB0BDEC028BBDE8DE
:1042E000F083CDE90689684601F072FC0028EFD121
:1042F000EAE702F0B5F9089B0360EBE7FE08FF1F51
:10430000D0720000FFFFFFFF51EC110B43422DE97B
:10431000F047034321F00048754F48EAD373BB428E
:1043200055EC104B49D86342234325F0004A4AEA32
:10433000D373BB42A94640D801F1404303F5801333
:1043400003438E4650D08E1706F0020654EA0A0345
:1043500046EAD57639D050EA08033ED0B84555D064
:10436000BA453AD0C8EB0A084FEA2858B8F13C0FD2
:1043700040DC002970DB02460B462046294601F04E
:10438000A1FF41EC100B01F08BFB01F0CDF951ECDA
:10439000100B012E5AD0022E48D0002E42D03EA340
:1043A000D3E9002301F0B0FC3DA3D3E9002301F0E1
:1043B000ABFC41EC100BBDE8F08722462B4601F028
:1043C000A5FC41EC100BBDE8F087022E16D0032EA1
:1043D0000ED19FED350BBDE8F087B9F1000F11DB71
:1043E0009FED330BBDE8F087BDE8F04701F09CB9C5
:1043F000BDE8F0872EA1D1E90001CAE79FED280BA7
:10440000BDE8F0879FED2C0BBDE8F087C24529D0B1
:10441000022EF3D0032EDCD0012E2DD09FED280BE1
:10442000BDE8F08741EC100BBDE8F0871AA3D3E993
:10443000002301F069FC02460B4619A1D1E90001F5
:1044400001F062FC41EC100BBDE8F08701F1004186
:1044500041EC100BBDE8F08718F13C0F8BDA00201F
:10446000002196E7022E13D0032E0DD0012E07D087
:104470009FED150BBDE8F0879FED150BBDE8F087AC
:104480009FED150BBDE8F0879FED150BBDE8F0879C
:104490009FED150BBDE8F087075C143326A6A13C01
:1044A000182D4454FB210940182D4454FB2109C008
:1044B000182D4454FB21F93F182D4454FB21F9BF1A
:1044C0000000000000000000182D4454FB21E93FCB
:1044D0000000000000000080182D4454FB21E9BFBB
:1044E000D221337F7CD902C0D221337F7CD90240D4
:1044F0000000F07FFFFFFFFF2DE9F04F53EC102B82
:10450000974923F0004B8B458FB040F38780954946
:104510008B451C46824629DC002C194610EE100AF9
:1045200085A3D3E9002340F3A58101F0EDFB8E4B79
:104530009B4504460D4600F0878081A3D3E9002304
:1045400001F0E2FB02460B46CAE900232046294659
:1045500001F0DAFB7AA3D3E9002301F0D5FB0125B2
:10456000CAE9020128460FB0BDE8F08F7F498B45AC
:1045700040F387807E498B455BDC4FEA2B55A5F2E3
:104580001645ABEB05571046394610EE106A02F09F
:104590001FF801F007FD8046894642464B463046EB
:1045A0003946CDE9088901F0AFFB0022714B01F0DB
:1045B0005FFD8946804602F00BF801F0F3FC0646E9
:1045C0000F4632463B4640464946CDE90A6701F070
:1045D0009BFB0022674B01F04BFD00220023CDE93D
:1045E0000C0101F0ADFF002800F07081002330467F
:1045F0003946002201F0A4FF002814BF0123022342
:104600005D4A0192022100912A46514608A800F015
:10461000AFFB002CC0F24C81054606E080ED000B9C
:1046200000250024C0E90245002528460FB0BDE85A
:10463000F08F10EE100A194601F066FB0025CAE95A
:104640000201CAE90001F0E73FA3D3E9002301F02A
:104650005BFB3FA3D3E900230D46044601F054FB66
:1046600002460B46CAE900232946204601F04CFBCE
:1046700037A3D3E9002301F047FB0125CAE9020172
:10468000D3E701F00DFA57EC106B10EE100A32A3CD
:10469000D3E90023394601F0EBFC0022374B01F04F
:1046A00035FB01F095FF054601F07CFC22A3D3E920
:1046B0000023CDE9040101F0DBFC02460B46304645
:1046C000394601F021FB1EA3D3E900238046894629
:1046D000DDE9040101F0CCFC1F2DCDE9020151DC24
:1046E000274B6A1E53F822309B454BD002460B469F
:1046F0004046494601F008FB06460F46CAE90067F6
:1047000032463B464046494601F0FEFADDE90223C7
:1047100001F0FAFA002CCAE9020186DA07F1004436
:1047200001F100436D42CAF80060CAF80440CAF8BB
:104730000800CAF80C3078E700004054FB21F93F2C
:104740003163621A61B4D03D0000601A61B4D03D9B
:104750007370032E8A19A33B83C8C96D305FE43F91
:10476000FB21E93F7BD90240FB21F93FFB21394185
:10477000FFFFEF7F00007041587300000000E03F32
:10478000D8720000DDE902234046494601F0BCFA38
:104790004FEA2B5BC1F30A53C3EB0B0306460F46EC
:1047A000102BCAE90067ABDD5DA3D3E90023DDE987
:1047B000040101F05DFC06460F4602460B464046EA
:1047C000494601F0A1FACDE9060102460B464046F2
:1047D000494601F099FA32463B4601F095FA52A358
:1047E000D3E9002306460F46DDE9040101F040FC51
:1047F00032463B4601F088FA0B46CDE902010246FB
:10480000DDE9060101F080FAC1F30A53C3EB0B0B9B
:1048100006460F46BBF1310FCAE9006776DD45A3B6
:10482000D3E90023DDE9040101F022FC06460F462E
:1048300002460B46DDE9060101F066FA02460B4628
:1048400080468946DDE9060101F05EFA32463B46C4
:1048500001F05AFA39A3D3E9002306460F46DDE9F1
:10486000040101F005FC32463B4601F04DFACDE96A
:1048700002013BE701F04AFA2D4B9B4504460D46E9
:1048800026D025A3D3E9002301F040FA02460B46C7
:10489000CAE900232946204601F036FA1EA3D3E9CF
:1048A000002301F033FA4FF0FF35CAE90201BCE6FC
:1048B000DAF80420DAF80C3002F1004203F1004388
:1048C0004542CAF80420CAF80C30AEE6032397E646
:1048D00013A3D3E9002301F019FA13A3D3E90023AA
:1048E0000D46044601F012FA02460B46CAE90023BF
:1048F0002946204601F008FA0BA3D3E9002301F072
:1049000005FA4FF0FF35CAE902018EE6DDE90689B6
:10491000F6E600BFAFF300803163621A61B4D03DA8
:104920000000601A61B4D03D7370032E8A19A33B56
:10493000FB21F93F0000002E8A19A33BC149202525
:104940009A837B392DE9F041654955EC104B0E46B1
:104950002940B14200F09780002D2B4610EE102A1E
:1049600074DD2F157FD0A7F2FF37C3F31303F907C8
:1049700043F4801365D403EBD27100260B447F10FF
:104980005200B64616204FF400110EEB01049C4273
:104990004FEAD2754FEA420203DC1B1B04EB010E07
:1049A0000E44013805EB43034FEA5101EDD1844633
:1049B00020244FF0004109E020D003EBD275013CE8
:1049C0004FEA51012B444FEA420220D09E4501EBB1
:1049D0000C05F1DA002D05EB010C09DBF0469542E0
:1049E000CEEB030300D9013B521B0844C646E4E763
:1049F000BCF1000FF2DB0EF10108F0E795421ED882
:104A0000002D05EB010C50DB98460023ECE7134327
:104A100004D0421C4DD000F001031844400871102E
:104A2000F30701F17F5101F5001148BF40F000404C
:104A300001EB0753024643EC102BBDE8F0817346AF
:104A4000BBE75B0003EBD273520094E725F0004113
:104A5000214328D0ADBB2F46D30A153F5205002B6A
:104A6000FAD0DD0228D4002100E001465B00DC0220
:104A700001F10100F9D5C0F1200422FA04F4234326
:104A80007F1A82406FE710EE102A2B4610EE100AB4
:104A9000294601F0EDFA22462B4601F037F941ECA8
:104AA000100BBDE8F081BDE8F081BCF1000FA2DA87
:104AB000AAE701362046B2E720244FF0FF3100205C
:104AC000DBE710EE102A2B462046294601F01CF9A0
:104AD00002460B4601F0F6FB41EC100BBDE8F081FD
:104AE0000000F07FFFFFFFFF2DE9F04F57EC106B48
:104AF0002DED028BB0EE418AF0EE618A27F000497D
:104B0000B9F1795F83B072DA10EE100A394601F01C
:104B10005FFD002800F0F68032463B4630463946BD
:104B200001F0A6FA7CA3D3E9002304460D4601F068
:104B30009FFA7BA3D3E9002301F0E8F822462B4635
:104B400001F096FA78A3D3E9002301F0DDF82246BC
:104B50002B4601F08DFA76A3D3E9002301F0D6F8B5
:104B600022462B4601F084FA73A3D3E9002301F017
:104B7000CBF822462B4601F07BFA71A3D3E9002340
:104B800001F0C4F822462B4601F072FA82468B46A9
:104B90000022714B2046294601F06AFA52468046AF
:104BA00089465B462046294601F062FA53EC182BF1
:104BB00004460D463046394601F05AFA02460B4685
:104BC0002046294601F0A0F802460B4640464946D9
:104BD00001F09AF802460B460020604901F094F873
:104BE00041EC100B03B0BDEC028BBDE8F08F10EE72
:104BF000102A10EE100A3B46394601F039FA46A356
:104C0000D3E9002304460D4601F032FA44A3D3E968
:104C1000002301F07BF822462B4601F029FA42A33B
:104C2000D3E9002301F070F822462B4601F020FA68
:104C30003FA3D3E9002301F069F822462B4601F097
:104C400017FA3DA3D3E9002301F05EF822462B4674
:104C500001F00EFA3AA3D3E9002301F057F82B46EE
:104C6000224601F005FA3E4B994582468B468FDD80
:104C70003C4B99453DDC0022A9F500130020374943
:104C80009046994601F040F8CDE900010022324BF0
:104C90002046294601F0ECF942464B4601F034F833
:104CA0005246804689465B462046294601F0E0F997
:104CB00053EC182B04460D463046394601F0D8F91E
:104CC00002460B462046294601F01EF802460B46D6
:104CD0004046494601F018F802460B46DDE900015E
:104CE00001F012F841EC100B03B0BDEC028BBDE8F3
:104CF000F08F9FED157B4FF000088DED007BDFF806
:104D00006890C3E79FED120B03B0BDEC028BBDE8CA
:104D1000F08F00BFAFF30080D43888BEE9FAA8BD99
:104D2000C4B1B4BD9EEE213EAD529C804F7E923EFA
:104D30009015CB19A001FA3E7751C1166CC1563FB0
:104D40004C5555555555A53F000000000000E73F64
:104D5000000000000000F03F0000E03F0000F03FD6
:104D60003233D33F0000E93F0000D23FFFFFFFFF97
:104D70002DE9F04FADF51B7D814CA49E814D54F87B
:104D8000264007942646D41E85FB0475E417C4EB21
:104D9000A50424EAE4741D460A93631CA3EB830371
:104DA000013D02EBC30306932B460B940095651B54
:104DB000F4180390089116D42C44013422AEA59F18
:104DC00008E057F8250001F0EDF80135A542E6E8C6
:104DD000020108D0002DF4DA013500200021A5429F
:104DE000E6E80201F6D1079B002BC0F2C283079BC5
:104DF000039ADDF800A003F1010B0A9B0DF5E4799D
:104E0000DB00049309EBCB0B02EB0308009B002BA8
:104E1000C0F2928122AB03EBCA05039C0835002641
:104E2000002775E90223F4E8020101F021F90246A6
:104E30000B463046394600F069FF444506460F46AA
:104E4000EFD1E9E80267D9450AF1010ADED10799F5
:104E50000498039C049101F18043023B9B00204491
:104E60001A1D83460EA8024403440D920C93049A23
:104E70009AA901EBC203002A53E9284529DD0DF563
:104E8000E47A0AEBC2080DF1340900223E4B2046B9
:104E9000294601F0EDF801F09BFB01F083F80022B8
:104EA0003A4B06460F4601F0E3F802460B46204611
:104EB000294600F029FF01F08BFB78E9022349F82D
:104EC000040F3946304600F021FFD04504460D4618
:104ED000DBD1DDF8189045EC104B484600F07CFE25
:104EE00055EC104B00224FF07F5310EE100A29466C
:104EF00001F0BEF841EC100B00F0DAFD002251EC9D
:104F0000100B234B01F0B4F802460B46204629460D
:104F100000F0FAFE0D46044601F05AFB804601F00F
:104F200041F80B4602462946204600F0EDFE4B466E
:104F3000002B06460F4640F3E580049A0EA9013A7D
:104F4000C9F1180351F8225045FA03F101FA03F3AD
:104F50000EA8EB1A40F82230C9F11705884443FA2D
:104F600005F5002D41DD049B002B08F1010840F3FD
:104F7000C982002214460DA90498AE4612E000BF73
:104F800060740000ABAAAA2A0000703E00007041C5
:104F900000002040C3F180750BB10D600124013287
:104FA00090420DDD51F8043F002CF3D0C3F1FF1304
:104FB000013203F57F4390420B604FF00104F1DCB6
:104FC0007546069B002B0EDD012B00F0A380022B03
:104FD00009D1049B5A1E0EAB0EA953F82230C3F31D
:104FE000150341F82230022D74D0002200233046F0
:104FF000394601F0A5FA002800F04982049A079B7F
:10500000501E834210DC02F18043013B0EAA0D9C2E
:1050100002EB8303002253F80419A34242EA01027F
:10502000F9D1002A40F0A480079B0EAA013B52F858
:105030002330002B40F064820C9A012352F80419AB
:1050400001330029FAD0049AD31802F1010A9A45D3
:1050500009933CDC0B9B0A9A09990AEB0309049B10
:10506000984690448B1809F18049A59A09F1FF39B7
:1050700002EB890922AA02EBC303049372AB02EB91
:10508000C80803EBCA0A59F8040F00F08BFF009B15
:10509000002BE8E802014FF000064FF0000711DB9B
:1050A000039C454675E90223F4E8020100F0E0FFA5
:1050B00002460B463046394600F028FE5C4506465F
:1050C0000F46EFD1049B9845EAE80267DBD1099BC4
:1050D0000493CCE632463B460020B34900F014FE70
:1050E00006460F46002C80D006989FEDAB0B00F0D3
:1050F00073FD3046394653EC102B00F005FE064692
:105100000F4672E711D1049B0EAA013B52F82350BF
:10511000ED1526E7049B5A1E0EAB0EA953F822305C
:10512000C3F3160341F822305DE700229F4B01F0E4
:1051300025FA58B9054658E700260027E9E802672E
:10514000D9450AF1010A7FF461AE80E6049B002B89
:1051500008F10108C8BF02253FF70BAF32463B46B6
:105160000020914900F0D0FD022506460F463CE79D
:105170000EA9CDF8248051F82030069900901839F6
:105180000246039506916BB900F18043013B0EA8DE
:1051900000EB830353F80409013A18390028F9D0C9
:1051A0000092069106989FED7C0B00F015FD009B88
:1051B000002B55EC104BC0F2C181DA000DF5E478FC
:1051C0000EA901EB830608EB020B069204360BF1E5
:1051D000080756F8040D00F0E5FE22462B4600F0C5
:1051E00047FF002267E90201714B2046294600F083
:1051F0003FFF474504460D46EBD14AACDDF81C9015
:1052000004944FF0000AB9F1000FC0F22B81DFF8CF
:10521000A4815D4662A3D3E9002300260027002471
:1052200003E0A24510DBF8E80223F5E8020100F0F4
:105230001FFF02460B463046394600F067FD013439
:10524000A14506460F46ECDA049B03EBCA03ABF11B
:10525000080BC3E9006770AB9B450AF1010AD2D184
:10526000A49B049C032B00F28D80DFE813F0DD008B
:10527000A500A5000400009B002B40F35C81009B6F
:1052800003F1005B069B0BF1FF3BE2184FEACB03F7
:10529000D2E9008903F10802103304EB020AE51891
:1052A0003AED027B42464B4651EC170B8DED047BE9
:1052B00000F02CFD06460F4602460B46DDE90401D0
:1052C00000F022FD4B46424600F020FD65E9020158
:1052D0004CAB9D42B046B946CAE90067E0D1009B9D
:1052E000012B40F32881069B234493ED007B4FEA7A
:1052F000CB0B0BF1100A8DED007BA2440BF1080BD8
:1053000004EB0B05D0460DF59C7BCDF810A075E99C
:10531000029ADDE900014A46534600F0F7FC0646D2
:105320000F4602460B464846514600F0EDFCDDE9CB
:10533000002300F0EBFC68E90201C345CDE90067FA
:10534000C5E90067E3D1DDF810A0002000217AE96B
:10535000022300F0DBFCD345F9D1039B002B00F0C6
:10536000D3806268E368089F2568A4683D6002F105
:10537000004203F1004301F100417A60FB60BC6030
:1053800038617961099B03F007000DF51B7DBDE8CD
:10539000F08F00BFAFF30080000000000000F03F7E
:1053A00000000040FB21F93F0000F03F0000E03F1B
:1053B0000000703E78740000069D083525440020EA
:1053C000002175E9022300F0A1FCA542F9D1039B5D
:1053D000002B4AD0089E024601F1004386E80C00EB
:1053E0000B460246D4E9000100F08EFC009B002B26
:1053F0000DDD4CAD0124F5E8022300F087FC009B95
:105400000134A342F7DA039B002B00F0A78001F1DF
:10541000004308990246C1E90223099B03F00700F3
:105420000DF51B7DBDE8F08F069B009D0833002025
:1054300000211C4474E90223013D00F067FC6B1C51
:10544000F8D1039B0246002B00F08E8001F100434F
:105450000899C1E90023099B03F007000DF51B7DA6
:10546000BDE8F08F00260027EEE6089B0246C3E960
:1054700000010B46D4E9000100F046FC009C002C22
:1054800002460B46B5DC0899C1E90223C5E7069B35
:105490000395584247EC106BCDF8248000F09CFB3C
:1054A00055EC104B0022384B10EE100A294601F043
:1054B00065F8002834D00022344B2046294600F0FD
:1054C000D7FD01F085F8064600F06CFD00222E4B5A
:1054D00000F0CEFD02460B462046294600F014FCA3
:1054E00001F076F80499069B0A46183301320693B8
:1054F0000B460EA9009241F8230041F8226051E6C4
:105500000123A0E500245CE5D4E90067D4E9022387
:10551000089DC5E90401C5E90067C5E9022331E733
:105520002946204601F054F8049A00920EA941F849
:10553000220037E64AAC002000210EE7A49B032B93
:105540003FF620AF01A252F823F000BF83550000C0
:105550007B5500007B550000355500000B4608992F
:105560000246C1E9022358E70B460899C1E9002326
:1055700071E70A9BDB00049369E4002000214AAC38
:1055800025E7002000215CE7000070410000703E2C
:105590002DE9F04F55EC104B2DED028BB0EE418A0A
:1055A000F0EE618A25F00043B3F1795F83B0824663
:1055B00007DA10EE100A294601F00AF8002800F078
:1055C0008E8022462B462046294600F051FD064695
:1055D0000F4602460B462046294600F049FD47A3E8
:1055E000D3E90023804689463046394600F040FD25
:1055F00044A3D3E9002300F087FB32463B4600F08A
:1056000037FD42A3D3E9002300F080FB32463B463E
:1056100000F02EFD3FA3D3E9002300F075FB3246D6
:105620003B4600F025FD3DA3D3E9002300F06EFBCF
:10563000CDE90001BAF1000F37D000222E4B51EC1A
:10564000180B00F015FDDDE9002382468B4640462D
:10565000494600F00DFD02460B465046594600F003
:1056600053FB32463B4600F003FD53EC182B00F091
:105670004BFB1FA3D3E9002306460F46404649468D
:1056800000F0F6FC02460B463046394600F03EFB81
:1056900002460B462046294600F036FB41EC100B33
:1056A00003B0BDEC028BBDE8F08F02460B463046DE
:1056B000394600F0DDFC0EA3D3E9002300F024FB03
:1056C00042464B4600F0D4FC22462B4600F01EFB1F
:1056D00041EC100B03B0BDEC028BBDE8F08F45EC44
:1056E000104B03B0BDEC028BBDE8F08FAFF3008030
:1056F000495555555555C53F0000E03F7CD5CF5A1B
:105700003AD9E53DEB9C2B8AE6E55A3E7DFEB15742
:10571000E31DC73ED561C119A0012A3FA6F81011AB
:105720001111813FFFFFFFFF2DE9F84F55EC104BA2
:10573000D14B25F000469E42AB4610DDCF4B9E423A
:1057400000F3B28000F0AD80BBF1000F40F3FD80AC
:10575000ADA5D5E9004545EC104BBDE8F88FC84B29
:105760009E4200F3C080A3F1DE739E4240F3A88006
:105770004FF0FF3A22462B462046294600F078FC9F
:1057800002460B468046894600F072FCA0A3D3E98E
:10579000002306460F4600F06BFC9FA3D3E90023CD
:1057A00000F0B4FA32463B4600F062FC9CA3D3E919
:1057B000002300F0ABFA32463B4600F059FC9AA3B6
:1057C000D3E9002300F0A2FA32463B4600F050FC39
:1057D00097A3D3E9002300F099FA32463B4600F044
:1057E00047FC95A3D3E9002300F090FA42464B46CC
:1057F00000F03EFC92A3D3E9002380468946304660
:10580000394600F035FC90A3D3E9002300F07CFA80
:1058100032463B4600F02CFC8DA3D3E9002300F078
:1058200073FA32463B4600F023FC8BA3D3E90023F6
:1058300000F06AFA32463B4600F01AFC88A3D3E92E
:10584000002300F061FA32463B4600F011FCBAF149
:10585000FF3F02460B467CD04046494600F056FAD0
:1058600022462B4600F004FC864E874B4FEACA0ABC
:1058700056449A44DAE9002300F046FA22462B46C1
:1058800000F042FA02460B46D6E9000100F03CFA6D
:10589000BBF1000F52DB04460D4645EC104BBDE852
:1058A000F88F002C3FF450AF22462B462046294665
:1058B00000F02CFA04460D4645EC104BBDE8F88F7D
:1058C00069A3D3E9002310EE100A294600F01EFA5E
:1058D00000226E4B00F05CFE00283FF449AF45EC1F
:1058E000104BBDE8F88F00F0DBF8694B9E4255EC99
:1058F000104B3FDCA3F550239E4268DC10EE102ACB
:1059000010EE100A2B46294600F000FA00225F4BE9
:1059100000F0FAF9002206460F464FF08043204679
:10592000294600F0F3F902460B463046394600F0AE
:10593000C9FC4FF0000A04460D461BE7044601F17E
:10594000004545EC104BBDE8F88F49A5D5E9004569
:10595000B2E74046494600F0D9F922462B4600F00E
:1059600087FB02460B462046294600F0CDF9044647
:105970000D46A1E7474B9E421DDC10EE100A0022A7
:10598000454B294600F0C0F9002206460F46424B1F
:105990002046294600F06CFB00223C4B00F0B6F993
:1059A00002460B463046394600F08CFC4FF0020AA6
:1059B00004460D46DEE62B4610EE102A002037493D
:1059C00000F080FC4FF0030A04460D46D2E610EECC
:1059D000100A00222D4B294600F096F900220646B7
:1059E0000F462A4B2046294600F090F902460B4606
:1059F0003046394600F066FC4FF0010A04460D4679
:105A0000B8E600BFAFF30080182D4454FB21F93FE6
:105A100011DA22E33AAD903FEB0D76244B7BA93FA0
:105A2000513DD0A0660DB13F6E204CC5CD45B73F6E
:105A3000FF8300922449C23F0D5555555555D53F1A
:105A40002F6C6A2C44B4A2BF9AFDDE522DDEAD3F0E
:105A50006D9A74AFF2B0B33F711623FEC671BC3FAE
:105A6000C4EB98999999C93F9C7500883CE4377EAE
:105A7000182D4454FB21F9BFFFFF0F440000F07FB5
:105A8000FFFFDB3FD0740000B07400000000F03F67
:105A9000FFFFF23FFF7F03400000F83F0000F0BF30
:105AA00053EC102B23F0004343EC102B704700BF46
:105AB00051EC100BC1F30A532DE9F041A3F2FF356D
:105AC000132D0C460F4610EE106A1DDC002D43DB33
:105AD0003D4B43FA05F801EA0803034319D038A304
