:10000000F8FF0220990100001D170000D51600001E
:10001000D5160000D5160000D5160000D516000034
:10002000D5160000D5160000D51600001D170000DB
:100030001D170000D5160000712C0000752C000063
:100040001D1700001D1700001D1700001D170000E0
:100050001D1700001D1700001D1700001D170000D0
:100060001D1700001D1700001D1700001D170000C0
:100070001D1700001D1700001D1700001D170000B0
:100080001D1700001D1700001D1700001D170000A0
:100090001D1700001D1700001D1700001D17000090
:1000A000111300001D1300001D1700001D17000094
:1000B0001D1700001D1700001D1700001D17000070
:1000C0001D1700001D1700001D1700001D17000060
:1000D0001D1700001D1700001D1700001D17000050
:1000E0001D1700001D1700001D1700001D17000040
:1000F0001D1700001D1700001D1700001D17000030
:100100001D1700001D1700001D1700001D1700001F
:100110007D080000251C00001D1700001D170000B1
:100120001D1700001D1700001D1700001D170000FF
:100130001D1700001D1700001D1700001D170000EF
:100140001D1700001D1700001D1700001D170000DF
:100150001D1700001D1700001D1700001D170000CF
:100160001D1700001D170000291300001D170000B7
:100170001D1700001D1700001D1700001D170000AF
:100180001D1700001D1700001D1700001D1700009F
:100190001D1700001D170000584B4CF2205210B5DF
:1001A0001A804DF628121A8000BF00BF01F0BAFA7B
:1001B000534B4FF030621A60524A9A60524ADA60EA
:1001C000524B4FF470021A60514A136813F4807353
:1001D00004D150490B604FF4A85313604E4B1A786A
:1001E000110703D51A7842F008021A704B4B4C499C
:1001F0002A221A704B4A4C4B8B4204D252F8040FFD
:1002000043F8040BF8E7494B494900228B4202D2DC
:1002100043F8042BFAE74749474A002352F82300E2
:1002200041F823000133662BF8D1444B444A802126
:1002300003F8011B9342FBD1424B3E4A1A60424BEA
:100240008A221A70A3F5805324225A70A0221A70B1
:100250009A799207FCD59A79D406FCD43B4A9379D3
:1002600003F00C03082B394BF9D103221A714622F3
:100270005A719A799006FCD5344A9179334B4906E4
:10028000FBD5334A4FF08271116009215160202261
:100290001A709A7902F00C020C2AFAD12D4B2E4AD0
:1002A0001A602E4B2E4A1A6000225A60072243F829
:1002B000042C2C4AC3F80C2D62B601F045FB154BFB
:1002C0001B68DA0705D5284801F0D2FA274B284ADF
:1002D0001A60284B1B785B0609D5244C244B2268F6
:1002E0009A4204D1204801F0C3FA0023236003F0AE
:1002F0002FFA01F01DFA01F04BF9FEE70E20054040
:1003000030800440823F04000100002B88ED00E0B3
:1003100010D0034014D0034002D0074000E0074053
:100320003C11FF1FD4430000F806FF1F4011FF1FC0
:10033000D013FF1F0002FF1F0000000000E400E0D8
:1003400056E400E008ED00E00050064000400640A2
:100350004480044004800440C010050014E000E024
:10036000BFD40100000020204A09735F1CE0034055
:10037000A5C3945A00F00740FFFFFFFFFFFFFFFFF8
:10038000FFFFFFFFFFFFFFFFFFFFFFFFFFFFFFFF7D
:10039000FFFFFFFFFFFFFFFFFFFFFFFFFFFFFFFF6D
:1003A000FFFFFFFFFFFFFFFFFFFFFFFFFFFFFFFF5D
:1003B000FFFFFFFFFFFFFFFFFFFFFFFFFFFFFFFF4D
:1003C000FFFFFFFFFFFFFFFFFFFFFFFFFFFFFFFF3D
:1003D000FFFFFFFFFFFFFFFFFFFFFFFFFFFFFFFF2D
:1003E000FFFFFFFFFFFFFFFFFFFFFFFFFFFFFFFF1D
:1003F000FFFFFFFFFFFFFFFFFFFFFFFFFFFFFFFF0D
:10040000FFFFFFFFFFFFFFFFFFFFFFFFDEF9FFFF23
:1004100010B5054C237833B9044B13B10448AFF33E
:1004200000800123237010BD4011FF1F0000000059
:10043000D8430000084B10B51BB108490848AFF37A
:1004400000800848036803B910BD074B002BFBD0A0
:10045000BDE81040184700BF000000004411FF1F16
:10046000D84300003C11FF1F0000000038B5084CC5
:1004700001600546204600F081FC2046222100F064
:10048000C7FC2046212100F0F5FC284638BD00BFFE
:100490006807FF1FF8B5054604460822012315F832
:1004A000031B354800F026FE334A04F10B071046C3
:1004B00092F8383092F83910C618994203F10103C6
:1004C0008ABF80F83830FF23337E05F8013FBD42F4
:1004D000EED1A27AE37AC2F34000C2F38007C2F3FE
:1004E000C006C2F30015E073C2F3401002F0010130
:1004F00027746674C2F3801703F00106D209A5744D
:10050000E074C3F34005C3F38000C3F3C00E277546
:100510006275C3F30017A675E575C3F34016C3F300
:1005200080152076DB0904F135000022A776E676F7
:1005300025776377A17384F819E00546174604F11F
:100540000E0604F1220310F8014F0CB901290AD05C
:100550000132102A1F7005F8011F03F101030AD0B0
:1005600016F8011FEFE70132102A197005F8011F74
:1005700003F10103F4D1F8BD6807FF1FFFFFFFFF80
:100580002DE9F043284C97B0204600F0F7FB2046B9
:10059000222100F03DFC2046212100F06BFC0121CE
:1005A0000D2001F07DF914AC01210D2001F072F94C
:1005B00012AD06940BAC1D4B059504940AAD0DF1DC
:1005C00023040FF25C09D9E9008919490395002237
:1005D0000DF122050294002010AC8DE83000CDE929
:1005E0000C23CDE90E23CDE91423CDE9120100241B
:1005F00002274FF4487640F634050EAB0CAA09A941
:100600000C480997CDE910898DF822408DF82340D8
:100610000A960B9500F0AAF917B0BDE8F08300BF69
:1006200000000000004054C06807FF1F00805640D3
:10063000008056C0A811FF1F2DE970431C4C1D4DB2
:100640001D4E86B02046FFF725FFA479284600F00E
:1006500019FB23B203EB4300C0EB001003EB800057
:1006600000125A3802F010FD0FF23C09D9E9008956
:1006700006AB012203F8112DCDE9020104AA02A95B
:100680002846CDE9048900F003FA284600F028FA4C
:100690000221304600F0A0FE304600F04BFE06B0CE
:1006A000BDE87083AFF300800000000000C072401E
:1006B0005C11FF1FA811FF1F4408FF1FFFFFFFFF72
:1006C0002DE9D043204C2148214F7421FFF7CEFE65
:1006D000204600F041F81F4B17A1D1E9000100228C
:1006E0000FF25C09D9E90089C4E904230022002340
:1006F000C4E90223C4E90C23C4E90E23C4E912238C
:10070000C4E91423C4E91823C4E91A2300260023EA
:10071000C4E9100140F6C4124FF4FA71C4E9068925
:10072000C4E90867A165E265A36284F8703084F8C3
:100730007130BDE8D08300BF0000000000388FC0DA
:100740000000000000E07040A811FF1F5C11FF1FB7
:100750000000F03F0000E03F70B40F4E00233588EA
:1007600003710C21012215424FEA42040AD0037999
:10077000013903F10103A2B20371F4D1FF23037124
:1007800070BC704705490B88154323EA0202358087
:100790000A8070BC704700BF2812FF1F2412FF1F81
:1007A000F8B504790B2C01D92046F8BD0646CDB228
:1007B000284601211F46144601F072F81B48327981
:1007C0001B4B01889D54012393400B43194903801F
:1007D0000B681948C4EB0414C7EB071745F2E4751E
:1007E00013F480033480778020F8125016D10A6801
:1007F000124D1348DFF85CE0124F134C42F48002B4
:100800000A604FF6FF722A601049CEF8003042F6B7
:10081000A27520223B600560016022700C4B4FF4F2
:1008200080121A6034792046F8BD00BF2412FF1FE1
:100830004412FF1F3C8004402C12FF1F0460034041
:10084000006003400C60034034E400E0A22F01008C
:1008500004E100E0086003400388C1EB0111994204
:1008600003DB43888B42A8BF0B4602790B2A9CBF4F
:10087000014921F8123070472C12FF1FF8B5324E93
:10088000324D96F900202B881341DC0753D4304CAD
:1008900094F900300B2B0EDC298841FA03F2D007C3
:1008A00002D52EE0D2072BD401335BB20C2B41FAD8
:1008B00003F2F7D1237027480268C2F5922101F5AF
:1008C000787140F2DB53994217DD4EF660238B427C
:1008D000A8BF0B461A44204902600E681F4D204AEB
:1008E0001C4F334442F6A3760B602E60036893429C
:1008F00002D900233B602370F8BD40F2DC53E9E7E6
:100900002370184A0121D05C00F0C4FF94F9003034
:10091000104A1549104831F81350116833702944B2
:10092000116002680D492A44013342F6A375026042
:100930000D602370F8BD0B4B0021985C00F0AAFFFE
:100940000C233370A3E700BFF806FF1F2412FF1F1C
:100950002612FF1F2012FF1F0C600340006003409F
:10096000DF9304004412FF1F2C12FF1F2DE9F04FEC
:1009700083B080460F9F0968129D109E14469946C9
:10098000826DC36DFFF70CFF3868C8F858003668F1
:10099000C8F85C60301A02F077FB119B8246D3E9FD
:1009A00000238B46D5E9000102F020FA02460B46EF
:1009B0005046594602F0F8FC82468B463046C8E95C
:1009C00018AB02F061FBD5E9002306460F465046FE
:1009D000594602F0BFFB02460B463046394602F04C
:1009E00005FA06460F46C8E91A670C9BD3E90001D1
:1009F00002F060FED9E90023C8E90C230D9BD4E97D
:100A000000451B7888F82C30C8E90E45C8F8280046
:100A100002F03AFB22462B4602F0EAF902460B4668
:100A2000C8E91023C8E912235046594602F092FB48
:100A300032463B4602F0DCF90022002304460D4614
:100A400002F00EFEB0B100220F4B2046294602F004
:100A5000CFF902F02FFE01464046FFF7FDFE0B4B9B
:100A60001B680193019802F0FFFAC8E9020103B084
:100A7000BDE8F08F0022044B2046294602F0B6F96B
:100A800002F018FE0146E7E70000E03F5412FF1FA6
:100A9000F8B50446D1E90067002084F871001B789E
:100AA00084F870301546304639460BA3D3E900234D
:100AB00002F0E0FD60B1A06A02F0E6FA32463B4681
:100AC00002F096F9C4E91001D5E90023C4E9142322
:100AD000F8BD00BFAFF300800000000000308FC001
:100AE00010B50446806A02F0CFFA02460B46D4E9FC
:100AF000120102F07BF941EC100B10BDFFFFFFFF6C
:100B00002DE9F047D0E9104582B082465BA3D3E9D6
:100B100000232046294602F0ADFD00285DD0DAE929
:100B2000126722462B463046394602F05FF9002212
:100B300000238046894602F09DFD00287AD0424677
:100B40004B46DAE9040102F095FD002848D1204621
:100B500032463B46294602F049F90022002302F0C2
:100B60006BFD0024002869D13F4D404B0022DAE99B
:100B7000080102F019FC22462B4602F0EBFADAE9F2
:100B8000142302F0E7FA32463B4602F031F9DAE983
:100B90001823CAE9120102F0DDFADAE91A2302F099
:100BA00027F90022002304460D4602F059FD0028D3
:100BB00046D000222E4B2046294602F019F902F0B9
:100BC00079FD01465046FFF747FE2A4B1B6800930C
:100BD000009802F049FACAE9020102B0BDE8F087C4
:100BE000DAE918232046294602F0B4FADAE91A2392
:100BF00002F0FEF80022002306460F4602F030FD08
:100C000040B300221A4B3046394602F0F1F802F0A8
:100C100051FD01465046CAE91245FFF71DFE154B2E
:100C20001B680193019802F01FFACAE9020102B0A1
:100C3000BDE8F087424609F1004382E70E4D94E794
:100C400000220B4B2046294602F0D0F802F032FD7C
:100C50000146B7E70022064B3046394602F0C6F897
:100C600002F028FD0146D5E70000F03F00408F402C
:100C70000000E03F5412FF1F0000F0BF0000000022
:100C800000308FC090F87130E3B910B50E4B82B0D0
:100C90001B6801930446019802F0E6F9D4E90223A7
:100CA00002F0A4F8D4E9082302F0E4FC20B12046C5
:100CB000FFF726FF02B010BD94F87030002BF6D07D
:100CC00002B010BD704700BF5412FF1F00207047D4
:100CD00090F8392090F83800101A704790F83830A2
:100CE00090F839209A4205D95A1C034480F83820DC
:100CF000187E70474FF0FF30704700BF90F83830D3
:100D000090F839209A4286BF1B18187E4FF0FF30AA
:100D1000704700BF704700BF38B50546B0F85E00A9
:100D200090B195F85D301446C3F1210294420CD87D
:100D300005F13B001844224600F032FC95F85D3086
:100D4000234485F85D30204638BD012014462871C3
:100D5000EEE700BFB0F85E306BB190F85D30202B4D
:100D600007D8C218013380F85D30012082F83B10AB
:100D70007047012303710020704700BF00234269C0
:100D800080F8383080F8393080F85C3080F85D3099
:100D900080F85E3080F85F3006CA30B40D680469B0
:100DA00043662A4383660A60A370426990F8613003
:100DB0001649146813441D7A5B7B01EBC5051B02C1
:100DC0006D6803F4E06343F064032B6090F86230D5
:100DD00013449D7CDB7D01EBC5011B02496803F4D4
:100DE000E06343F064030B6021685368194205D047
:100DF00003692C225A70036904229A710369202224
:100E00005A71036980229A7030BC704738410000E3
:100E100070B490F8613045692B441E7A8E420AD036
:100E2000EC1D002314F8012FFF2A04D08A4204D0BD
:100E30000133052BF6D170BC704795E806000968B0
:100E4000114211D00A4901EBC6061D447268002404
:100E500014602C7A6A7B01EBC401120202F4E06296
:100E6000496842F064020A6080F86130E3E700BF3D
:100E70003841000070B490F8623045692B449E7C84
:100E80008E420BD005F11104002314F8012FFF2A24
:100E900004D08A4204D00133052BF6D170BC7047D0
:100EA00095E806000968114211D00A4901EBC6060F
:100EB0001D44726800241460AC7CEA7D01EBC4011F
:100EC000120202F4E062496842F064020A6080F8AB
:100ED0006230E3E73841000038B50269D478E4B203
:100EE000E106054624D51023D37063061FD504F010
:100EF000040404F0FF03002C5AD042496A6E002318
:100F00000B7085F85D30002A66D0904795F85D300B
:100F1000002B61D02B69D0229A702B6995F83B2069
:100F20001A712B69012285F85C200222DA7038BD23
:100F300004F0400303F0FF00002BD8D19379DBB21B
:100F400003F0600160294ED0937803F0100303F0A2
:100F5000FF01B3B114F0010437D195F85C3095F876
:100F60005D1099424BD9591C2B4485F85C1093F8BD
:100F70003B3013712B69D0229A702B690222DA70F0
:100F8000D5E785F86010937943F0200393712B69BE
:100F900095F839101A791F29D2B2C6D819480078A5
:100FA0000028C2D06818013185F839100276BCE7F4
:100FB0002A6985F83930C02393702B69114A197951
:100FC000012111700222DA70B1E7C02393702B69FE
:100FD0001A790222DA70AAE70122002385F85D203F
:100FE00085F83B3096E703F0DF039371AB6E23B1D6
:100FF00085F8380095F8390098472A69A4E71471F4
:10100000B8E700BF5012FF1F2DE9F047374FDFF858
:10101000E0903B68026982B006460093DDF80080EC
:101020000021C825D3789B065BD53B680193019BC3
:10103000C8EB03030F2BF5D949B1102BF2D00020D8
:101040009070336980229A7002B0BDE8F0877269AF
:1010500096F8613013440521187A00F021FC72697A
:1010600096F861301344012193F812A0504600F025
:1010700017FC09240021504600F00CFC2B46013BD4
:10108000FDD10121504600F005FC2B46013BFDD16E
:10109000013CEFD1706996F8611001444FF4C872B9
:1010A0000C7A4B7B09EBC4011B02496803F4E06333
:1010B00043F064030B6096F862300344997CDB7D57
:1010C00009EBC1011B02496803F4E06343F06403C8
:1010D0000B60013AFDD13269D3789B064FF00101D4
:1010E000A3D4012002B0BDE8F08700BF5412FF1F57
:1010F000384100002DE9F04106690025122780F8EB
:10110000385080F83950F770D0F810C09CF802E0E1
:101110000EF0200E88B00446884615461E46BEF1E5
:10112000000F49D0B4238CF80230784B21691A683B
:101130000092DDF800E006E01A6801920198CEEB1B
:101140000000042830D8C87800F0200000F0FF0725
:101150000028F1D04FEA480242F00102D2B20A71EF
:101160001A680292DDF808E0206906E01A68039226
:101170000399CEEB010105292AD8C17801F00201BB
:1011800001F0FF070029F1D04FF0020C80F803C0F6
:101190002269D17811F0110722D12DBB002E0CBF8E
:1011A000A0238023937003E08F70236980229A70BC
:1011B000384608B0BDE8F0810EF0FF07FFF724FFC6
:1011C0000028F5D0236984F85F70B0229A70ACE7EC
:1011D00087702369802238469A7008B0BDE8F08194
:1011E000802393700027E3E7012D75D0A021917033
:1011F00021690A79BE4667464FF0A80C1A68049226
:10120000049805E01A680592059A121A052A4AD828
:10121000CA7802F0020202F0FF08002AF2D0CF7072
:101220002169CA78D2B212F0100F08465AD192063C
:1012300058D5013DEDB2012D49D0BEF11F0F3BD96C
:101240000A79012DDAD11A680692069D05E01A681E
:101250000792079A521B052A46D8C27802F002026A
:1012600002F0FF01002AF2D00223C3702269D37872
:10127000DBB2D9063AD49B0634D5B023BEF11F0F9A
:1012800093703FD8226904EB0E0312791A760EF19F
:10129000010E5FFA8EFE16B1236980229A7084F8DF
:1012A00039E0774684E781F80280236980229A70CA
:1012B000774684F839E07BE704EB0E0291F804806E
:1012C00082F818800EF1010E5FFA8EFEB9E781F800
:1012D00002C021690846B0E7A82191702069BE4686
:1012E0000279B0E7774663E78170DEE71021C82313
:1012F000D170013BFDD12269937803F0F703774663
:10130000937055E723691B79C5E700BF5412FF1F8F
:101310000148FFF7E1BD00BF6807FF1F0148FFF765
:10132000DBBD00BFD407FF1F0148FFF7D5BD00BFDD
:10133000FC06FF1F00B5064A036812885B6883B08D
:1013400001A9ADF804200222984703B05DF804FB20
:1013500028410000F0B507468BB0002A33D0012A9F
:1013600008BF0A2251B3212400E0F4B2B1FBF2F528
:1013700002FB1511C8B2092900F1300198BFC8B2AB
:101380000AA988BF3730214488BFC0B201F8240CB5
:10139000661E2946002DE8D133B1013CE4B20AAB08
:1013A00023442D2203F8242C3B6801AA11195B6801
:1013B0003846C4F1220298470BB0F0BD30228DF8B8
:1013C00025202124E8E70368C9B21B6898470BB0C1
:1013D000F0BD00BFFFFFFFFF2DE9F04357EC106B9E
:1013E00085B005460C4610EE102A3B4610EE100A5A
:1013F000394602F049F9002840F0B28027F0004950
:10140000304649464FF0FF32594B02F03DF990B952
:10141000304649464FF0FF32554B02F017F950B9AC
:101420002B6854495B68284603229847804640460B
:1014300005B0BDE8F0834FF060424F4B304639466F
:1014400002F018F9002872D14FF060424B4B304641
:10145000394602F0F1F8002869D100220023304615
:10146000394602F0E9F8002864D18146002C67D0A3
:10147000434900204FF000083BA3D3E9002308F1C3
:10148000010801F067FE5FFA88F39C42F4D8024637
:101490000B463046394601F0ABFC0F46064602F0DB
:1014A00031F9804601F0E0FD02460B4630463946F0
:1014B00001F09CFC4B4606460F460A224146284650
:1014C000FFF748FF0F2C28BF0F2404F101092E233A
:1014D00080465FFA89F98DF8003001240022294BFB
:1014E0003046394601F036FE0F46064602F00AF94C
:1014F00004AB2344C0B200F1300203F8102C01F019
:10150000C3FD02460B463046394601F06FFC0134FC
:10151000E4B24C4506460F46E0D12B6822465B6894
:10152000284669469847404605B0BDE8F0832B68D9
:10153000154977E707F100431F464FF0010995E78A
:1015400000220F4B3046394601F052FC02F0DAF827
:101550004B4601460A222846FFF7FCFE804666E716
:101560002B680A495EE700BF000000A09999B93FC7
:10157000FFFFEF7F34410000FFFFEF41FFFFEFC1AE
:101580000000E03F00002440304100002C410000FA
:1015900008B5FEF7F5FFFFF74FF801F0D1FAFAE7CB
:1015A000844641EA000313F003036DD1403A41D36E
:1015B00051F8043B40F8043B51F8043B40F8043B2D
:1015C00051F8043B40F8043B51F8043B40F8043B1D
:1015D00051F8043B40F8043B51F8043B40F8043B0D
:1015E00051F8043B40F8043B51F8043B40F8043BFD
:1015F00051F8043B40F8043B51F8043B40F8043BED
:1016000051F8043B40F8043B51F8043B40F8043BDC
:1016100051F8043B40F8043B51F8043B40F8043BCC
:1016200051F8043B40F8043B51F8043B40F8043BBC
:10163000403ABDD2303211D351F8043B40F8043B5C
:1016400051F8043B40F8043B51F8043B40F8043B9C
:1016500051F8043B40F8043B103AEDD20C3205D36C
:1016600051F8043B40F8043B043AF9D2043208D064
:10167000D2071CBF11F8013B00F8013B01D30B88D6
:1016800003806046704700BF082A13D38B078DD0B4
:1016900010F003038AD0C3F10403D21ADB071CBF86
:1016A00011F8013B00F8013B80D331F8023B20F8F0
:1016B000023B7BE7043AD9D3013A11F8013B00F829
:1016C000013BF9D20B7803704B7843708B788370B1
:1016D0006046704708B5104C08E0236859050DD4E2
:1016E00023681A050FD42368DB0411D42368580338
:1016F000F3D500F097FA23685905F1D500F00EF8FC
:1017000023681A05EFD500F009F82368DB04EDD54E
:1017100000F004F8EAE700BF3480044008B5FFF7A2
:10172000D9FF00BF014B10221A80704700200540EE
:10173000704700BF094908B50B6830B16A461844C4
:10174000A2F50052904202D20860184608BD01F08E
:10175000F9FF0C2303604FF0FF3008BD4008FF1F66
:10176000F0B44D1E2E46002400E00134B0FBF2F32D
:1017700002FB1300092800F130078ABF3730F8B2A6
:10178000C0B206F8010F1846002BEED10A195370AB
:101790004CB1107815F8016F28700133E01A8342BC
:1017A00002F80169F5DB0846F0BC704710B4114B34
:1017B00053F8302092F8804234B1012379B182F895
:1017C00080305DF8044B704703EBC0035B681A6818
:1017D00051B922F002021A605DF8044B704782F89A
:1017E00000315DF8044B704742F003021A605DF867
:1017F000044B7047384100001C4A02EBC00301292A
:101800005B6811D004291BD052F83000002280F808
:10181000802229B1022920D0032922D01A607047E2
:101820004FF480721A60704752F830004FF4A27281
:1018300080F880121A601A6822F020021A6070473D
:1018400052F830104FF4A272012081F880021A6021
:101850001A6842F020021A60704740F203121A60C0
:1018600070474FF481721A60704700BF3841000022
:1018700030B4054B054D064C002210211A602A6039
:101880002060196030BC704714D0034004D003407E
:1018900000D003403F2801D8FFF788BF704700BF42
:1018A0003F2801D8FFF7A8BF704700BF2DE9F843D4
:1018B000054672B6204F214B214A1B683C681268CE
:1018C00062B6520102D5322B88BF013495B3C3F5FD
:1018D000EA331C4EDFF86490DFF86480BF334FF4C6
:1018E0007A72A6FB031302FB04F404EB931472B6A2
:1018F000D9F800103A68D8F800E062B6C1F5EA33CA
:10190000BF33A6FB03031EF0806FC4EB93134FF4A9
:101910007A7002D0322988BF013200FB0233B3F55E
:101920007A7F04D3013D05D004F57A74DFE701F036
:1019300007F9DCE7BDE8F8835412FF1F18E000E068
:1019400004ED00E089888888F8B53E4B3E49DFF811
:1019500018C13E4E3E4ADFF814E13E4D3E4C3F4F2B
:101960004FF0006018604FF0805018604FF000504A
:1019700018604FF0804018604FF000401860002061
:10198000086028234EF6FF71CCF80010CEF8003026
:1019900033600EF5012E13602B60236005F50025E2
:1019A0003B6004F50024B36207F50027936206F557
:1019B000012602F501220EF1100E05F6E87504F677
:1019C000E87407F57F67103220362B602360CEF86D
:1019D00000303B6013603360214EBB61936109228C
:1019E0003260A7F5002706F58056203F083638609C
:1019F0003160BB60F36047F8042C06F5FD2607F55F
:101A0000FE2706F2FC76043730603960B360FB6075
:101A100046F8042C0836C7F8FC0F06F6FC76114889
:101A200031602B602360026001F02CF91920FFF770
:101A30003DFF00F05DFE40F21310BDE8F840FFF7F7
:101A400035BF00BF04E100E0048003401480034080
:101A50001C800340248003402C80034034800340DA
:101A60000080034000900B40088003400C8003403E
:101A7000431E032B14D872B60A4951F8230068B1EB
:101A800070B4094C058834F81320466841F8236087
:101A9000521B24F8132062B670BC704762B67047C0
:101AA00000207047B012FF1FB813FF1F0138032832
:101AB0000BD872B6074B53F8203043B100205B6857
:101AC0000130002BFBD162B67047002070471846EA
:101AD000F9E700BF0413FF1F30B472B62B4A137826
:101AE0001D0706D52A4B196A002936D0996A0029A4
:101AF00041D053781C0706D5254B196C00293ED0E0
:101B0000996C002939D09378190705D5204B196EA7
:101B1000002936D0996E89B1D3781B0707D51C4BA5
:101B2000D3F880207AB3D3F8882011213AB162B675
:101B3000184B00221A7030BC00F072BE0D21154CFB
:101B4000154D227843F8315003EBC1030830013AB8
:101B50005860227062B630BC704704220D4C0F4DA5
:101B6000217843F8325003EBC20308304A1E586014
:101B7000227062B6EFE70521E1E70921DFE70822DD
:101B8000ECE70C22EAE71022E8E700BF6043000020
:101B90000000FF1F2D13FF1FC800400088004000F9
:101BA000431E032B1DD81B4A400140F0100030B4E7
:101BB000104472B6184CE25C032A1BD8DFE802F02E
:101BC0000212151703220D88E25410F0080F14BFFB
:101BD000C823882343EA054308310360416062B6A5
:101BE00030BC704708300222EDE70522EBE70830F1
:101BF0000422E8E7094A52F8230038B1084A52F8AB
:101C00002300416042F8231062B6E9E742F823104E
:101C1000034AF7E70000FF1F3C13FF1F0413FF1FD9
:101C20001413FF1F2DE9F04FDFF818B3DFF818A3E6
:101C300087B044E0AE4F4FEA930807EBC809013E76
:101C4000D9F8042003F00803F6B2A2F1080003F06B
:101C5000FF04002B40F0048157F838301B0C99B278
:101C600022F8081C002B00F0F280A24B22F8064C50
:101C700042F8044C53F82620002A00F06E819E4D55
:101C800055F8263058609D4C45F8260034F816303B
:101C9000194424F8161000F0A3FD002800F0568126
:101CA000974A984B19F0080F00F1080018BF134627
:101CB000C9F8040047F8383008238BF800309BF847
:101CC0000040E4B261071BD58F4B1B78ABB18F4945
:101CD0000A7802F0FF032AB1013BDBB20B70002B44
:101CE00000F0EF848A490A7802F0FF032AB1013B31
:101CF000DBB20B70002B00F0F78004238BF8003070
:101D000004F0080303F0FF02002B00F0D6809AF8DD
:101D10000030DBB21E098DD19C08DFF8D49159F850
:101D2000342009EBC401C2F38302013A49680C2A4A
:101D30007ED8DFE802F081817D7D7D7D7D7D477DE0
:101D40007D7D07000868734D4A68734F734E2860A5
:101D500081B240F281606A4B6A604FF0010E00224E
:101D6000814249F834303A60C9F81020C9F8182087
:101D700086F800E05E4C00F2F480B1F5D06F80F0A0
:101D80007883B1F5817F00F0628300F28782802939
:101D900000F0EC82822940F01E83A98801F07F01C7
:101DA000042900F218835E485E4C890008442270C2
:101DB00062700278930740F1798384F800E04FF075
:101DC000020ED8E2544F3A6842B3574B534E57492C
:101DD000188834780D784028864645F0020828BFD8
:101DE0004FF0400E002C84F001043470CEEB000064
:101DF0000CBF8824C82409EBC80680B285F0010511
:101E000044EA0E447260188049F8384072440D70FC
:101E100018B9BEF1400F18BF00223A603D4B1A8836
:101E2000B2F5A06F04D100219A785970404B1A7016
:101E3000404A012313703FE7364A158842F22100D9
:101E4000854200F0FF812E4A49F83420F0E72C4A01
:101E50002C4B19F0080F18BF134647F838302BE702
:101E600000F0DEFC344A354952F82630002B00F0F1
:101E7000B68158688C5D42F8260003F10802C9F863
:101E80000420032C05D8DFE804F0120F1502042209
:101E90008A551A8819F0080F0CBF8823C82343EA13
:101EA000024347F8383007E702228A55F1E7032258
:101EB0008A55EEE705228A55EBE7E00700F11A8222
:101EC000210600F14982A20706D51D4A1D49137853
:101ED0000220DBB213700870E30602D5194B102202
:101EE0001A7007B0BDE8F08F00F006FE05E700BFEE
:101EF0000000FF1FB012FF1F5C12FF1FB813FF1F6F
:101F0000C8004000880040003813FF1FC112FF1FA7
:101F10004013FF1F2413FF1F5812FF1FC012FF1F83
:101F2000C02007403013FF1F6C12FF1F2C13FF1F30
:101F300098200740942007400413FF1F3C13FF1F05
:101F4000882007408020074090200740AB4A47F890
:101F50003800137801331370AEE643F82600A84D1D
:101F600091E642F22100814200F0358100F2AF811A
:101F7000B1F5086F00F01B82B1F5106F40F02B82B5
:101F8000226AA049A8780870120600F14583D9F8A2
:101F900028209D49130600F13A83D9F830209A4948
:101FA000150600F12F83D9F838209749140600F15F
:101FB0002483D9F840209449100600F11983D9F8F8
:101FC00048209149120600F10E83D9F850208E491D
:101FD000130600F10383D9F858208B49150600F148
:101FE000F882D9F860208849140600F12983D9F8CD
:101FF00068208549100600F11E83D9F870208249B7
:10200000120600F11383D9F878207F49130600F1F6
:102010000883D9F880207C49150600F11C83D9F883
:1020200088207949140600F11083D9F89020764968
:10203000100600F1C882D9F898207349120600F101
:10204000BC827248724A7349019073486C4D734C5C
:102050000497002305960295804617460E461D46B6
:102060000394386828B1446800F0DAFB2046002C5D
:10207000F9D100233B60029B30681A46002342F8E6
:10208000253028B1446800F0CBFB2046002CF9D164
:1020900000223260019A98F800301146002241F87F
:1020A000042B039A0191023B4FF0000122F8151016
:1020B000032B09D8DFE813F04B0104004B010400A7
:1020C0004FF0010388F800300135042D07F10407B3
:1020D00006F1040608F10108C3D1514C514B227896
:1020E000464D049F059E002129701A70130700F1C8
:1020F0004F8262784C49DFF810810A7010074FF068
:102100000001C9F83010C9F8381000F12B82474996
:10211000A2780A700021C9F85010C9F858101107A8
:10212000DFF8E48000F1DC81E2784149364C0A7046
:1021300000211207C9F87010C9F8781000F1B981B0
:1021400033780193002183F00102C9F89010C9F897
:1021500098100020029080468446044635490D7848
:1021600045F0020E09EBCE030393019B002B039B6A
:102170005C600CBF8824C82444EA080385F001048D
:1021800049F83E3032700C70DFF87CE02A4BDFF803
:10219000A480002840F02681BCF1400F1BD144F000
:1021A000020C09EBCC03029CDFF85CE05C60002AC7
:1021B00040F02E81020442F088029DF804304EF86F
:1021C0003C20044433700D702346402803D1002086
:1021D0001A4A3B6010801A4A0123137028E68B5D6F
:1021E000032B00F22D8101A252F823F0B91C00004C
:1021F000B91C000043230000492300002D13FF1FDA
:102200005C12FF1F3813FF1F0000FF1F1413FF1F76
:10221000B012FF1F0413FF1F3C13FF1FB813FF1F53
:1022200060430000C4200740C8200740CC2007407E
:10223000D02007402C13FF1FC012FF1F6C12FF1F7E
:1022400094200740928892B9B14A0D784878157069
:1022500050708D78C8789570D07010680D791571B0
:1022600086284D7989795571917100F0A580A94929
:10227000A94E0A78307882F00105002842F0020267
:102280000D700CBF8821C82149F8321009EBC20239
:1022900080F00100002130705160D4E540F202323C
:1022A000914240F08D80A98801F07F01042900F25D
:1022B00092806A88002A40F08E809848CDF804E029
:1022C00089000844017841F00201017041E742F2BF
:1022D000212081427BD1A988002940F0E480904BE5
:1022E000904A9148AC781D681560CDF804E00A4624
:1022F00004702EE78D4B8E4886491A614FF0020E0E
:1023000080F800E0854F0A708A49196099608A4E0A
:102310008A4D8B4C9A610D213970FF213170DFF8A5
:1023200040E229702270874D874A8EF800109F275F
:10233000012406F8047C5D600470DA6007B0BDE833
:10234000F08F00238B55B7E401238B55B4E44FF095
:10235000000388F80030B7E67049784B80220D20E2
:1023600008701A70A2077FF5B7ADAEE5774C4FF055
:10237000020E22706270EA88724580F0A38165497E
:102380000D78402A944645F0020E28BF4FF0400CCD
:1023900004EB0C0309EBCE000293012344604FEAE7
:1023A0000C48CCEB020001930022C824E4E6684A02
:1023B000664C12782270DEE7664A0F21117056E7EC
:1023C000B1F5A06F07D1012300220193C1E642F2CB
:1023D00021329142F7D0514A0F231370544A0123FE
:1023E000137025E540287FF6DAAE44F002040EEBC8
:1023F000C401029E4E60BAB19DF80410564A19708D
:102400003346403888F8005040334EF83420DFE639
:102410009DF8043033700204029B0D7042F0C80234
:1024200003444EF83C20D0E69DF804101970029B3E
:10243000404A88F80050403840334EF83420C7E610
:1024400019F0080F0CBF022303238B5534E4A9882D
:1024500001F07F010429BED86A88002ABBD12F4829
:10246000CDF804E089000844017821F002010170F0
:102470006FE63A4A5468002CADD06888B5F804E09D
:1024800003E00C325468002CA5D013888342F8D1A5
:1024900053887345F5D1000A03280CBF94F800E077
:1024A000B2F808E067E7CDF804E052E64FF0020E1C
:1024B00061E700F095F9002800F0F18008301D4A2E
:1024C000C4F88400C4F8802000F08AF9002800F0E5
:1024D000E0800830204AC9F88C00C9F888202FE62F
:1024E00000F07EF9002800F0E6800830114AC8F8B4
:1024F0006400C8F8602000F073F9002800F0D5806F
:102500000830154AC9F86C00C9F868200CE600BF0D
:10251000C013FF1F2C13FF1FC012FF1FC020074056
:102520005412FF1FC813FF1F5013FF1F0000FF1F8F
:102530009420074088004000882007408020074002
:10254000982007407012FF1FC412FF1F3013FF1F97
:102550003813FF1FC112FF1FC80040006443000072
:102560008C20074000F03CF9002800F08C800830F7
:102570005D4AC8F84400C8F8402000F031F900284E
:102580007BD00830594AC9F84C00C9F84820BEE54C
:1025900000F026F900286AD00830534AC9F8240010
:1025A000C9F8202000F01CF900285AD008304F4A02
:1025B000C9F82C00C9F828209BE5D1F89C00083800
:1025C00000F02EF93DE5D1F89400083800F028F924
:1025D00031E5C86D083800F023F902E5486D083888
:1025E00000F01EF9F7E4C86C083800F019F9ECE4C3
:1025F000486C083800F014F9E1E4C86B083800F0C2
:102600000FF9D6E4486B083800F00AF9CBE4C86A41
:10261000083800F005F9C0E4606A083800F000F9F5
:10262000B5E4C86F083800F0FBF8F2E4486F0838EA
:1026300000F0F6F8E7E4C86E083800F0F1F8DCE4E2
:10264000486E083800F0ECF8D1E4D1F88C00083876
:1026500000F0E6F8E9E4D1F88400083800F0E0F88A
:10266000DDE42A78C9F8280001322A7041E52A7889
:10267000C9F8200001322A7094E72A78C9F8480086
:1026800001322A7043E52A78C8F8400001322A70E6
:1026900073E72A78C9F8880001322A7050E52A7851
:1026A000C4F8800001322A700EE72A78C9F8680061
:1026B00001322A7038E52A78C8F8600001322A70A1
:1026C00019E700BEBEF1400FF44628BF4FF0400CA2
:1026D00004EB0C0302930123CCEB0E004FEA0C48F1
:1026E000002201933AE500BF88004000C800400086
:1026F0002DE9F843244C00F037FB002204F1A00040
:1027000023461A605A60083383424FF00001F8D123
:102710001E481F4A0368DFF890E01E4F1E4D1F4EF3
:10272000DFF88880DFF888C0DFF8889043F48023E2
:10273000036013681A4843F040731360C4F307231F
:102740008EF80030C4F307433B70240EFF2302F5DC
:10275000C9222C7002F5847288F80030114D8CF873
:1027600000303370012389F8003070268EF8641031
:102770004FF40014102107F82C3C2E7004601170E7
:102780000EF1640EBDE8F8830000FF1F34800440A2
:1027900000D80040B0200740B42007401020074078
:1027A00004E100E035E400E09C2007408020074081
:1027B000882007409420074000F0A2B800F07AB8C3
:1027C00000F054B800F08EB800F06AB900F044B9D7
:1027D0000846114600F0B0B8084600F031B900BF15
:1027E00072B60D480268B2FA82F30B2B10DC4FF080
:1027F0000041D94022EA0102026062B6074803EBB9
:10280000C303DB00C2180021C1501046516070475D
:1028100062B60020704700BF5408FF1F9803FF1FD7
:102820000D4B0E4AC31AA2FB03231B090B2B0CD81A
:102830000B4A127852B972B60A484FF0004102684A
:1028400021FA03F31A43026062B67047064A12780F
:10285000002AF0D0FFF740B99803FF1F398EE33804
:102860002D13FF1F5408FF1F3813FF1F38B50F4DDE
:10287000286878B143880288C118013393420C7AE2
:1028800002D24380204638BDFFF7CAFF002320460E
:102890002B6038BD064B1B782BB10320FFF7E8F8FF
:1028A00028600028E6D14FF0FF3038BD4C13FF1FE1
:1028B0003813FF1F10B5094C206818B1438818441D
:1028C000007A10BD064B1B782BB10320FFF7D0F820
:1028D00020600028F2D14FF0FF3010BD4C13FF1FD5
:1028E0003813FF1F044B054A1B6890881BB11A88D8
:1028F0005B88D31A184470474C13FF1FB813FF1F8F
:102900000B4B1B789BB110B50A4C206848B1FFF700
:1029100087FF002303202360FFF7AAF830B1FFF7F9
:102920007FFF0320FFF7A4F80028F8D110BD7047FF
:102930003813FF1F4C13FF1F2DE9F04FDFF8F890FD
:1029400083B0012289F80020019169B3DFF8EC809F
:10295000364F019E8346D8F80000B0B3344D44880A
:10296000C4F14001B14228BF314604EB010E002200
:102970001FFA8EFE2A70761AA0F802E000F1080213
:1029800051B1013C224459441BF8014B02F8014F5C
:102990008B45F9D1B0F802E0BEF13F0F0BD8254AC4
:1029A00005211170002ED6D10198002389F800303E
:1029B00003B0BDE8F08F4022028001460420FFF7FB
:1029C000EFF80022C8F80020E9E73A782AB3184D5A
:1029D0004DF2E9044FF0010A07E0013C16D02A78D5
:1029E000A2B900F0ADF83A78BAB10420FFF75EF86A
:1029F0000728F2D889F800A0FFF7F2FEC8F8000017
:102A00000028ACD10C4B013C1870E8D101234FF0E9
:102A1000FF302B7003B0BDE8F08F00234FF0FF3084
:102A200089F8003003B0BDE8F08F00BF3813FF1FF6
:102A30004813FF1F4013FF1F4113FF1F4413FF1FC5
:102A400000B583B002AB012103F8010D1846FFF772
:102A500073FF03B05DF804FB38B50E4D0E4C2868CB
:102A60000123237028B1408800232370C0F1400067
:102A700038BD0A4B1B7813B90020207038BD0420E4
:102A8000FFF714F80728F7D8FFF7AAFE28600028F8
:102A9000E9D1F1E74413FF1F4113FF1F3813FF1F54
:102AA000F8B5114B1B788BB1104E114D34680127CE
:102AB0002F7064B10F4A6388002717702146238066
:102AC0000420FFF76DF8376000232B70F8BDFFF787
:102AD00087FE084B28B1014604201C70FFF760F800
:102AE000F2E71F70F0E700BF3813FF1F4413FF1F0A
:102AF0004113FF1F4013FF1F38B50E4B1B7873B9EE
:102B00000D4C216861B103F0FF054B880B80042058
:102B1000FFF746F8256038BD084B01221A7038BD12
:102B2000FFF75EFE0028F7D00146BDE838400420DC
:102B3000FFF736B84113FF1F4413FF1F4013FF1F59
:102B40002DE9F843314E337893B1314F3A787AB961
:102B50000122D9073A7036D49A0719D400225B07AC
:102B60003A7005D52B4B1A6812B1EFF305820AB102
:102B7000BDE8F883EFF3108172B6186818B1264CDF
:102B80002278002A2ED00029F2D162B6BDE8F8835F
:102B9000DFF8908098F80020002ADFD0DFF88890D6
:102BA000002405E0013498F80030E4B2A34212D9C1
:102BB00059F824502B6828461B6998470028F1D003
:102BC0002B699847EEE7FFF78DFEC8B9134B1B78CA
:102BD0001BB93378C0E73378C0E7337803F0FE03DE
:102BE0003370B9E745691D60012323705DB1AA61A7
:102BF00001B962B600254577836898472570B7E725
:102C000000F0B0F8E2E7064B1D60F1E75808FF1F3F
:102C10005113FF1F6013FF1F6413FF1F5B08FF1F8B
:102C20005C13FF1F8013FF1F6813FF1F70B5EFF3C6
:102C3000108272B60C4C206880B10C4E002543699E
:102C4000236073B19D6102B962B645778368984786
:102C5000EFF3108272B620680028F0D102B962B694
:102C600070BD3360EFE700BF5413FF1F5813FF1F01
:102C7000FFF7DCBF024A136801331360704700BFDF
:102C80005412FF1F30B42948294A2A4B2A4D602488
:102C9000E121047011701B78284C082B30D00A2BCE
:102CA0002748284937D00C2B0CBF35225D22122330
:102CB0002A60236002600B60234B24491B78244A5E
:102CC000BBB101230B601360224B23491B78234ABD
:102CD000012B26D9042B0FD9082B1ED9102B94BFFA
:102CE000862387230B6013601D4B01221A7030BCB2
:102CF00070470B601360E7E784230B601360F3E712
:102D000000F58E200F490830212213232A6023600A
:102D100002600B60D0E73922F7E785230B60136070
:102D2000E2E780230B601360DEE700BF004007404E
:102D3000014007405908FF1F08B003400CB0034092
:102D400008B00B400CB00B408213FF1F20B00340B3
:102D500020B00B405A08FF1F24B0034024B00B40A2
:102D60008113FF1F704700BF72B6184A184B1949EC
:102D70001160702280211A701A46197013781B0690
:102D8000FCD510B5144B84B0186862B6134B144CC4
:102D9000984298BF00EB800001A998BF40000A222A
:102DA000FEF7DEFC01A92046002311F8012B0133B8
:102DB0003AB10A2B20F8022FF7D11623237004B062
:102DC00010BD5B00DBB2237004B010BD04000240F4
:102DD00000000240000007410C0002407F9698006E
:102DE000E808FF1F81F0004102E000BF83F00043CC
:102DF00030B54FEA41044FEA430594EA050F08BF96
:102E000090EA020F1FBF54EA000C55EA020C7FEA59
:102E1000645C7FEA655C00F0E2804FEA5454D4EBD6
:102E20005555B8BF6D420CDD2C4480EA020281EAA0
:102E3000030382EA000083EA010180EA020281EAD8
:102E40000303362D88BF30BD11F0004F4FEA01312A
:102E50004FF4801C4CEA113102D0404261EB410139
:102E600013F0004F4FEA03334CEA133302D05242BF
:102E700063EB430394EA050F00F0A780A4F101047B
:102E8000D5F1200E0DDB02FA0EFC22FA05F28018B5
:102E900041F1000103FA0EF2801843FA05F359419B
:102EA0000EE0A5F120050EF1200E012A03FA0EFC1A
:102EB00028BF4CF0020C43FA05F3C01851EBE37144
:102EC00001F0004507D54FF0000EDCF1000C7EEB61
:102ED00000006EEB0101B1F5801F1BD3B1F5001F9F
:102EE0000CD349085FEA30004FEA3C0C04F10104BE
:102EF0004FEA445212F5800F80F09A80BCF1004FE7
:102F000008BF5FEA500C50F1000041EB045141EA68
:102F1000050130BD5FEA4C0C404141EB010111F469
:102F2000801FA4F10104E9D191F0000F04BF014614
:102F30000020B1FA81F308BF2033A3F10B03B3F1F2
:102F400020020CDA0C3208DD02F1140CC2F10C0282
:102F500001FA0CF021FA02F10CE002F11402D8BFE0
:102F6000C2F1200C01FA02F120FA0CFCDCBF41EAAC
:102F70000C019040E41AA2BF01EB0451294330BD7B
:102F80006FEA04041F3C1CDA0C340EDC04F1140458
:102F9000C4F1200220FA04F001FA02F340EA03002F
:102FA00021FA04F345EA030130BDC4F10C04C4F175
:102FB000200220FA02F001FA04F340EA0300294655
:102FC00030BD21FA04F0294630BD94F0000F83F49F
:102FD000801306BF81F480110134013D4EE77FEA82
:102FE000645C18BF7FEA655C29D094EA050F08BFCE
:102FF00090EA020F05D054EA000C04BF19461046AF
:1030000030BD91EA030F1EBF0021002030BD5FEAF2
:10301000545C05D14000494128BF41F0004130BD1A
:1030200014F580043CBF01F5801130BD01F000456E
:1030300045F0FE4141F470014FF0000030BD7FEAE1
:10304000645C1ABF194610467FEA655C1CBF0B46DC
:10305000024650EA013406BF52EA033591EA030FF3
:1030600041F4002130BD00BF90F0000F04BF0021EB
:10307000704730B54FF4806404F132044FF000051E
:103080004FF0000150E700BF90F0000F04BF002197
:10309000704730B54FF4806404F1320410F00045FD
:1030A00048BF40424FF000013EE700BF42004FEAF8
:1030B000E2014FEA31014FEA02701FBF12F07F4375
:1030C00093F07F4F81F06051704792F0000F14BF72
:1030D00093F07F4F704730B54FF4607401F00045B6
:1030E00021F0004120E700BF50EA010208BF70470D
:1030F00030B54FF000050AE050EA010208BF704702
:1031000030B511F0004502D5404261EB41014FF46A
:10311000806404F132045FEA915C3FF4DCAE4FF06E
:1031200003025FEADC0C18BF03325FEADC0C18BF55
:10313000033202EBDC02C2F1200300FA03FC20FAA6
:1031400002F001FA03FE40EA0E0021FA02F11444F3
:10315000C1E600BF70B54FF0FF0C4CF4E06C1CEA08
:1031600011541DBF1CEA135594EA0C0F95EA0C0F7D
:1031700000F0DEF82C4481EA030621EA4C5123EAF0
:103180004C5350EA013518BF52EA033541F480111F
:1031900043F4801338D0A0FB02CE4FF00005E1FBD2
:1031A00002E506F00042E0FB03E54FF00006E1FB1C
:1031B00003569CF0000F18BF4EF0010EA4F1FF045F
:1031C000B6F5007F64F5407404D25FEA4E0E6D419F
:1031D00046EB060642EAC62141EA55514FEAC520B0
:1031E00040EA5E504FEACE2EB4F1FD0C88BFBCF52C
:1031F000E06F1ED8BEF1004F08BF5FEA500E50F1DD
:10320000000041EB045170BD06F0004646EA0101A2
:1032100040EA020081EA0301B4EB5C04C2BFD4EBD4
:103220000C0541EA045170BD41F480114FF0000ECD
:10323000013C00F3AB8014F1360FDEBF002001F03B
:10324000004170BDC4F10004203C35DA0C341BDCB5
:1032500004F11404C4F1200500FA05F320FA04F087
:1032600001FA05F240EA020001F0004221F00041BB
:1032700010EBD37021FA04F642EB06015EEA430E2E
:1032800008BF20EAD37070BDC4F10C04C4F120055E
:1032900000FA04F320FA05F001FA04F240EA020011
:1032A00001F0004110EBD37041F100015EEA430EE2
:1032B00008BF20EAD37070BDC4F1200500FA05F202
:1032C0004EEA020E20FA04F301FA05F243EA020381
:1032D00021FA04F001F0004121FA04F220EA020090
:1032E00000EBD3705EEA430E08BF20EAD37070BDD6
:1032F00094F0000F0FD101F00046400041EB0101B6
:1033000011F4801F08BF013CF7D041EA060195F097
:10331000000F18BF704703F00046520043EB030351
:1033200013F4801F08BF013DF7D043EA060370473E
:1033300094EA0C0F0CEA135518BF95EA0C0F0CD049
:1033400050EA410618BF52EA4306D1D181EA03018F
:1033500001F000414FF0000070BD50EA410606BF89
:103360001046194652EA430619D094EA0C0F02D1CE
:1033700050EA013613D195EA0C0F05D152EA033613
:103380001CBF104619460AD181EA030101F0004131
:1033900041F0FE4141F470014FF0000070BD41F07A
:1033A000FE4141F4780170BD70B54FF0FF0C4CF454
:1033B000E06C1CEA11541DBF1CEA135594EA0C0F73
:1033C00095EA0C0F00F0A7F8A4EB050481EA030EC0
:1033D00052EA03354FEA013100F088804FEA0333A7
:1033E0004FF0805545EA131343EA12634FEA022275
:1033F00045EA111545EA10654FEA00260EF0004136
:103400009D4208BF964244F1FD0404F5407402D287
:103410005B084FEA3202B61A65EB03055B084FEA18
:1034200032024FF480104FF4002CB6EB020E75EB15
:10343000030E22BFB61A754640EA0C005B084FEA3D
:103440003202B6EB020E75EB030E22BFB61A7546BA
:1034500040EA5C005B084FEA3202B6EB020E75EB05
:10346000030E22BFB61A754640EA9C005B084FEA7D
:103470003202B6EB020E75EB030E22BFB61A75468A
:1034800040EADC0055EA060E18D04FEA051545EA79
:1034900016754FEA06164FEAC30343EA52734FEA22
:1034A000C2025FEA1C1CC0D111F4801F0BD141EA9B
:1034B00000014FF000004FF0004CB6E711F4801F00
:1034C00004BF01430020B4F1FD0C88BFBCF5E06FE0
:1034D0003FF6AFAEB5EB030C04BFB6EB020C5FEAF0
:1034E000500C50F1000041EB045170BD0EF0004E45
:1034F0004EEA113114EB5C04C2BFD4EB0C0541EA77
:10350000045170BD41F480114FF0000E013C90E673
:1035100045EA060E8DE60CEA135594EA0C0F08BF37
:1035200095EA0C0F3FF43BAF94EA0C0F0AD150EA36
:1035300001347FF434AF95EA0C0F7FF425AF1046C9
:1035400019462CE795EA0C0F06D152EA03353FF4F1
:10355000FDAE1046194622E750EA410618BF52EA6E
:1035600043067FF4C5AE50EA41047FF40DAF52EA42
:1035700043057FF4EBAE12E74FF0FF3C06E000BFDF
:103580004FF0010C02E000BF4FF0010C4DF804CDEC
:103590004FEA410C7FEA6C5C4FEA430C18BF7FEAAC
:1035A0006C5C1BD001B050EA410C0CBF52EA430CDA
:1035B00091EA030F02BF90EA020F0020704710F15A
:1035C000000F91EA030F58BF994208BF90422CBFE9
:1035D000D8176FEAE37040F0010070474FEA410CE2
:1035E0007FEA6C5C02D150EA013C07D14FEA430C00
:1035F0007FEA6C5CD6D152EA033CD3D05DF8040B71
:10360000704700BF8446104662468C4619466346A2
:1036100000E000BF01B5FFF7B7FF002848BF10F179
:10362000000F01BD4DF808EDFFF7F4FF0CBF0120BE
:1036300000205DF808FB00BF4DF808EDFFF7EAFF3A
:1036400034BF012000205DF808FB00BF4DF808EDF5
:10365000FFF7E0FF94BF012000205DF808FB00BFEA
:103660004DF808EDFFF7CEFF94BF012000205DF874
:1036700008FB00BF4DF808EDFFF7C4FF34BF012081
:1036800000205DF808FB00BF4FEA410C7FEA6C5C4C
:1036900002D150EA013C0AD14FEA430C7FEA6C5C4C
:1036A00002D152EA033C02D14FF0000070474FF0C4
:1036B000010070474FEA410212F5001215D211D5F0
:1036C0006FF47873B3EB625212D94FEAC12343F01F
:1036D000004343EA505311F0004F23FA02F018BFA1
:1036E000404270474FF00000704750EA013005D16A
:1036F00011F0004008BF6FF0004070474FF000002D
:10370000704700BF4A0011D212F5001211D20DD538
:103710006FF47873B3EB62520ED44FEAC12343F0D7
:10372000004343EA505323FA02F070474FF0000081
:10373000704750EA013002D14FF0FF3070474FF030
:1037400000007047014B1868704700BF280DFF1F2D
:1037500070B50F4E0F4D761BB61018BF002405D064
:10376000013455F8043B9847A642F9D10A4E0B4D57
:10377000761B00F023FEB61018BF002406D00134DB
:1037800055F8043B9847A642F9D170BD70BD00BF03
:10379000C8430000C8430000D4430000C8430000F1
:1037A000024B0146186800F003B800BF280DFF1F48
:1037B0002DE9F04F01F10B05162D83B0064640F2BE
:1037C0009F8035F0070500F1BF80A94200F2BC8060
:1037D00000F0A6FAB5F5FC7FC0F09C826B0A00F001
:1037E000BA80042B00F28381A80900F1390E4FEA58
:1037F0004E033830C44F07EB8303A3F108015C6824
:10380000A14207D1ACE0002A80F2AC80E468A1427A
:1038100000F0A680636823F003035A1B0F2AF2DD31
:10382000B9493C6901F1080E744500F0B381636841
:1038300023F003035A1B0F2A00F39981002AC1F8D1
:1038400014E0C1F810E080F29E80B3F5007F80F0B4
:103850006781DB0803F1010C01229B1002FA03F3DC
:103860004A6851F83C80C4F8088001EBCC091A433F
:10387000A9F10803E3604A6041F83C40C8F80C40F5
:10388000831001249C40944200F28A80144206D1A5
:1038900020F003006400144200F10400FAD007EBAA
:1038A000C009CC468046DCF80C108C4507D173E18A
:1038B000002A80F28181C9688C4500F06D814B68D7
:1038C00023F003035A1B0F2AF2DD0C46D1F80CC07B
:1038D00054F8088F4B1945F001054D6042F0010185
:1038E000C8F80CC03046CCF808807B613B61C3F857
:1038F0000CE0C3F808E059609A5000F013FA1FE09A
:10390000102921D800F00CFA1025062302207E4F42
:1039100007EB8303A3F108025C68944200F0458141
:103920006368E168A56823F00303234430465A68BE
:10393000E96042F001028D605A6000F0F3F908344A
:10394000204603B0BDE8F08F00240C2320463360EE
:1039500003B0BDE8F08F80234FF0400E3F2049E7D1
:1039600070465DE72344E1685A68A56842F00102A9
:10397000E96030468D605A6000F0D4F90834204682
:1039800003B0BDE8F08F234430465A6842F001028C
:103990005A6000F0C7F90834204603B0BDE8F08F44
:1039A000BC68636823F00308A84504D3C5EB08038B
:1039B0000F2B00F38C80554BDFF860911A68D9F813
:1039C000003001332A4404EB080A00F0608102F55C
:1039D00080520F3222F47F6222F00F0211463046ED
:1039E000019200F0A1F9B0F1FF3F8346019A00F087
:1039F0005881824500F2FC80454B1968DA45114434
:103A0000196000F05381D9F80000DFF810E10130AF
:103A10001BBFCAEB0B0A5144CEF800B019601BF073
:103A2000070100F01781C1F10800C1F580518344FE
:103A300008315A44C2F30B02C2EB01094946304631
:103A4000019300F071F9431C019B00F03F81CBEB27
:103A500000024A4442F001021968C7F808B049441C
:103A6000BC42CBF804201960DFF8A49016D0B8F15E
:103A70000F0F40F2FD806268A8F10C0323F00703EA
:103A8000E01802F001024FF0050E1A430F2B62609E
:103A9000C0F804E0C0F808E000F21C811D4BBC68CF
:103AA0001A68914288BF19601B4B1A68914262687C
:103AB00088BF196022F003029542A2EB050301D8EA
:103AC0000F2B04DC304600F02DF9002438E7621992
:103AD00043F0010345F0010565603046BA6053606C
:103AE00000F020F90834204603B0BDE8F08F142B15
:103AF00071D9542B00F2A480280B00F16F0E4FEA0D
:103B00004E036E3076E600BF2C0DFF1F8C13FF1F97
:103B10009013FF1F8813FF1F8413FF1F3811FF1F0F
:103B20005A0A042A5ED9142A00F2B38002F15C0119
:103B300049005B3207EB810C57F82110DFF8DC817C
:103B4000ACF1080C8C4500F088804A6822F0030232
:103B5000934202D289688C45F7D1D1F80CC07A68BB
:103B6000C4F80CC0A160CCF80840CC6088E66319AA
:103B700042F0010745F00105656030464B610B617D
:103B8000C3F80CE0C3F808E05F609A50083400F016
:103B9000C9F8D5E64A6873E608F1010818F0030F82
:103BA0000CF1080C7FF47FAE30E0DC68A34208BF64
:103BB00002303FF435AEB3E60B440C465A68C96890
:103BC00054F8085F42F001025A603046E9608D60A7
:103BD00000F0A8F8B4E603F15C0E03F15B004FEAD5
:103BE0004E0307E69A0902F1390149003832A1E78C
:103BF000BC424A4B3FF400AF9C68626822F003026B
:103C00005AE759F80839994540F0828010F0030FBF
:103C100000F1FF30F5D17B6823EA04037B60640088
:103C20009C423FF6BDAE002C3FF4BAAE1C4240466B
:103C30007FF435AE64001C4200F10400FAD02EE699
:103C4000B3F5AA7F18D8E80B00F1780E4FEA4E03BF
:103C50007730CFE54FF48051EBE60121D8F80430FE
:103C6000921001FA02F21A43C8F80420614677E77D
:103C70000123CBF8043025E740F25452934220D878
:103C8000A80C00F17D0E4FEA4E037C30B2E51032F5
:103C9000A4E6542A26D81A0B02F16F0149006E32AD
:103CA00048E7BC68626822F0030205E7CAF30B002C
:103CB00000287FF4A8AE4244BB6842F001025A607B
:103CC000ECE6FE234FF07F0E7E2093E501224FF0BD
:103CD0000009C1E604F10801304600F0A9F8D9F85E
:103CE0000010DBE6B2F5AA7F05D8DA0B02F1780105
:103CF000490077321EE740F254518A4205D89A0CA7
:103D000002F17D0149007C3214E7FE217E2211E799
:103D10007B6884E7E808431C5B00F8E52C0DFF1F77
:103D2000704700BF704700BF38B5074C00230546F9
:103D300008462360FDF7FEFC431C00D038BD236815
:103D4000002BFBD02B6038BDCC13FF1F024B13B1EF
:103D5000024800F005B87047000000006D3D00000B
:103D6000002301461A46184600F04AB938B5074DF7
:103D7000074C2C1BA41005D0013C55F8043D984776
:103D8000002CF9D1BDE8384000F024BB0000000051
:103D900000000000F8B5234F0C460646FFF7C0FFB1
:103DA000BB685D6825F00305291B01F6EF7121F45E
:103DB0007F6121F00F01A1F58054B4F5805F07DB2E
:103DC00000213046FFF7B0FFBB682B44984204D077
:103DD0003046FFF7A7FF0020F8BD61423046FFF7ED
:103DE000A3FF01300DD0104BBA6819682D1B45F0A8
:103DF00001053046091B55601960FFF793FF01204C
:103E0000F8BD00213046FFF78FFFBA68831A0F2BE9
:103E1000DEDD064C0449246843F00103001B5360B7
:103E20000860D5E72C0DFF1F9013FF1F3811FF1FEF
:103E3000002945D02DE9F0410D468046FFF770FF7F
:103E400055F8047C6A4927F00103A5F10804E2183B
:103E50008E685068B24220F0030062D0FE075060C6
:103E60000BD455F8087CE41B01F1080EA5687545D4
:103E70003B446FD0E768EF60BD6015186D68ED07D3
:103E800042D543F001026260E350B3F5007F18D2DF
:103E9000DB085A1C4D6851F83270A76001209B1056
:103EA00000FA03F301EBC2001D430838E0604D60E7
:103EB00041F83240FC604046BDE8F041FFF732BFB8
:103EC00070475A0A042A53D89A0902F139077F0029
:103ED00002F1380501EB870051F8272044490838E2
:103EE00090424DD0516821F003018B4202D292687A
:103EF0009042F7D1D068E060A2608460D460404610
:103F0000BDE8F041FFF70EBF95683A4FBD4203444C
:103F10003FD0D068E86043F0010285606260E35002
:103F2000B3E7FF07034407D455F8082CA41A134439
:103F3000A068E268C26090602F4A126843F00100F6
:103F4000934260608C60B6D32C4B40461968FFF7F3
:103F500021FFB0E711184968C90744D49168D268B5
:103F6000CA60034443F0010091606060E350A2E73F
:103F7000142A17D802F15C077F0002F15B05A9E75C
:103F8000AA104B68012505FA02F213434B60024662
:103F9000B1E743F001024C610C61E560A56062602D
:103FA000E35088E7542A06D81A0B02F16F077F0006
:103FB00002F16E058EE7B2F5AA7F06D8DA0B02F1A0
:103FC00078077F0002F1770584E740F2545082427F
:103FD00006D89A0C02F17D077F0002F17C0579E793
:103FE000FE277E2576E743F001026260E35062E738
:103FF0002C0DFF1F340DFF1F3411FF1F8C13FF1FEB
:104000002DE9F047254C2568D5F8484106468846F5
:1040100092469946C4B360681F2817DC431C76B1EA
:1040200004EB80050122C5F888A0D4F888118240ED
:104030001143022EC4F88811C5F808911ED0023031
:10404000636044F820800020BDE8F087144B03B380
:104050004FF4C870FFF7A4FB0446D0B1D5F848313F
:10406000002780E88800C5F8484138460123C4F895
:104070008871C4F88C71002EE1D0D1E7D4F88C118E
:104080000A43C4F88C21DAE705F5A674C5F848415F
:10409000C1E74FF0FF30BDE8F08700BFB843000034
:1040A000A1370000348004404000000012112208B3
:1040B000300202050702131021072F020205070232
:1040C000180000003480044080000000263AFFFF02
:1040D000FF0206000000253BFFFFFF020600000074
:1040E00019000000288004404000000004FFFFFF8A
:1040F000FF0500000000031AFFFFFF050500000098
:104100004A0000000000000000000000550D000003
:10411000190D0000CD0C0000150D0000D10C0000A1
:10412000DD0C0000FD0C00000D0AFFFF6E616E004B
:104130006F766600696E66004008FE4340A004404A
:104140004408FE4344A004400018FE4300C004405D
:104150003000FE43309004403400FE43349004406D
:104160001C18FE431CC004401018FE4310C004403D
:104170000818FE4308C004400C18FE430CC004405D
:104180000C10FE430CB004401010FE4310B004406D
:104190001810FE4318B004401C10FE431CB004402D
:1041A0001410FE4314B004400418FE4304C004403D
:1041B0000010FE4300B004400008FE4300A004408D
:1041C0000408FE4304A004400C08FE430CA0044075
:1041D0000808FE4308A004401418FE4314C004401D
:1041E0001818FE4318C004400410FE4304B00440F5
:1041F0000810FE4308B004406820FE4368D0044025
:104200001400FE43149004403800FE4338900440EC
:104210003C00FE433C9004404000FE43409004407C
:104220004808FE4348A004404C08FE434CA004400C
:104230002808FE4328A004402C08FE432CA004407C
:104240006020FE4360D004406420FE4364D00440FC
:104250002010FE4320B004402410FE4324B004404C
:104260002810FE4328B004402C10FE432CB004401C
:104270004400FE43449004407000FE4370900440AC
:104280007400FE43749004406800FE43689004404C
:104290005008FE4350A004405808FE4358A0044074
:1042A0005C08FE435CA004405408FE4354A0044054
:1042B0002018FE4320C004402418FE4324C00440BC
:1042C0001008FE4310A004401408FE4314A004404C
:1042D0003818FE4338C004403418FE4334C004404C
:1042E0003018FE4330C004403C18FE433CC004403C
:1042F0002C18FE432CC004402820FE4328D0044044
:104300002C20FE432CD004400020FE4300D004406B
:104310000420FE4304D004400820FE4308D004409B
:104320000C20FE430CD004401020FE4310D004406B
:104330001420FE4314D004400000000000000000E0
:10434000D9270000D1270000CD270000C927000091
:10435000C5270000C1270000BD270000B9270000C5
:1043600000151915000100005C08FF1F1200000075
:10437000000200008808FF1F430000000003000047
:10438000E408FF1F00000000010309047008FF1F7C
:104390000000000002030904CC08FF1F0000000019
:1043A00003030904E808FF1F0000000000000000EC
:1043B00000000000000000000009FF1FF8B500BF6A
:1043C000F8BC08BC9E4670474D3D00003504000017
:0443D000C106000022
:0443D400F8B500BF79
:1043D8000C0000000C41000000000000E803000091
:1043E8000000000000600E40E440000000000000F3
:1043F80000000000000000000000000000000000B5
:1044080000000000000000000000000000000000A4
:104418000000000000000000000000000000000094
:104428000000000000000000000000000000000084
:104438000000000000000000000000000000000074
:104448000C41000000000000E8030000000000002C
:1044580000600640A44000000000000000000000CA
:104468000000000000000000000000000000000044
:104478000000000000000000000000000000000034
:104488000000000000000000000000000000000024
:104498000000000000000000000000000000000014
:1044A8000000000000000000000000000C410000B7
:1044B80000000000E8030000000000000070064053
:1044C800C4400000000000000000000000000000E0
:1044D80000000000000000000000000000000000D4
:1044E80000000000000000000000000000000000C4
:1044F80000000000000000000000000000000000B4
:1045080000000000000000000000000000000000A3
:104518000000000000000000D013FF1F404300000F
:1045280000000000E803000000000000FFFFFFFF9C
:10453800010A04011201100102000040C0168304A0
:1045480076020102030100001803540065006500AB
:104558006E00730079006400750069006E006F00DA
:1045680009024300020100C03209040000010202EE
:10457800010005240010010524010101042402069C
:104588000524060001070582031000400904010004
:10459800020A000000070503024000000705840224
:1045A800400000001603550053004200200053004D
:1045B80065007200690061006C00000004030904D2
:1045C8000C030000000000000000000000000000D4
:1045D800000000000000000000000000EC0BFF1FBE
:1045E800540CFF1FBC0CFF1F00000000000000005F
:1045F80000000000000000000000000000000000B3
:1046080000000000000000000000000000000000A2
:104618000000000000000000000000000000000092
:104628000000000000000000000000000000000082
:104638000000000000000000000000000000000072
:104648000000000000000000000000000000000062
:104658000000000000000000000000000000000052
:104668000000000000000000000000000000000042
:104678000000000000000000000000000000000032
:1046880001000000000000000E33CDAB34126DE6CF
:10469800ECDE05000B000000000000000000000038
:1046A8000000000000000000000000000000000002
:1046B80000000000000000000000000000000000F2
:1046C80000000000000000000000000000000000E2
:1046D80000000000000000000000000000000000D2
:104A08000009FF1F00000000000000002C0DFF1F20
:104A18002C0DFF1F340DFF1F340DFF1F3C0DFF1F12
:104A28003C0DFF1F440DFF1F440DFF1F4C0DFF1FC2
:104A38004C0DFF1F540DFF1F540DFF1F5C0DFF1F72
:104A48005C0DFF1F640DFF1F640DFF1F6C0DFF1F22
:104A58006C0DFF1F740DFF1F740DFF1F7C0DFF1FD2
:104A68007C0DFF1F840DFF1F840DFF1F8C0DFF1F82
:104A78008C0DFF1F940DFF1F940DFF1F9C0DFF1F32
:104A88009C0DFF1FA40DFF1FA40DFF1FAC0DFF1FE2
:104A9800AC0DFF1FB40DFF1FB40DFF1FBC0DFF1F92
:104AA800BC0DFF1FC40DFF1FC40DFF1FCC0DFF1F42
:104AB800CC0DFF1FD40DFF1FD40DFF1FDC0DFF1FF2
:104AC800DC0DFF1FE40DFF1FE40DFF1FEC0DFF1FA2
:104AD800EC0DFF1FF40DFF1FF40DFF1FFC0DFF1F52
:104AE800FC0DFF1F040EFF1F040EFF1F0C0EFF1FFF
:104AF8000C0EFF1F140EFF1F140EFF1F1C0EFF1FAE
:104B08001C0EFF1F240EFF1F240EFF1F2C0EFF1F5D
:104B18002C0EFF1F340EFF1F340EFF1F3C0EFF1F0D
:104B28003C0EFF1F440EFF1F440EFF1F4C0EFF1FBD
:104B38004C0EFF1F540EFF1F540EFF1F5C0EFF1F6D
:104B48005C0EFF1F640EFF1F640EFF1F6C0EFF1F1D
:104B58006C0EFF1F740EFF1F740EFF1F7C0EFF1FCD
:104B68007C0EFF1F840EFF1F840EFF1F8C0EFF1F7D
:104B78008C0EFF1F940EFF1F940EFF1F9C0EFF1F2D
:104B88009C0EFF1FA40EFF1FA40EFF1FAC0EFF1FDD
:104B9800AC0EFF1FB40EFF1FB40EFF1FBC0EFF1F8D
:104BA800BC0EFF1FC40EFF1FC40EFF1FCC0EFF1F3D
:104BB800CC0EFF1FD40EFF1FD40EFF1FDC0EFF1FED
:104BC800DC0EFF1FE40EFF1FE40EFF1FEC0EFF1F9D
:104BD800EC0EFF1FF40EFF1FF40EFF1FFC0EFF1F4D
:104BE800FC0EFF1F040FFF1F040FFF1F0C0FFF1FFA
:104BF8000C0FFF1F140FFF1F140FFF1F1C0FFF1FA9
:104C08001C0FFF1F240FFF1F240FFF1F2C0FFF1F58
:104C18002C0FFF1F340FFF1F340FFF1F3C0FFF1F08
:104C28003C0FFF1F440FFF1F440FFF1F4C0FFF1FB8
:104C38004C0FFF1F540FFF1F540FFF1F5C0FFF1F68
:104C48005C0FFF1F640FFF1F640FFF1F6C0FFF1F18
:104C58006C0FFF1F740FFF1F740FFF1F7C0FFF1FC8
:104C68007C0FFF1F840FFF1F840FFF1F8C0FFF1F78
:104C78008C0FFF1F940FFF1F940FFF1F9C0FFF1F28
:104C88009C0FFF1FA40FFF1FA40FFF1FAC0FFF1FD8
:104C9800AC0FFF1FB40FFF1FB40FFF1FBC0FFF1F88
:104CA800BC0FFF1FC40FFF1FC40FFF1FCC0FFF1F38
:104CB800CC0FFF1FD40FFF1FD40FFF1FDC0FFF1FE8
:104CC800DC0FFF1FE40FFF1FE40FFF1FEC0FFF1F98
:104CD800EC0FFF1FF40FFF1FF40FFF1FFC0FFF1F48
:104CE800FC0FFF1F0410FF1F0410FF1F0C10FF1FF5
:104CF8000C10FF1F1410FF1F1410FF1F1C10FF1FA4
:104D08001C10FF1F2410FF1F2410FF1F2C10FF1F53
:104D18002C10FF1F3410FF1F3410FF1F3C10FF1F03
:104D28003C10FF1F4410FF1F4410FF1F4C10FF1FB3
:104D38004C10FF1F5410FF1F5410FF1F5C10FF1F63
:104D48005C10FF1F6410FF1F6410FF1F6C10FF1F13
:104D58006C10FF1F7410FF1F7410FF1F7C10FF1FC3
:104D68007C10FF1F8410FF1F8410FF1F8C10FF1F73
:104D78008C10FF1F9410FF1F9410FF1F9C10FF1F23
:104D88009C10FF1FA410FF1FA410FF1FAC10FF1FD3
:104D9800AC10FF1FB410FF1FB410FF1FBC10FF1F83
:104DA800BC10FF1FC410FF1FC410FF1FCC10FF1F33
:104DB800CC10FF1FD410FF1FD410FF1FDC10FF1FE3
:104DC800DC10FF1FE410FF1FE410FF1FEC10FF1F93
:104DD800EC10FF1FF410FF1FF410FF1FFC10FF1F43
:104DE800FC10FF1F0411FF1F0411FF1F0C11FF1FF0
:104DF8000C11FF1F1411FF1F1411FF1F1C11FF1F9F
:104E08001C11FF1F2411FF1F2411FF1F00000200A7
:044E1800FFFFFFFF9A
:00000001FF
