:10000000F8FF022099010000FD1E0000B51E00004F
:10001000B51E0000B51E0000B51E0000B51E000094
:10002000B51E0000B51E0000B51E0000FD1E00003C
:10003000FD1E0000B51E00005134000055340000C4
:10004000FD1E0000FD1E0000FD1E0000FD1E000044
:10005000FD1E0000FD1E0000FD1E0000FD1E000034
:10006000FD1E0000FD1E0000FD1E0000FD1E000024
:10007000FD1E0000FD1E0000FD1E0000FD1E000014
:10008000FD1E0000FD1E0000FD1E0000FD1E000004
:10009000FD1E0000FD1E0000FD1E0000FD1E0000F4
:1000A000111B00001D1B0000FD1E0000FD1E0000B6
:1000B000FD1E0000FD1E0000FD1E0000FD1E0000D4
:1000C000FD1E0000FD1E0000FD1E0000FD1E0000C4
:1000D000FD1E0000FD1E0000FD1E0000FD1E0000B4
:1000E000FD1E0000FD1E0000FD1E0000FD1E0000A4
:1000F000FD1E0000FD1E0000FD1E0000FD1E000094
:10010000FD1E0000FD1E0000FD1E0000FD1E000083
:100110009D10000005240000FD1E0000FD1E0000D3
:10012000FD1E0000FD1E0000FD1E0000FD1E000063
:10013000FD1E0000FD1E0000FD1E0000FD1E000053
:10014000FD1E0000FD1E0000FD1E0000FD1E000043
:10015000FD1E0000FD1E0000FD1E0000FD1E000033
:10016000FD1E0000FD1E0000291B0000FD1E0000FA
:10017000FD1E0000FD1E0000FD1E0000FD1E000013
:10018000FD1E0000FD1E0000FD1E0000FD1E000003
:10019000FD1E0000FD1E0000584B4CF2205210B511
:1001A0001A804DF628121A8000BF00BF01F0AAFE87
:1001B000534B4FF030621A60524A9A60524ADA60EA
:1001C000524B4FF470021A60514A136813F4807353
:1001D00004D150490B604FF4A85313604E4B1A786A
:1001E000110703D51A7842F008021A704B4B4C499C
:1001F0002A221A704B4A4C4B8B4204D252F8040FFD
:1002000043F8040BF8E7494B494900228B4202D2DC
:1002100043F8042BFAE74749474A002352F82300E2
:1002200041F823000133662BF8D1444B444A802126
:1002300003F8011B9342FBD1424B3E4A1A60424BEA
:100240008A221A70A3F5805324225A70A0221A70B1
:100250009A799207FCD59A79D406FCD43B4A9379D3
:1002600003F00C03082B394BF9D103221A714622F3
:100270005A719A799006FCD5344A9179334B4906E4
:10028000FBD5334A4FF08271116009215160202261
:100290001A709A7902F00C020C2AFAD12D4B2E4AD0
:1002A0001A602E4B2E4A1A6000225A60072243F829
:1002B000042C2C4AC3F80C2D62B601F035FF154B07
:1002C0001B68DA0705D5284801F0C2FE274B284AEB
:1002D0001A60284B1B785B0609D5244C244B2268F6
:1002E0009A4204D1204801F0B3FE0023236005F0B8
:1002F00041FC01F00DFE01F03BFDFEE70E20054044
:1003000030800440823F04000100002B88ED00E0B3
:1003100010D0034014D0034002D0074000E0074053
:100320003C11FF1F346A0000F806FF1F4011FF1F39
:10033000F814FF1F0002FF1F0000000000E400E0AF
:1003400056E400E008ED00E00050064000400640A2
:100350004480044004800440C010050014E000E024
:10036000BFD40100000020209D49755F1CE00340C0
:10037000A5C3945A00F00740FFFFFFFFFFFFFFFFF8
:10038000FFFFFFFFFFFFFFFFFFFFFFFFFFFFFFFF7D
:10039000FFFFFFFFFFFFFFFFFFFFFFFFFFFFFFFF6D
:1003A000FFFFFFFFFFFFFFFFFFFFFFFFFFFFFFFF5D
:1003B000FFFFFFFFFFFFFFFFFFFFFFFFFFFFFFFF4D
:1003C000FFFFFFFFFFFFFFFFFFFFFFFFFFFFFFFF3D
:1003D000FFFFFFFFFFFFFFFFFFFFFFFFFFFFFFFF2D
:1003E000FFFFFFFFFFFFFFFFFFFFFFFFFFFFFFFF1D
:1003F000FFFFFFFFFFFFFFFFFFFFFFFFFFFFFFFF0D
:10040000FFFFFFFFFFFFFFFFFFFFFFFFDEF9FFFF23
:1004100010B5054C237833B9044B13B10448AFF33E
:1004200000800123237010BD4011FF1F0000000059
:10043000386A0000084B10B51BB108490848AFF3F3
:1004400000800848036803B910BD074B002BFBD0A0
:10045000BDE81040184700BF000000004411FF1F16
:10046000386A00003C11FF1F0000000038B5084C3E
:1004700001600546204601F081F82046222101F066
:10048000C7F82046212101F0F5F8284638BD00BF05
:100490006807FF1FF8B5054604460822012315F832
:1004A000031B354801F026FA334A04F10B071046C6
:1004B00092F8383092F83910C618994203F10103C6
:1004C0008ABF80F83830FF23337E05F8013FBD42F4
:1004D000EED1A27AE37AC2F34000C2F38007C2F3FE
:1004E000C006C2F30015E073C2F3401002F0010130
:1004F00027746674C2F3801703F00106D209A5744D
:10050000E074C3F34005C3F38000C3F3C00E277546
:100510006275C3F30017A675E575C3F34016C3F300
:1005200080152076DB0904F135000022A776E676F7
:1005300025776377A17384F819E00546174604F11F
:100540000E0604F1220310F8014F0CB901290AD05C
:100550000132102A1F7005F8011F03F101030AD0B0
:1005600016F8011FEFE70132102A197005F8011F74
:1005700003F10103F4D1F8BD6807FF1FFFFFFFFF80
:100580002DE9F84304460FF27009D9E9008900F01B
:10059000F3FC1BA7D7E90067154B16490022002082
:1005A000C4E90423C4E908010022002300214FF418
:1005B000FA7540F6C410E065C4E90689C4E910671D
:1005C000A565C4E90223C4E90C23C4E90E23C4E9E8
:1005D0001223C4E91423C4E91823C4E91A23A1622D
:1005E00084F8701084F871102046BDE8F88300BFCD
:1005F0000000E03F0000F03F0000000000E070401D
:100600000000000000388FC02DE9F04F2DED068B63
:100610007B4CDFF800B299B0204600F0AFFF2046D7
:10062000222100F0F5FF2046212101F023F80121CD
:100630000D2001F025FD01210D2001F01BFD5EA321
:10064000D3E9002318AC64E902239FED5D7B12AE71
:100650000DF150082346424631464FF0000A6948E2
:100660009FED599BCDE914AB8DED127B9FED58ABFF
:1006700000F0EAF99FED587B0BA809AF0DF138099E
:100680000DF1300B03904FF000050DF1230006949F
:10069000009610AB4A460AA9CDF810B00297019017
:1006A0004FF0200E4FF4487A8DF823508DF82450E7
:1006B000CDF8148040F634055348CDF828E09FED7E
:1006C000488B8DED127BCDF82CA00C958DED0E9BFB
:1006D0008DED109B8DED169B8DED14AB00F056FD4E
:1006E0009FED417B0BAB03934FF000010DF1230312
:1006F0004FF01F0C06940297019300965A4610ABD8
:100700008DF823104FF0010E0AA9CDF81480CDF812
:1007100010903E48CDF82CA00E95CDF828C08DED58
:10072000127B8DF824E08DED14AB8DED169B8DEDD5
:100730000C8B8DED108B00F029FD0BAB9FED2C6B1E
:100740009FED2D7B04930AAB0DF122000393DFF89C
:10075000C8B006940DF12303029300963946019028
:100760004FF01E0E4FF0000ACDF8148010AB4A4631
:1007700002274FF4C8664FF416642548CDF824E0EC
:100780004FF000058DF822508DED0E8B8DED108B06
:100790008DED126B8DED147BCDE916AB8DF82370CA
:1007A0000A960B9400F0F2FC19B0BDEC068BBDE884
:1007B000F08F00BFAFF300800000000000E05F405A
:1007C00000000060662647400000000000805640A0
:1007D00000000000008056C000000000004054C02F
:1007E0000000000000000000000000000000F0BF5A
:1007F00000000000000008400000000000005EC093
:100800006807FF1FD811FF1FB812FF1F6011FF1FDD
:10081000F011FF1F0040604000004EC0FFFFFFFFCF
:100820002DE9F043704C8FB02046FFF733FEA379DB
:1008300003EB831003EB400000125A3004F036FE45
:10084000E2796FF0C60303FB02F3002BB8BFFF335E
:10085000CDE904011812643004F028FE6379634C7A
:1008600003EB830202EB820203EB8203CDE9060174
:10087000181204F01BFECDE908015D4800F002FEED
:100880005C4800F0FFFD0CAF5B4800F0FBFD00256D
:1008900004AB08AA06A90194009758488DF8305077
:1008A00000F044FBD4E900014BA3D3E9002304F09A
:1008B000B1FC80468946C4E90089D4E902010022DE
:1008C000002304F0A7FC44A3D3E90023C4E90201F8
:1008D000D4E9040104F09CFC0EADC4E9040140A37A
:1008E000D3E900234046494604F046FE012605F8B8
:1008F000296DDFF820914FF00008CDE90A012B4661
:100900003A460AA93A48CDE90C8900F0D1FCE368DF
:10091000A06803F1004132A3D3E9002304F02CFEC8
:100920002B46CDE90A013A460AA932488DF80F60F4
:10093000CDE90C8900F0BCFCD4E9040128A3D3E97B
:10094000002304F019FE2B46CDE90A013A460AA914
:1009500029488DF80F60CDE90C8900F0A9FC05212C
:10096000274802F0D9FB1EA3D3E90023D4E90001F4
:1009700004F002FE41EC100B0221224801F01CF9A8
:100980000621214802F0C8FB15A3D3E90023D4E9CE
:10099000020104F0F1FD41EC100B0221194801F0B5
:1009A0000BF90821194802F0B7FB0DA3D3E9002386
:1009B000D4E9040104F0E0FD41EC100B02211148E0
:1009C00001F0FAF83146124802F0A6FB0A2002F0C4
:1009D00027FC0FB0BDE8F08300000060FB21094058
:1009E00000000020DCA54C406812FF1F3013FF1FE1
:1009F000B812FF1F6011FF1FF011FF1FD811FF1F5A
:100A0000C86400004408FF1FD0640000D8640000E0
:100A1000E464000000408F4008B574210648FFF7E9
:100A200025FD0648FFF7ACFD0548FFF7A9FD054881
:100A3000FFF7A6FD08BD00BF6812FF1FB812FF1F19
:100A40006011FF1FF011FF1F30B4D1E90045C0E96C
:100A50000045D2E90045C0E90245D3E9002330BC96
:100A6000C0E90423704700BF2DE9F04F1C4694E80D
:100A70004040D2E90023044694ED007B85B0D1F8D4
:100A800000804D68104619460EF100478DED007B41
:100A900004F072FD3246CDE902013B46304639464C
:100AA00004F06AFD02460B46DDE9020104F0B2FBE8
:100AB000DDE9002306460F461046194604F05CFDAA
:100AC00002460B463046394604F0A2FB05F10049C8
:100AD00006460F4642464B464046494604F04CFD0A
:100AE00002460B4630463946D4E902AB04F092FB8D
:100AF000524606460F465B465046594604F03CFDBA
:100B000002460B4630463946D4E9044504F080FBE2
:100B1000224606460F462B462046294604F02CFD69
:100B200002460B463046394604F072FB22462B46FD
:100B300006460F462046294604F06CFB52465B46AB
:100B400004F01AFD02460B463046394604F03EFEDC
:100B500000220E4B04460D4604F09EFF30B10B4DB3
:100B6000002445EC104B05B0BDE8F08F0022084B87
:100B70002046294604F072FF0028F2D0044D0024DC
:100B800045EC104B05B0BDE8F08F00BF0000F03F12
:100B90000000F0BFFFFFFFFF2DE9F04F2DED068BAA
:100BA00085B09046DDF850B0DBE9006799463246E3
:100BB0003B4604460D463046394604F0DDFC02460D
:100BC0000B460020664904F023FB41EC100B02F0B9
:100BD000BDFD51EC100B10EE102A01F100439BED0E
:100BE000001B43EC102B02F0AFFD99ED007B8DED67
:100BF000027B98ED007BDDE9022351EC170B1646D2
:100C000003F1004717EE102A0B465BEC10AB8DED9D
:100C1000007B04F0B1FC3246804689463B463046B4
:100C2000394604F0A9FC02460B464046494604F00A
:100C3000F1FAD4E9008906460F4642464B46404643
:100C4000494604F099FC02460B463046394604F00A
:100C5000DFFA0022002341EC180B04F0FFFE08B17C
:100C60009FED3D8B9DED001B9DED020B02F06CFD99
:100C700059EC108BB0EE480AF0EE680A02F066FDFF
:100C80006168226801F1004343EC112B02F05CFD26
:100C90006B68B0EE409AF0EE609AB0EE480AF0EE63
:100CA000680A03F100472E6802F050FDB0EE401ACA
:100CB000F0EE601A47EC106B02F046FDB0EE408A91
:100CC000F0EE608A4BEC10AB02F0DEFCB0EE40AA16
:100CD000F0EE60AA4BEC10AB02F076FCD4E90467AE
:100CE00053EC102B3046394604F046FCD4E902237D
:100CF00004F090FA53EC1A2BCDE900013046394646
:100D000004F03AFC9DED001B41EC100B02F01CFDC1
:100D100053EC192B404609F100418DED000B04F016
:100D200077FA9DED000B159C53EC102BC4E90001E4
:100D300051EC180B04F06CFA159C01F10041E160D4
:100D400021460BF10043A060C1F810A0636105B01B
:100D5000BDEC068BBDE8F08F000000000000000035
:100D60000000F03FFFFFFFFF2DE9F04F2DED068B58
:100D700085B09046DDF850B0DBE900679946324611
:100D80003B4604460D463046394604F0F5FB024624
:100D90000B460020644904F03BFA41EC100B02F0D2
:100DA000D5FC51EC100B10EE102A01F100439BED25
:100DB000001B43EC102B02F0C7FC99ED007B8DED7E
:100DC000027B98ED007BDDE9022351EC170B164600
:100DD00003F1004717EE102A0B465BEC10AB8DEDCC
:100DE000007B04F0C9FB3246804689463B463046CC
:100DF000394604F0C1FB02460B464046494604F022
:100E000009FAD4E9008906460F4642464B46404659
:100E1000494604F0B1FB02460B463046394604F021
:100E2000F7F90022002341EC180B04F017FE08B17B
:100E30009FED3B8B9DED001B9DED020B02F084FCB2
:100E400059EC108BB0EE480AF0EE680A02F07EFC16
:100E500094ED001B02F078FC6B68B0EE409AF0EE67
:100E6000609AB0EE480AF0EE680A03F100472E6877
:100E700002F06CFCB0EE401AF0EE601A47EC106B1A
:100E800002F062FCB0EE408AF0EE608A4BEC10ABF0
:100E900002F0FAFBB0EE40AAF0EE60AA4BEC10AB09
:100EA00002F092FBD4E9046753EC102B304639462C
:100EB00004F062FBD4E9022304F0ACF953EC1A2BE2
:100EC000CDE900013046394604F056FB9DED001B8C
:100ED00041EC100B02F038FC53EC192B404609F1A1
:100EE00000418DED000B04F093F99DED000B159C76
:100EF00053EC102BC4E9000151EC180B04F088F9F5
:100F0000159C01F10041E16021460BF10043A06016
:100F1000C1F810A0636105B0BDEC068BBDE8F08F91
:100F200000000000000000000000F03F2DE9F04349
:100F300085B099460C9F0D9E04460D469046FFF7DE
:100F400093FD3B7801968DED020B02AF4BB14B4602
:100F50004246294620460097FFF706FF05B0BDE848
:100F6000F0834B464246294620460097FFF714FE81
:100F700005B0BDE8F08300BF70B40F4E0023358884
:100F800003710C21012215424FEA42040AD0037971
:100F9000013903F10103A2B20371F4D1FF230371FC
:100FA00070BC704705490B88154323EA020235805F
:100FB0000A8070BC704700BF5013FF1F4C13FF1F07
:100FC000F8B504790B2C01D92046F8BD0646CDB200
:100FD000284601211F46144601F052F81B48327979
:100FE0001B4B01889D54012393400B4319490380F7
:100FF0000B681948C4EB0414C7EB071745F2E475F6
:1010000013F480033480778020F8125016D10A68D8
:10101000124D1348DFF85CE0124F134C42F480028B
:101020000A604FF6FF722A601049CEF8003042F68F
:10103000A27520223B600560016022700C4B4FF4CA
:1010400080121A6034792046F8BD00BF4C13FF1F90
:101050006C13FF1F3C8004405413FF1F04600340C7
:10106000006003400C60034034E400E0A22F010064
:1010700004E100E0086003400388C1EB01119942DC
:1010800003DB43888B42A8BF0B4602790B2A9CBF27
:10109000014921F8123070475413FF1FF8B5324E42
:1010A000324D96F900202B881341DC0753D4304C85
:1010B00094F900300B2B0EDC298841FA03F2D0079B
:1010C00002D52EE0D2072BD401335BB20C2B41FAB0
:1010D00003F2F7D1237027480268C2F5922101F587
:1010E000787140F2DB53994217DD4EF660238B4254
:1010F000A8BF0B461A44204902600E681F4D204AC3
:101100001C4F334442F6A3760B602E600368934273
:1011100002D900233B602370F8BD40F2DC53E9E7BD
:101120002370184A0121D05C00F0A4FF94F900302C
:10113000104A1549104831F813501168337029448A
:10114000116002680D492A44013342F6A37502601A
:101150000D602370F8BD0B4B0021985C00F08AFFF6
:101160000C233370A3E700BFF806FF1F4C13FF1FCB
:101170004E13FF1F4813FF1F0C6003400060034025
:10118000DF9304006C13FF1F5413FF1F2DE9F04F72
:1011900083B080460F9F0968129D109E14469946A1
:1011A000826DC36DFFF70CFF3868C8F858003668C9
:1011B000C8F85C60301A04F079F9119B8246D3E9D3
:1011C00000238B46D5E9000104F022F802460B46C5
:1011D0005046594604F0FAFA82468B463046C8E932
:1011E00018AB04F063F9D5E9002306460F465046D4
:1011F000594604F0C1F902460B463046394604F020
:1012000007F806460F46C8E91A670C9BD3E90001A8
:1012100004F062FCD9E90023C8E90C230D9BD4E952
:1012200000451B7888F82C30C8E90E45C8F828001E
:1012300004F03CF922462B4603F0ECFF02460B4635
:10124000C8E91023C8E912235046594604F094F91E
:1012500032463B4603F0DEFF0022002304460D46E3
:1012600004F010FCB0B100220F4B2046294603F0D9
:10127000D1FF04F031FC01464046FFF7FDFE0B4B69
:101280001B680193019804F001F9C8E9020103B059
:10129000BDE8F08F0022044B2046294603F0B8FF3A
:1012A00004F01AFC0146E7E70000E03F7C13FF1F53
:1012B000F8B50446D1E90067002084F871001B7876
:1012C00084F870301546304639460BA3D3E9002325
:1012D00004F0E2FB60B1A06A04F0E8F832463B4655
:1012E00003F098FFC4E91001D5E90023C4E91423F1
:1012F000F8BD00BFAFF300800000000000308FC0D9
:101300002DE9F047D0E9104582B082465BA3D3E9CE
:1013100000232046294604F0BFFB00285DD0DAE90F
:10132000126722462B463046394603F071FF0022F1
:1013300000238046894604F0AFFB00287AD042465D
:101340004B46DAE9040104F0A7FB002848D1204607
:1013500032463B46294603F05BFF0022002304F09F
:101360007DFB0024002869D13F4D404B0022DAE983
:10137000080104F02BFA22462B4604F0FDF8DAE9C6
:10138000142304F0F9F832463B4603F043FFDAE950
:101390001823CAE9120104F0EFF8DAE91A2303F07E
:1013A00039FF0022002304460D4604F06BFB0028A1
:1013B00046D000222E4B2046294603F02BFF04F096
:1013C0008BFB01465046FFF757FE2A4B1B680093E4
:1013D000009804F05BF8CAE9020102B0BDE8F087AA
:1013E000DAE918232046294604F0C6F8DAE91A2378
:1013F00003F010FF0022002306460F4604F042FBD4
:1014000040B300221A4B3046394603F003FF04F084
:1014100063FB01465046CAE91245FFF72DFE154B06
:101420001B680193019804F031F8CAE9020102B087
:10143000BDE8F087424609F1004382E70E4D94E78C
:1014400000220B4B2046294603F0E2FE04F044FB49
:101450000146B7E70022064B3046394603F0D8FE76
:1014600004F03AFB0146D5E70000F03F00408F4012
:101470000000E03F7C13FF1F0000F0BF00000000F1
:1014800000308FC090F87130E3B910B50E4B82B0C8
:101490001B6801930446019803F0F8FFD4E9022386
:1014A00003F0B6FED4E9082304F0F6FA20B1204692
:1014B000FFF726FF02B010BD94F87030002BF6D075
:1014C00002B010BD704700BF7C13FF1F00207047A3
:1014D00090F8392090F83800101A704790F838309A
:1014E00090F839209A4205D95A1C034480F83820D4
:1014F000187E70474FF0FF30704700BF90F83830CB
:1015000090F839209A4286BF1B18187E4FF0FF30A2
:10151000704700BF704700BF38B50546B0F85E00A1
:1015200090B195F85D301446C3F1210294420CD875
:1015300005F13B001844224600F022FC95F85D308E
:10154000234485F85D30204638BD012014462871BB
:10155000EEE700BFB0F85E306BB190F85D30202B45
:1015600007D8C218013380F85D30012082F83B10A3
:101570007047012303710020704700BF00234269B8
:1015800080F8383080F8393080F85C3080F85D3091
:1015900080F85E3080F85F3006CA30B40D680469A8
:1015A00043662A4383660A60A370426990F86130FB
:1015B0001649146813441D7A5B7B01EBC5051B02B9
:1015C0006D6803F4E06343F064032B6090F86230CD
:1015D00013449D7CDB7D01EBC5011B02496803F4CC
:1015E000E06343F064030B6021685368194205D03F
:1015F00003692C225A70036904229A71036920221C
:101600005A71036980229A7030BC70477865000077
:1016100070B490F8613045692B441E7A8E420AD02E
:10162000EC1D002314F8012FFF2A04D08A4204D0B5
:101630000133052BF6D170BC704795E806000968A8
:10164000114211D00A4901EBC6061D4472680024FC
:1016500014602C7A6A7B01EBC401120202F4E0628E
:10166000496842F064020A6080F86130E3E700BF35
:101670007865000070B490F8623045692B449E7C18
:101680008E420BD005F11104002314F8012FFF2A1C
:1016900004D08A4204D00133052BF6D170BC7047C8
:1016A00095E806000968114211D00A4901EBC60607
:1016B0001D44726800241460AC7CEA7D01EBC40117
:1016C000120202F4E062496842F064020A6080F8A3
:1016D0006230E3E77865000038B50269D478E4B297
:1016E000E106054624D51023D37063061FD504F008
:1016F000040404F0FF03002C5AD042496A6E002310
:101700000B7085F85D30002A66D0904795F85D3003
:10171000002B61D02B69D0229A702B6995F83B2061
:101720001A712B69012285F85C200222DA7038BD1B
:1017300004F0400303F0FF00002BD8D19379DBB213
:1017400003F0600160294ED0937803F0100303F09A
:10175000FF01B3B114F0010437D195F85C3095F86E
:101760005D1099424BD9591C2B4485F85C1093F8B5
:101770003B3013712B69D0229A702B690222DA70E8
:10178000D5E785F86010937943F0200393712B69B6
:1017900095F839101A791F29D2B2C6D8194800789D
:1017A0000028C2D06818013185F839100276BCE7EC
:1017B0002A6985F83930C02393702B69114A197949
:1017C000012111700222DA70B1E7C02393702B69F6
:1017D0001A790222DA70AAE70122002385F85D2037
:1017E00085F83B3096E703F0DF039371AB6E23B1CE
:1017F00085F8380095F8390098472A69A4E71471EC
:10180000B8E700BF7813FF1F2DE9F047374FDFF827
:10181000E0903B68026982B006460093DDF80080E4
:101820000021C825D3789B065BD53B680193019BBB
:10183000C8EB03030F2BF5D949B1102BF2D00020D0
:101840009070336980229A7002B0BDE8F0877269A7
:1018500096F8613013440521187A00F011FC726982
:1018600096F861301344012193F812A0504600F01D
:1018700007FC09240021504600F0FCFB2B46013BED
:10188000FDD10121504600F0F5FB2B46013BFDD177
:10189000013CEFD1706996F8611001444FF4C872B1
:1018A0000C7A4B7B09EBC4011B02496803F4E0632B
:1018B00043F064030B6096F862300344997CDB7D4F
:1018C00009EBC1011B02496803F4E06343F06403C0
:1018D0000B60013AFDD13269D3789B064FF00101CC
:1018E000A3D4012002B0BDE8F08700BF7C13FF1F26
:1018F000786500002DE9F04106690025122780F87F
:10190000385080F83950F770D0F810C09CF802E0D9
:101910000EF0200E88B00446884615461E46BEF1DD
:10192000000F49D0B4238CF80230784B21691A6833
:101930000092DDF800E006E01A6801920198CEEB13
:101940000000042830D8C87800F0200000F0FF071D
:101950000028F1D04FEA480242F00102D2B20A71E7
:101960001A680292DDF808E0206906E01A6803921E
:101970000399CEEB010105292AD8C17801F00201B3
:1019800001F0FF070029F1D04FF0020C80F803C0EE
:101990002269D17811F0110722D12DBB002E0CBF86
:1019A000A0238023937003E08F70236980229A70B4
:1019B000384608B0BDE8F0810EF0FF07FFF724FFBE
:1019C0000028F5D0236984F85F70B0229A70ACE7E4
:1019D00087702369802238469A7008B0BDE8F0818C
:1019E000802393700027E3E7012D75D0A02191702B
:1019F00021690A79BE4667464FF0A80C1A6804921E
:101A0000049805E01A680592059A121A052A4AD820
:101A1000CA7802F0020202F0FF08002AF2D0CF706A
:101A20002169CA78D2B212F0100F08465AD1920634
:101A300058D5013DEDB2012D49D0BEF11F0F3BD964
:101A40000A79012DDAD11A680692069D05E01A6816
:101A50000792079A521B052A46D8C27802F0020262
:101A600002F0FF01002AF2D00223C3702269D3786A
:101A7000DBB2D9063AD49B0634D5B023BEF11F0F92
:101A800093703FD8226904EB0E0312791A760EF197
:101A9000010E5FFA8EFE16B1236980229A7084F8D7
:101AA00039E0774684E781F80280236980229A70C2
:101AB000774684F839E07BE704EB0E0291F8048066
:101AC00082F818800EF1010E5FFA8EFEB9E781F8F8
:101AD00002C021690846B0E7A82191702069BE467E
:101AE0000279B0E7774663E78170DEE71021C8230B
:101AF000D170013BFDD12269937803F0F70377465B
:101B0000937055E723691B79C5E700BF7C13FF1F5E
:101B10000148FFF7E1BD00BF6807FF1F0148FFF75D
:101B2000DBBD00BFD407FF1F0148FFF7D5BD00BFD5
:101B3000FC06FF1FF0B507468BB0002A33D0012A00
:101B400008BF0A2251B3212400E0F4B2B1FBF2F540
:101B500002FB1511C8B2092900F1300198BFC8B2C3
:101B60000AA988BF3730214488BFC0B201F8240CCD
:101B7000661E2946002DE8D133B1013CE4B20AAB20
:101B800023442D2203F8242C3B6801AA11195B6819
:101B90003846C4F1220298470BB0F0BD30228DF8D0
:101BA00025202124E8E70368C9B21B6898470BB0D9
:101BB000F0BD00BFFFFFFFFF2DE9F04357EC106BB6
:101BC00085B005460C4610EE102A3B4610EE100A72
:101BD000394603F06BFF002840F0B28027F000493F
:101BE000304649464FF0FF32594B03F05FFF90B942
:101BF000304649464FF0FF32554B03F039FF50B99C
:101C00002B6854495B682846032298478046404623
:101C100005B0BDE8F0834FF060424F4B3046394687
:101C200003F03AFF002872D14FF060424B4B304630
:101C3000394603F013FF002869D100220023304603
:101C4000394603F00BFF002864D18146002C67D091
:101C5000434900204FF000083BA3D3E9002308F1DB
:101C6000010803F089FC5FFA88F39C42F4D802462D
:101C70000B463046394603F0CDFA0F46064603F0D0
:101C800053FF804603F002FC02460B4630463946BD
:101C900003F0BEFA4B4606460F460A224146284646
:101CA000FFF748FF0F2C28BF0F2404F101092E2352
:101CB00080465FFA89F98DF8003001240022294B13
:101CC0003046394603F058FC0F46064603F02CFF19
:101CD00004AB2344C0B200F1300203F8102C03F02F
:101CE000E5FB02460B463046394603F091FA0134D3
:101CF000E4B24C4506460F46E0D12B6822465B68AD
:101D0000284669469847404605B0BDE8F0832B68F1
:101D1000154977E707F100431F464FF0010995E7A2
:101D200000220F4B3046394603F074FA03F0FCFEF4
:101D30004B4601460A222846FFF7FCFE804666E72E
:101D40002B680A495EE700BF000000A09999B93FDF
:101D5000FFFFEF7F74650000FFFFEF41FFFFEFC162
:101D60000000E03F00002440706500006C6500004A
:101D700008B5FEF749FCFEF753FD01F0D1FAFAE78A
:101D8000844641EA000313F003036DD1403A41D386
:101D900051F8043B40F8043B51F8043B40F8043B45
:101DA00051F8043B40F8043B51F8043B40F8043B35
:101DB00051F8043B40F8043B51F8043B40F8043B25
:101DC00051F8043B40F8043B51F8043B40F8043B15
:101DD00051F8043B40F8043B51F8043B40F8043B05
:101DE00051F8043B40F8043B51F8043B40F8043BF5
:101DF00051F8043B40F8043B51F8043B40F8043BE5
:101E000051F8043B40F8043B51F8043B40F8043BD4
:101E1000403ABDD2303211D351F8043B40F8043B74
:101E200051F8043B40F8043B51F8043B40F8043BB4
:101E300051F8043B40F8043B103AEDD20C3205D384
:101E400051F8043B40F8043B043AF9D2043208D07C
:101E5000D2071CBF11F8013B00F8013B01D30B88EE
:101E600003806046704700BF082A13D38B078DD0CC
:101E700010F003038AD0C3F10403D21ADB071CBF9E
:101E800011F8013B00F8013B80D331F8023B20F808
:101E9000023B7BE7043AD9D3013A11F8013B00F841
:101EA000013BF9D20B7803704B7843708B788370C9
:101EB0006046704708B5104C08E0236859050DD4FA
:101EC00023681A050FD42368DB0411D42368580350
:101ED000F3D500F097FA23685905F1D500F00EF814
:101EE00023681A05EFD500F009F82368DB04EDD567
:101EF00000F004F8EAE700BF3480044008B5FFF7BB
:101F0000D9FF00BF014B10221A8070470020054006
:101F1000704700BF094908B50B6830B16A461844DC
:101F2000A2F50052904202D20860184608BD03F0A4
:101F30001BFE0C2303604FF0FF3008BD4008FF1F5D
:101F4000F0B44D1E2E46002400E00134B0FBF2F345
:101F500002FB1300092800F130078ABF3730F8B2BE
:101F6000C0B206F8010F1846002BEED10A195370C3
:101F70004CB1107815F8016F28700133E01A8342D4
:101F800002F80169F5DB0846F0BC704710B4114B4C
:101F900053F8302092F8804234B1012379B182F8AD
:101FA00080305DF8044B704703EBC0035B681A6830
:101FB00051B922F002021A605DF8044B704782F8B2
:101FC00000315DF8044B704742F003021A605DF87F
:101FD000044B7047786500001C4A02EBC0030129DE
:101FE0005B6811D004291BD052F83000002280F821
:101FF000802229B1022920D0032922D01A607047FB
:102000004FF480721A60704752F830004FF4A27299
:1020100080F880121A601A6822F020021A60704755
:1020200052F830104FF4A272012081F880021A6039
:102030001A6842F020021A60704740F203121A60D8
:1020400070474FF481721A60704700BF78650000D6
:1020500030B4054B054D064C002210211A602A6051
:102060002060196030BC704714D0034004D0034096
:1020700000D003403F2801D8FFF788BF704700BF5A
:102080003F2801D8FFF7A8BF704700BF2DE9F843EC
:10209000054672B6204F214B214A1B683C681268E6
:1020A00062B6520102D5322B88BF013495B3C3F515
:1020B000EA331C4EDFF86490DFF86480BF334FF4DE
:1020C0007A72A6FB031302FB04F404EB931472B6BA
:1020D000D9F800103A68D8F800E062B6C1F5EA33E2
:1020E000BF33A6FB03031EF0806FC4EB93134FF4C2
:1020F0007A7002D0322988BF013200FB0233B3F577
:102100007A7F04D3013D05D004F57A74DFE701F04E
:1021100007F9DCE7BDE8F8837C13FF1F18E000E057
:1021200004ED00E089888888F8B53E4B3E49DFF829
:1021300018C13E4E3E4ADFF814E13E4D3E4C3F4F43
:102140004FF0006018604FF0805018604FF0005062
:1021500018604FF0804018604FF000401860002079
:10216000086028234EF6FF71CCF80010CEF800303E
:1021700033600EF5012E13602B60236005F50025FA
:102180003B6004F50024B36207F50027936206F56F
:10219000012602F501220EF1100E05F6E87504F68F
:1021A000E87407F57F67103220362B602360CEF885
:1021B00000303B6013603360214EBB6193610922A4
:1021C0003260A7F5002706F58056203F08363860B4
:1021D0003160BB60F36047F8042C06F5FD2607F577
:1021E000FE2706F2FC76043730603960B360FB608E
:1021F00046F8042C0836C7F8FC0F06F6FC761148A2
:1022000031602B602360026001F02CF91920FFF788
:102210003DFF00F05DFE40F21310BDE8F840FFF70F
:1022200035BF00BF04E100E0048003401480034098
:102230001C800340248003402C80034034800340F2
:102240000080034000900B40088003400C80034056
:10225000431E032B14D872B60A4951F8230068B103
:1022600070B4094C058834F81320466841F823609F
:10227000521B24F8132062B670BC704762B67047D8
:1022800000207047D813FF1FE014FF1F01380328F8
:102290000BD872B6074B53F8203043B100205B686F
:1022A0000130002BFBD162B6704700207047184602
:1022B000F9E700BF2C14FF1F30B472B62B4A137815
:1022C0001D0706D52A4B196A002936D0996A0029BC
:1022D00041D053781C0706D5254B196C00293ED0F8
:1022E000996C002939D09378190705D5204B196EC0
:1022F000002936D0996E89B1D3781B0707D51C4BBE
:10230000D3F880207AB3D3F8882011213AB162B68D
:10231000184B00221A7030BC00F072BE0D21154C13
:10232000154D227843F8315003EBC1030830013AD0
:102330005860227062B630BC704704220D4C0F4DBD
:10234000217843F8325003EBC20308304A1E58602C
:10235000227062B6EFE70521E1E70921DFE70822F5
:10236000ECE70C22EAE71022E8E700BFA0670000D4
:102370000000FF1F5514FF1FC800400088004000E8
:10238000431E032B1DD81B4A400140F0100030B4FF
:10239000104472B6184CE25C032A1BD8DFE802F046
:1023A0000212151703220D88E25410F0080F14BF13
:1023B000C823882343EA054308310360416062B6BD
:1023C00030BC704708300222EDE70522EBE7083009
:1023D0000422E8E7094A52F8230038B1084A52F8C3
:1023E0002300416042F8231062B6E9E742F8231067
:1023F000034AF7E70000FF1F6414FF1F2C14FF1FA0
:102400003C14FF1F2DE9F04FDFF818B3DFF818A3D5
:1024100087B044E0AE4F4FEA930807EBC809013E8E
:10242000D9F8042003F00803F6B2A2F1080003F083
:10243000FF04002B40F0048157F838301B0C99B290
:1024400022F8081C002B00F0F280A24B22F8064C68
:1024500042F8044C53F82620002A00F06E819E4D6D
:1024600055F8263058609D4C45F8260034F8163053
:10247000194424F8161000F0A3FD002800F056813E
:10248000974A984B19F0080F00F1080018BF13463F
:10249000C9F8040047F8383008238BF800309BF85F
:1024A0000040E4B261071BD58F4B1B78ABB18F495D
:1024B0000A7802F0FF032AB1013BDBB20B70002B5C
:1024C00000F0EF848A490A7802F0FF032AB1013B49
:1024D000DBB20B70002B00F0F78004238BF8003088
:1024E00004F0080303F0FF02002B00F0D6809AF8F6
:1024F0000030DBB21E098DD19C08DFF8D49159F869
:10250000342009EBC401C2F38302013A49680C2A62
:102510007ED8DFE802F081817D7D7D7D7D7D477DF8
:102520007D7D07000868734D4A68734F734E2860BD
:1025300081B240F281606A4B6A604FF0010E002266
:10254000814249F834303A60C9F81020C9F818209F
:1025500086F800E05E4C00F2F480B1F5D06F80F0B8
:102560007883B1F5817F00F0628300F28782802951
:1025700000F0EC82822940F01E83A98801F07F01DF
:10258000042900F218835E485E4C890008442270DA
:1025900062700278930740F1798384F800E04FF08D
:1025A000020ED8E2544F3A6842B3574B534E574944
:1025B000188834780D784028864645F0020828BFF0
:1025C0004FF0400E002C84F001043470CEEB00007C
:1025D0000CBF8824C82409EBC80680B285F0010529
:1025E00044EA0E447260188049F8384072440D7015
:1025F00018B9BEF1400F18BF00223A603D4B1A884F
:10260000B2F5A06F04D100219A785970404B1A702E
:10261000404A012313703FE7364A158842F22100F1
:10262000854200F0FF812E4A49F83420F0E72C4A19
:102630002C4B19F0080F18BF134647F838302BE71A
:1026400000F0DEFC344A354952F82630002B00F009
:10265000B68158688C5D42F8260003F10802C9F87B
:102660000420032C05D8DFE804F0120F1502042221
:102670008A551A8819F0080F0CBF8823C82343EA2B
:10268000024347F8383007E702228A55F1E7032270
:102690008A55EEE705228A55EBE7E00700F11A823A
:1026A000210600F14982A20706D51D4A1D4913786B
:1026B0000220DBB213700870E30602D5194B10221A
:1026C0001A7007B0BDE8F08F00F006FE05E700BF06
:1026D0000000FF1FD813FF1F8413FF1FE014FF1F0C
:1026E000C8004000880040006014FF1FE913FF1F6E
:1026F0006814FF1F4C14FF1F8013FF1FE813FF1FF8
:10270000C02007405814FF1F9413FF1F5414FF1FCD
:1027100098200740942007402C14FF1F6414FF1FCB
:10272000882007408020074090200740AB4A47F8A8
:102730003800137801331370AEE643F82600A84D35
:1027400091E642F22100814200F0358100F2AF8132
:10275000B1F5086F00F01B82B1F5106F40F02B82CD
:10276000226AA049A8780870120600F14583D9F8BA
:1027700028209D49130600F13A83D9F830209A4960
:10278000150600F12F83D9F838209749140600F177
:102790002483D9F840209449100600F11983D9F810
:1027A00048209149120600F10E83D9F850208E4935
:1027B000130600F10383D9F858208B49150600F160
:1027C000F882D9F860208849140600F12983D9F8E5
:1027D00068208549100600F11E83D9F870208249CF
:1027E000120600F11383D9F878207F49130600F10F
:1027F0000883D9F880207C49150600F11C83D9F89C
:1028000088207949140600F11083D9F89020764980
:10281000100600F1C882D9F898207349120600F119
:10282000BC827248724A7349019073486C4D734C74
:102830000497002305960295804617460E461D46CE
:102840000394386828B1446800F0DAFB2046002C75
:10285000F9D100233B60029B30681A46002342F8FE
:10286000253028B1446800F0CBFB2046002CF9D17C
:1028700000223260019A98F800301146002241F897
:10288000042B039A0191023B4FF0000122F815102E
:10289000032B09D8DFE813F04B0104004B010400BF
:1028A0004FF0010388F800300135042D07F10407CB
:1028B00006F1040608F10108C3D1514C514B2278AE
:1028C000464D049F059E002129701A70130700F1E0
:1028D0004F8262784C49DFF810810A7010074FF080
:1028E0000001C9F83010C9F8381000F12B824749AF
:1028F000A2780A700021C9F85010C9F858101107C1
:10290000DFF8E48000F1DC81E2784149364C0A705E
:1029100000211207C9F87010C9F8781000F1B981C8
:1029200033780193002183F00102C9F89010C9F8AF
:1029300098100020029080468446044635490D7860
:1029400045F0020E09EBCE030393019B002B039B82
:102950005C600CBF8824C82444EA080385F00104A5
:1029600049F83E3032700C70DFF87CE02A4BDFF81B
:10297000A480002840F02681BCF1400F1BD144F018
:10298000020C09EBCC03029CDFF85CE05C60002ADF
:1029900040F02E81020442F088029DF804304EF887
:1029A0003C20044433700D702346402803D100209E
:1029B0001A4A3B6010801A4A0123137028E68B5D87
:1029C000032B00F22D8101A252F823F0992400007C
:1029D00099240000232B0000292B00005514FF1F11
:1029E0008413FF1F6014FF1F0000FF1F3C14FF1F14
:1029F000D813FF1F2C14FF1F6414FF1FE014FF1FC8
:102A0000A0670000C4200740C8200740CC20074032
:102A1000D02007405414FF1FE813FF1F9413FF1F1B
:102A200094200740928892B9B14A0D784878157081
:102A300050708D78C8789570D07010680D791571C8
:102A400086284D7989795571917100F0A580A94941
:102A5000A94E0A78307882F00105002842F002027F
:102A60000D700CBF8821C82149F8321009EBC20251
:102A700080F00100002130705160D4E540F2023254
:102A8000914240F08D80A98801F07F01042900F275
:102A900092806A88002A40F08E809848CDF804E041
:102AA00089000844017841F00201017041E742F2D7
:102AB000212081427BD1A988002940F0E480904BFD
:102AC000904A9148AC781D681560CDF804E00A463C
:102AD00004702EE78D4B8E4886491A614FF0020E26
:102AE00080F800E0854F0A708A49196099608A4E23
:102AF0008A4D8B4C9A610D213970FF213170DFF8BE
:102B000040E229702270874D874A8EF800109F2777
:102B1000012406F8047C5D600470DA6007B0BDE84B
:102B2000F08F00238B55B7E401238B55B4E44FF0AD
:102B3000000388F80030B7E67049784B80220D20FA
:102B400008701A70A2077FF5B7ADAEE5774C4FF06D
:102B5000020E22706270EA88724580F0A381654996
:102B60000D78402A944645F0020E28BF4FF0400CE5
:102B700004EB0C0309EBCE000293012344604FEAFF
:102B80000C48CCEB020001930022C824E4E6684A1A
:102B9000664C12782270DEE7664A0F21117056E704
:102BA000B1F5A06F07D1012300220193C1E642F2E3
:102BB00021329142F7D0514A0F231370544A012316
:102BC000137025E540287FF6DAAE44F002040EEBE0
:102BD000C401029E4E60BAB19DF80410564A1970A5
:102BE0003346403888F8005040334EF83420DFE652
:102BF0009DF8043033700204029B0D7042F0C8024D
:102C000003444EF83C20D0E69DF804101970029B56
:102C1000404A88F80050403840334EF83420C7E628
:102C200019F0080F0CBF022303238B5534E4A98845
:102C300001F07F010429BED86A88002ABBD12F4841
:102C4000CDF804E089000844017821F00201017008
:102C50006FE63A4A5468002CADD06888B5F804E0B5
:102C600003E00C325468002CA5D013888342F8D1BD
:102C700053887345F5D1000A03280CBF94F800E08F
:102C8000B2F808E067E7CDF804E052E64FF0020E34
:102C900061E700F095F9002800F0F18008301D4A46
:102CA000C4F88400C4F8802000F08AF9002800F0FD
:102CB000E0800830204AC9F88C00C9F888202FE647
:102CC00000F07EF9002800F0E6800830114AC8F8CC
:102CD0006400C8F8602000F073F9002800F0D58087
:102CE0000830154AC9F86C00C9F868200CE600BF26
:102CF000E814FF1F5414FF1FE813FF1FC0200740F4
:102D00007C13FF1FF014FF1F7814FF1F0000FF1F2C
:102D1000942007408800400088200740802007401A
:102D2000982007409813FF1FEC13FF1F5814FF1F34
:102D30006014FF1FE913FF1FC8004000A4670000D4
:102D40008C20074000F03CF9002800F08C8008300F
:102D50005D4AC8F84400C8F8402000F031F9002866
:102D60007BD00830594AC9F84C00C9F84820BEE564
:102D700000F026F900286AD00830534AC9F8240028
:102D8000C9F8202000F01CF900285AD008304F4A1A
:102D9000C9F82C00C9F828209BE5D1F89C00083818
:102DA00000F02EF93DE5D1F89400083800F028F93C
:102DB00031E5C86D083800F023F902E5486D0838A0
:102DC00000F01EF9F7E4C86C083800F019F9ECE4DB
:102DD000486C083800F014F9E1E4C86B083800F0DA
:102DE0000FF9D6E4486B083800F00AF9CBE4C86A5A
:102DF000083800F005F9C0E4606A083800F000F90E
:102E0000B5E4C86F083800F0FBF8F2E4486F083802
:102E100000F0F6F8E7E4C86E083800F0F1F8DCE4FA
:102E2000486E083800F0ECF8D1E4D1F88C0008388E
:102E300000F0E6F8E9E4D1F88400083800F0E0F8A2
:102E4000DDE42A78C9F8280001322A7041E52A78A1
:102E5000C9F8200001322A7094E72A78C9F848009E
:102E600001322A7043E52A78C8F8400001322A70FE
:102E700073E72A78C9F8880001322A7050E52A7869
:102E8000C4F8800001322A700EE72A78C9F8680079
:102E900001322A7038E52A78C8F8600001322A70B9
:102EA00019E700BEBEF1400FF44628BF4FF0400CBA
:102EB00004EB0C0302930123CCEB0E004FEA0C4809
:102EC000002201933AE500BF88004000C80040009E
:102ED0002DE9F843244C00F037FB002204F1A00058
:102EE00023461A605A60083383424FF00001F8D13C
:102EF0001E481F4A0368DFF890E01E4F1E4D1F4E0C
:102F0000DFF88880DFF888C0DFF8889043F48023FA
:102F1000036013681A4843F040731360C4F3072337
:102F20008EF80030C4F307433B70240EFF2302F5F4
:102F3000C9222C7002F5847288F80030114D8CF88B
:102F400000303370012389F8003070268EF8641049
:102F50004FF40014102107F82C3C2E7004601170FF
:102F60000EF1640EBDE8F8830000FF1F34800440BA
:102F700000D80040B0200740B42007401020074090
:102F800004E100E035E400E09C2007408020074099
:102F9000882007409420074000F0A2B800F07AB8DB
:102FA00000F054B800F08EB800F06AB900F044B9EF
:102FB0000846114600F0B0B8084600F031B900BF2D
:102FC00072B60D480268B2FA82F30B2B10DC4FF098
:102FD0000041D94022EA0102026062B6074803EBD1
:102FE000C303DB00C2180021C15010465160704776
:102FF00062B60020704700BF5408FF1F9803FF1FF0
:103000000D4B0E4AC31AA2FB03231B090B2B0CD832
:103010000B4A127852B972B60A484FF00041026862
:1030200021FA03F31A43026062B67047064A127827
:10303000002AF0D0FFF740B99803FF1F398EE3381C
:103040005514FF1F5408FF1F6014FF1F38B50F4DA4
:10305000286878B143880288C118013393420C7AFA
:1030600002D24380204638BDFFF7CAFF0023204626
:103070002B6038BD064B1B782BB10320FFF7E8F817
:1030800028600028E6D14FF0FF3038BD7414FF1FD0
:103090006014FF1F10B5094C206818B1438818440C
:1030A000007A10BD064B1B782BB10320FFF7D0F838
:1030B00020600028F2D14FF0FF3010BD7414FF1FC4
:1030C0006014FF1F044B054A1B6890881BB11A88C7
:1030D0005B88D31A184470477414FF1FE014FF1F55
:1030E0000B4B1B789BB110B50A4C206848B1FFF719
:1030F00087FF002303202360FFF7AAF830B1FFF712
:103100007FFF0320FFF7A4F80028F8D110BD704717
:103110006014FF1F7414FF1F2DE9F04FDFF8F890C3
:1031200083B0012289F80020019169B3DFF8EC80B7
:10313000364F019E8346D8F80000B0B3344D448822
:10314000C4F14001B14228BF314604EB010E002218
:103150001FFA8EFE2A70761AA0F802E000F108022B
:1031600051B1013C224459441BF8014B02F8014F74
:103170008B45F9D1B0F802E0BEF13F0F0BD8254ADC
:1031800005211170002ED6D10198002389F8003056
:1031900003B0BDE8F08F4022028001460420FFF713
:1031A000EFF80022C8F80020E9E73A782AB3184D72
:1031B0004DF2E9044FF0010A07E0013C16D02A78ED
:1031C000A2B900F0ADF83A78BAB10420FFF75EF882
:1031D0000728F2D889F800A0FFF7F2FEC8F800002F
:1031E0000028ACD10C4B013C1870E8D101234FF002
:1031F000FF302B7003B0BDE8F08F00234FF0FF309D
:1032000089F8003003B0BDE8F08F00BF6014FF1FE5
:103210007014FF1F6814FF1F6914FF1F6C14FF1F39
:1032200000B583B002AB012103F8010D1846FFF78A
:1032300073FF03B05DF804FB38B50E4D0E4C2868E3
:103240000123237028B1408800232370C0F140007F
:1032500038BD0A4B1B7813B90020207038BD0420FC
:10326000FFF714F80728F7D8FFF7AAFE2860002810
:10327000E9D1F1E76C14FF1F6914FF1F6014FF1FF1
:10328000F8B5114B1B788BB1104E114D34680127E6
:103290002F7064B10F4A638800271770214623807E
:1032A0000420FFF76DF8376000232B70F8BDFFF79F
:1032B00087FE084B28B1014604201C70FFF760F818
:1032C000F2E71F70F0E700BF6014FF1F6C14FF1FD0
:1032D0006914FF1F6814FF1F38B50E4B1B7873B9B4
:1032E0000D4C216861B103F0FF054B880B80042071
:1032F000FFF746F8256038BD084B01221A7038BD2B
:10330000FFF75EFE0028F7D00146BDE838400420F4
:10331000FFF736B86914FF1F6C14FF1F6814FF1FF6
:103320002DE9F843314E337893B1314F3A787AB979
:103330000122D9073A7036D49A0719D400225B07C4
:103340003A7005D52B4B1A6812B1EFF305820AB11A
:10335000BDE8F883EFF3108172B6186818B1264CF7
:103360002278002A2ED00029F2D162B6BDE8F88377
:10337000DFF8908098F80020002ADFD0DFF88890EE
:10338000002405E0013498F80030E4B2A34212D9D9
:1033900059F824502B6828461B6998470028F1D01B
:1033A0002B699847EEE7FFF78DFEC8B9134B1B78E2
:1033B0001BB93378C0E73378C0E7337803F0FE03F6
:1033C0003370B9E745691D60012323705DB1AA61BF
:1033D00001B962B600254577836898472570B7E73D
:1033E00000F0B0F8E2E7064B1D60F1E75808FF1F58
:1033F0007914FF1F8814FF1F8C14FF1F5B08FF1F29
:103400008414FF1FA814FF1F9014FF1F70B5EFF363
:10341000108272B60C4C206880B10C4E00254369B6
:10342000236073B19D6102B962B64577836898479E
:10343000EFF3108272B620680028F0D102B962B6AC
:1034400070BD3360EFE700BF7C14FF1F8014FF1FC7
:10345000FFF7DCBF024A136801331360704700BFF7
:103460007C13FF1F30B42948294A2A4B2A4D602477
:10347000E121047011701B78284C082B30D00A2BE6
:103480002748284937D00C2B0CBF35225D22122348
:103490002A60236002600B60234B24491B78244A76
:1034A000BBB101230B601360224B23491B78234AD5
:1034B000012B26D9042B0FD9082B1ED9102B94BF12
:1034C000862387230B6013601D4B01221A7030BCCA
:1034D00070470B601360E7E784230B601360F3E72A
:1034E00000F58E200F490830212213232A60236023
:1034F00002600B60D0E73922F7E785230B60136089
:10350000E2E780230B601360DEE700BF0040074066
:10351000014007405908FF1F08B003400CB00340AA
:1035200008B00B400CB00B40AA14FF1F20B00340A2
:1035300020B00B405A08FF1F24B0034024B00B40BA
:10354000A914FF1F704700BF72B6184A184B1949DB
:103550001160702280211A701A46197013781B06A8
:10356000FCD510B5144B84B0186862B6134B144CDC
:10357000984298BF00EB800001A998BF40000A2242
:10358000FEF7DEFC01A92046002311F8012B0133D0
:103590003AB10A2B20F8022FF7D11623237004B07A
:1035A00010BD5B00DBB2237004B010BD040002400C
:1035B00000000240000007410C0002407F96980086
:1035C000E808FF1FFFFFFFFF00B551EC100B2C4A6E
:1035D00021F00043934285B020DD2A4A934209DD61
:1035E00010EE102A0B4601F013FE41EC100B05B053
:1035F0005DF804FB684600F003FA00F003000128C0
:1036000028D0022815D060B301209DED021B9DED4E
:10361000000B01F041FA51EC100BE6E79FED161B91
:1036200000F0E6FC51EC100B41EC100B05B05DF81E
:1036300004FB9DED021B9DED000B00F0D9FC53EC4B
:10364000102B10EE100A03F1004141EC100B05B0F5
:103650005DF804FB9DED021B9DED000B01F01CFAD3
:10366000EDE79DED021B9DED000B00F0C1FC51EC60
:10367000100BBAE7AFF3008000000000000000006C
:10368000FB21E93FFFFFEF7F00B551EC100B2C4A07
:1036900021F00043934285B027DD2A4A934209DD99
:1036A00010EE102A0B4601F0B3FD41EC100B05B0F3
:1036B0005DF804FB684600F0A3F900F00300012860
:1036C00027D002281DD068B39DED021B9DED000B95
:1036D00000F08EFC53EC102B10EE100A03F10041A9
:1036E00041EC100B05B05DF804FB00209FED121BB0
:1036F00001F0D2F951EC100B41EC100B05B05DF864
:1037000004FB01209DED021B9DED000B01F0C4F9AF
:10371000E0E79DED021B9DED000B00F069FC51EC14
:10372000100BC2E701209DED021B9DED000B01F087
:10373000B3F951EC100BB8E70000000000000000E6
:10374000FB21E93FFFFFEF7F00F062B82DE9F04376
:103750002DED028B8BB055EC104B00F077FB294B15
:10376000B0EE408AF0EE608A93F90060731C12D0CC
:1037700022462B462046294602F098F9074650B9C2
:103780004FF000084FF000092046294642464B46BC
:1037900002F064F940B9B0EE480AF0EE680A0BB0E6
:1037A000BDEC028BBDE8F083174B08970122CDE9F1
:1037B0000445CDE902458DE80C00B6B142464B46C2
:1037C0004046494602F002F8022ECDE906010ED12C
:1037D00002F0CAF921230360089B73B99DED060B23
:1037E0000BB0BDEC028BBDE8F083CDE906896846DD
:1037F00001F072FC0028EFD1EAE702F0B5F9089B6E
:103800000360EBE7FE08FF1FF8670000FFFFFFFF04
:1038100051EC110B43422DE9F047034321F00048DE
:10382000754F48EAD373BB4255EC104B49D86342FD
:10383000234325F0004A4AEAD373BB42A94640D845
:1038400001F1404303F5801303438E4650D08E1799
:1038500006F0020654EA0A0346EAD57639D050EA61
:1038600008033ED0B84555D0BA453AD0C8EB0A084F
:103870004FEA2858B8F13C0F40DC002970DB0246C3
:103880000B462046294601F0A1FF41EC100B01F048
:103890008BFB01F0CDF951EC100B012E5AD0022E0A
:1038A00048D0002E42D03EA3D3E9002301F0B0FC63
:1038B0003DA3D3E9002301F0ABFC41EC100BBDE8C4
:1038C000F08722462B4601F0A5FC41EC100BBDE829
:1038D000F087022E16D0032E0ED19FED350BBDE8DA
:1038E000F087B9F1000F11DB9FED330BBDE8F087D6
:1038F000BDE8F04701F09CB9BDE8F0872EA1D1E901
:103900000001CAE79FED280BBDE8F0879FED2C0B67
:10391000BDE8F087C24529D0022EF3D0032EDCD0BB
:10392000012E2DD09FED280BBDE8F08741EC100B48
:10393000BDE8F0871AA3D3E9002301F069FC024631
:103940000B4619A1D1E9000101F062FC41EC100B1A
:10395000BDE8F08701F1004141EC100BBDE8F087B4
:1039600018F13C0F8BDA0020002196E7022E13D0CD
:10397000032E0DD0012E07D09FED150BBDE8F0876B
:103980009FED150BBDE8F0879FED150BBDE8F087A7
:103990009FED150BBDE8F0879FED150BBDE8F08797
:1039A000075C143326A6A13C182D4454FB21094082
:1039B000182D4454FB2109C0182D4454FB21F93F14
:1039C000182D4454FB21F9BF000000000000000046
:1039D000182D4454FB21E93F000000000000008046
:1039E000182D4454FB21E9BFD221337F7CD902C07A
:1039F000D221337F7CD902400000F07FFFFFFFFF20
:103A00002DE9F04F53EC102B974923F0004B8B45D9
:103A10008FB040F3878095498B451C46824629DC50
:103A2000002C194610EE100A85A3D3E9002340F3B9
:103A3000A58101F0EDFB8E4B9B4504460D4600F041
:103A4000878081A3D3E9002301F0E2FB02460B4605
:103A5000CAE900232046294601F0DAFB7AA3D3E91C
:103A6000002301F0D5FB0125CAE9020128460FB069
:103A7000BDE8F08F7F498B4540F387807E498B45B9
:103A80005BDC4FEA2B55A5F21645ABEB055710460C
:103A9000394610EE106A02F01FF801F007FD80466B
:103AA000894642464B4630463946CDE9088901F001
:103AB000AFFB0022714B01F05FFD8946804602F0AA
:103AC0000BF801F0F3FC06460F4632463B464046F3
:103AD0004946CDE90A6701F09BFB0022674B01F0E4
:103AE0004BFD00220023CDE90C0101F0ADFF0028C1
:103AF00000F07081002330463946002201F0A4FF17
:103B0000002814BF012302235D4A01920221009183
:103B10002A46514608A800F0AFFB002CC0F24C81A9
:103B2000054606E080ED000B00250024C0E90245B3
:103B3000002528460FB0BDE8F08F10EE100A194698
:103B400001F066FB0025CAE90201CAE90001F0E7BD
:103B50003FA3D3E9002301F05BFB3FA3D3E900239C
:103B60000D46044601F054FB02460B46CAE9002309
:103B70002946204601F04CFB37A3D3E9002301F08E
:103B800047FB0125CAE90201D3E701F00DFA57EC22
:103B9000106B10EE100A32A3D3E90023394601F06E
:103BA000EBFC0022374B01F035FB01F095FF054699
:103BB00001F07CFC22A3D3E90023CDE9040101F04C
:103BC000DBFC02460B463046394601F021FB1EA3C2
:103BD000D3E9002380468946DDE9040101F0CCFCED
:103BE0001F2DCDE9020151DC274B6A1E53F822300C
:103BF0009B454BD002460B464046494601F008FB28
:103C000006460F46CAE9006732463B4640464946EB
:103C100001F0FEFADDE9022301F0FAFA002CCAE90C
:103C2000020186DA07F1004401F100436D42CAF84F
:103C30000060CAF80440CAF80800CAF80C3078E7F7
:103C400000004054FB21F93F3163621A61B4D03D5A
:103C50000000601A61B4D03D7370032E8A19A33B33
:103C600083C8C96D305FE43FFB21E93F7BD9024047
:103C7000FB21F93FFB213941FFFFEF7F000070413D
:103C8000806800000000E03F00680000DDE90223DA
:103C90004046494601F0BCFA4FEA2B5BC1F30A5398
:103CA000C3EB0B0306460F46102BCAE90067ABDDDA
:103CB0005DA3D3E90023DDE9040101F05DFC0646C4
:103CC0000F4602460B464046494601F0A1FACDE9AF
:103CD000060102460B464046494601F099FA324633
:103CE0003B4601F095FA52A3D3E9002306460F465E
:103CF000DDE9040101F040FC32463B4601F088FA60
:103D00000B46CDE902010246DDE9060101F080FA29
:103D1000C1F30A53C3EB0B0B06460F46BBF1310F41
:103D2000CAE9006776DD45A3D3E90023DDE9040194
:103D300001F022FC06460F4602460B46DDE906016D
:103D400001F066FA02460B4680468946DDE9060127
:103D500001F05EFA32463B4601F05AFA39A3D3E944
:103D6000002306460F46DDE9040101F005FC32465A
:103D70003B4601F04DFACDE902013BE701F04AFA7A
:103D80002D4B9B4504460D4626D025A3D3E90023A1
:103D900001F040FA02460B46CAE9002329462046B4
:103DA00001F036FA1EA3D3E9002301F033FA4FF0F5
:103DB000FF35CAE90201BCE6DAF80420DAF80C3073
:103DC00002F1004203F100434542CAF80420CAF858
:103DD0000C30AEE6032397E613A3D3E9002301F0EA
:103DE00019FA13A3D3E900230D46044601F012FA91
:103DF00002460B46CAE900232946204601F008FA8C
:103E00000BA3D3E9002301F005FA4FF0FF35CAE90F
:103E100002018EE6DDE90689F6E600BFAFF3008019
:103E20003163621A61B4D03D0000601A61B4D03DC4
:103E30007370032E8A19A33BFB21F93F0000002E6B
:103E40008A19A33BC14920259A837B392DE9F0418A
:103E5000654955EC104B0E462940B14200F0978061
:103E6000002D2B4610EE102A74DD2F157FD0A7F2FF
:103E7000FF37C3F31303F90743F4801365D403EB4F
:103E8000D27100260B447F105200B64616204FF424
:103E900000110EEB01049C424FEAD2754FEA420238
:103EA00003DC1B1B04EB010E0E44013805EB43033E
:103EB0004FEA5101EDD1844620244FF0004109E042
:103EC00020D003EBD275013C4FEA51012B444FEA5D
:103ED000420220D09E4501EB0C05F1DA002D05EBE6
:103EE000010C09DBF0469542CEEB030300D9013B00
:103EF000521B0844C646E4E7BCF1000FF2DB0EF1AA
:103F00000108F0E795421ED8002D05EB010C50DBAF
:103F100098460023ECE7134304D0421C4DD000F038
:103F20000103184440087110F30701F17F5101F5B6
:103F3000001148BF40F0004001EB0753024643EC3C
:103F4000102BBDE8F0817346BBE75B0003EBD27337
:103F5000520094E725F00041214328D0ADBB2F4605
:103F6000D30A153F5205002BFAD0DD0228D40021D8
:103F700000E001465B00DC0201F10100F9D5C0F16F
:103F8000200422FA04F423437F1A82406FE710EEE4
:103F9000102A2B4610EE100A294601F0EDFA2246AF
:103FA0002B4601F037F941EC100BBDE8F081BDE87C
:103FB000F081BCF1000FA2DAAAE701362046B2E791
:103FC00020244FF0FF310020DBE710EE102A2B46B3
:103FD0002046294601F01CF902460B4601F0F6FB8B
:103FE00041EC100BBDE8F0810000F07FFFFFFFFF08
:103FF0002DE9F04F57EC106B2DED028BB0EE418A9E
:10400000F0EE618A27F00049B9F1795F83B072DA86
:1040100010EE100A394601F05FFD002800F0F6802E
:1040200032463B463046394601F0A6FA7CA3D3E936
:10403000002304460D4601F09FFA7BA3D3E9002339
:1040400001F0E8F822462B4601F096FA78A3D3E96E
:10405000002301F0DDF822462B4601F08DFA76A30D
:10406000D3E9002301F0D6F822462B4601F084FA6A
:1040700073A3D3E9002301F0CBF822462B4601F0CD
:104080007BFA71A3D3E9002301F0C4F822462B4642
:1040900001F072FA82468B460022714B2046294677
:1040A00001F06AFA5246804689465B462046294618
:1040B00001F062FA53EC182B04460D46304639469F
:1040C00001F05AFA02460B462046294601F0A0F8B4
:1040D00002460B464046494601F09AF802460B4616
:1040E0000020604901F094F841EC100B03B0BDECE6
:1040F000028BBDE8F08F10EE102A10EE100A3B463E
:10410000394601F039FA46A3D3E9002304460D46A7
:1041100001F032FA44A3D3E9002301F07BF82246F0
:104120002B4601F029FA42A3D3E9002301F070F8ED
:1041300022462B4601F020FA3FA3D3E9002301F0E9
:1041400069F822462B4601F017FA3DA3D3E9002374
:1041500001F05EF822462B4601F00EFA3AA3D3E9AD
:10416000002301F057F82B46224601F005FA3E4B9A
:10417000994582468B468FDD3C4B99453DDC0022BC
:10418000A9F50013002037499046994601F040F800
:10419000CDE900010022324B2046294601F0ECF91E
:1041A00042464B4601F034F85246804689465B460B
:1041B0002046294601F0E0F953EC182B04460D4641
:1041C0003046394601F0D8F902460B4620462946CA
:1041D00001F01EF802460B464046494601F018F829
:1041E00002460B46DDE9000101F012F841EC100B2C
:1041F00003B0BDEC028BBDE8F08F9FED157B4FF057
:1042000000088DED007BDFF86890C3E79FED120B8F
:1042100003B0BDEC028BBDE8F08F00BFAFF30080B0
:10422000D43888BEE9FAA8BDC4B1B4BD9EEE213E23
:10423000AD529C804F7E923E9015CB19A001FA3E64
:104240007751C1166CC1563F4C5555555555A53F34
:10425000000000000000E73F000000000000F03F09
:104260000000E03F0000F03F3233D33F0000E93F61
:104270000000D23FFFFFFFFF2DE9F04FADF51B7DA2
:10428000814CA49E814D54F8264007942646D41EA6
:1042900085FB0475E417C4EBA50424EAE4741D4609
:1042A0000A93631CA3EB8303013D02EBC303069354
:1042B0002B460B940095651BF4180390089116D4B7
:1042C0002C44013422AEA59F08E057F8250001F0E8
:1042D000EDF80135A542E6E8020108D0002DF4DA38
:1042E000013500200021A542E6E80201F6D1079B36
:1042F000002BC0F2C283079B039ADDF800A003F1F4
:10430000010B0A9B0DF5E479DB00049309EBCB0B61
:1043100002EB0308009B002BC0F2928122AB03EB5F
:10432000CA05039C08350026002775E90223F4E836
:10433000020101F021F902460B463046394600F0F1
:1043400069FF444506460F46EFD1E9E80267D945C3
:104350000AF1010ADED107990498039C049101F146
:104360008043023B9B0020441A1D83460EA8024452
:1043700003440D920C93049A9AA901EBC203002AFC
:1043800053E9284529DD0DF5E47A0AEBC2080DF161
:10439000340900223E4B2046294601F0EDF801F099
:1043A0009BFB01F083F800223A4B06460F4601F0D2
:1043B000E3F802460B462046294600F029FF01F0AB
:1043C0008BFB78E9022349F8040F3946304600F0A8
:1043D00021FFD04504460D46DBD1DDF8189045ECB1
:1043E000104B484600F07CFE55EC104B00224FF07D
:1043F0007F5310EE100A294601F0BEF841EC100B75
:1044000000F0DAFD002251EC100B234B01F0B4F860
:1044100002460B462046294600F0FAFE0D460446A9
:1044200001F05AFB804601F041F80B46024629464E
:10443000204600F0EDFE4B46002B06460F4640F3AB
:10444000E580049A0EA9013AC9F1180351F82250E7
:1044500045FA03F101FA03F30EA8EB1A40F82230F3
:10446000C9F11705884443FA05F5002D41DD049B89
:10447000002B08F1010840F3C982002214460DA95F
:104480000498AE4612E000BF88690000ABAAAA2AD1
:104490000000703E0000704100002040C3F18075B4
:1044A0000BB10D600124013290420DDD51F8043F43
:1044B000002CF3D0C3F1FF13013203F57F43904288
:1044C0000B604FF00104F1DC7546069B002B0EDDFE
:1044D000012B00F0A380022B09D1049B5A1E0EABC6
:1044E0000EA953F82230C3F3150341F82230022DF0
:1044F00074D0002200233046394601F0A5FA002886
:1045000000F04982049A079B501E834210DC02F19E
:104510008043013B0EAA0D9C02EB8303002253F85B
:104520000419A34242EA0102F9D1002A40F0A48012
:10453000079B0EAA013B52F82330002B40F0648207
:104540000C9A012352F8041901330029FAD0049A75
:10455000D31802F1010A9A4509933CDC0B9B0A9A95
:1045600009990AEB0309049B984690448B1809F1BA
:104570008049A59A09F1FF3902EB890922AA02EBC9
:10458000C303049372AB02EBC80803EBCA0A59F8E1
:10459000040F00F08BFF009B002BE8E802014FF0B6
:1045A00000064FF0000711DB039C454675E9022326
:1045B000F4E8020100F0E0FF02460B4630463946BF
:1045C00000F028FE5C4506460F46EFD1049B984557
:1045D000EAE80267DBD1099B0493CCE632463B460E
:1045E0000020B34900F014FE06460F46002C80D090
:1045F00006989FEDAB0B00F073FD3046394653EC47
:10460000102B00F005FE06460F4672E711D1049B01
:104610000EAA013B52F82350ED1526E7049B5A1EC3
:104620000EAB0EA953F82230C3F3160341F8223023
:104630005DE700229F4B01F025FA58B9054658E77F
:1046400000260027E9E80267D9450AF1010A7FF44C
:1046500061AE80E6049B002B08F10108C8BF02256B
:104660003FF70BAF32463B460020914900F0D0FDAA
:10467000022506460F463CE70EA9CDF8248051F8E6
:1046800020300699009018390246039506916BB9BF
:1046900000F18043013B0EA800EB830353F80409AB
:1046A000013A18390028F9D00092069106989FED3A
:1046B0007C0B00F015FD009B002B55EC104BC0F25D
:1046C000C181DA000DF5E4780EA901EB830608EB51
:1046D000020B069204360BF1080756F8040D00F0A1
:1046E000E5FE22462B4600F047FF002267E9020163
:1046F000714B2046294600F03FFF474504460D46D2
:10470000EBD14AACDDF81C9004944FF0000AB9F1EB
:10471000000FC0F22B81DFF8A4815D4662A3D3E9CC
:10472000002300260027002403E0A24510DBF8E860
:104730000223F5E8020100F01FFF02460B46304657
:10474000394600F067FD0134A14506460F46ECDA14
:10475000049B03EBCA03ABF1080BC3E9006770AB22
:104760009B450AF1010AD2D1A49B049C032B00F2C1
:104770008D80DFE813F0DD00A500A5000400009B9C
:10478000002B40F35C81009B03F1005B069B0BF167
:10479000FF3BE2184FEACB03D2E9008903F108029C
:1047A000103304EB020AE5183AED027B42464B4611
:1047B00051EC170B8DED047B00F02CFD06460F46E7
:1047C00002460B46DDE9040100F022FD4B4642465D
:1047D00000F020FD65E902014CAB9D42B046B946B0
:1047E000CAE90067E0D1009B012B40F32881069BBA
:1047F000234493ED007B4FEACB0B0BF1100A8DEDB8
:10480000007BA2440BF1080B04EB0B05D0460DF521
:104810009C7BCDF810A075E9029ADDE900014A46BB
:10482000534600F0F7FC06460F4602460B46484644
:10483000514600F0EDFCDDE9002300F0EBFC68E9F7
:104840000201C345CDE90067C5E90067E3D1DDF8A2
:1048500010A0002000217AE9022300F0DBFCD34500
:10486000F9D1039B002B00F0D3806268E368089FB6
:104870002568A4683D6002F1004203F1004301F1A4
:1048800000417A60FB60BC6038617961099B03F08C
:1048900007000DF51B7DBDE8F08F00BFAFF3008072
:1048A000000000000000F03F00000040FB21F93F45
:1048B0000000F03F0000E03F0000703EA0690000F3
:1048C000069D083525440020002175E9022300F0EB
:1048D000A1FCA542F9D1039B002B4AD0089E0246B9
:1048E00001F1004386E80C000B460246D4E90001C2
:1048F00000F08EFC009B002B0DDD4CAD0124F5E893
:10490000022300F087FC009B0134A342F7DA039BEB
:10491000002B00F0A78001F1004308990246C1E98D
:104920000223099B03F007000DF51B7DBDE8F08F06
:10493000069B009D0833002000211C4474E90223DB
:10494000013D00F067FC6B1CF8D1039B0246002B75
:1049500000F08E8001F100430899C1E90023099B12
:1049600003F007000DF51B7DBDE8F08F0026002742
:10497000EEE6089B0246C3E900010B46D4E90001BC
:1049800000F046FC009C002C02460B46B5DC089962
:10499000C1E90223C5E7069B0395584247EC106B1B
:1049A000CDF8248000F09CFB55EC104B0022384BD6
:1049B00010EE100A294601F065F8002834D00022D4
:1049C000344B2046294600F0D7FD01F085F8064615
:1049D00000F06CFD00222E4B00F0CEFD02460B468F
:1049E0002046294600F014FC01F076F80499069B55
:1049F0000A461833013206930B460EA9009241F87D
:104A0000230041F8226051E60123A0E500245CE583
:104A1000D4E90067D4E90223089DC5E90401C5E98A
:104A20000067C5E9022331E72946204601F054F822
:104A3000049A00920EA941F8220037E64AAC002001
:104A400000210EE7A49B032B3FF620AF01A252F8F2
:104A500023F000BF8B4A0000834A0000834A000015
:104A60003D4A00000B4608990246C1E9022358E777
:104A70000B460899C1E9002371E70A9BDB00049308
:104A800069E4002000214AAC25E7002000215CE712
:104A9000000070410000703E2DE9F04F55EC104BC6
:104AA0002DED028BB0EE418AF0EE618A25F00043D5
:104AB000B3F1795F83B0824607DA10EE100A294617
:104AC00001F00AF8002800F08E8022462B4620468E
:104AD000294600F051FD06460F4602460B46204689
:104AE000294600F049FD47A3D3E9002380468946C3
:104AF0003046394600F040FD44A3D3E9002300F0DE
:104B000087FB32463B4600F037FD42A3D3E9002342
:104B100000F080FB32463B4600F02EFD3FA3D3E978
:104B2000002300F075FB32463B4600F025FD3DA317
:104B3000D3E9002300F06EFBCDE90001BAF1000FCC
:104B400037D000222E4B51EC180B00F015FDDDE99B
:104B5000002382468B464046494600F00DFD024642
:104B60000B465046594600F053FB32463B4600F098
:104B700003FD53EC182B00F04BFB1FA3D3E90023DC
:104B800006460F464046494600F0F6FC02460B46F4
:104B90003046394600F03EFB02460B462046294689
:104BA00000F036FB41EC100B03B0BDEC028BBDE80E
:104BB000F08F02460B463046394600F0DDFC0EA36E
:104BC000D3E9002300F024FB42464B4600F0D4FC1E
:104BD00022462B4600F01EFB41EC100B03B0BDEC4F
:104BE000028BBDE8F08F45EC104B03B0BDEC028B9F
:104BF000BDE8F08FAFF30080495555555555C53F79
:104C00000000E03F7CD5CF5A3AD9E53DEB9C2B8A9A
:104C1000E6E55A3E7DFEB157E31DC73ED561C11999
:104C2000A0012A3FA6F810111111813FFFFFFFFFDD
:104C30002DE9F84F55EC104BD14B25F000469E4224
:104C4000AB4610DDCF4B9E4200F3B28000F0AD804A
:104C5000BBF1000F40F3FD80ADA5D5E9004545EC63
:104C6000104BBDE8F88FC84B9E4200F3C080A3F103
:104C7000DE739E4240F3A8804FF0FF3A22462B4657
:104C80002046294600F078FC02460B4680468946BD
:104C900000F072FCA0A3D3E9002306460F4600F003
:104CA0006BFC9FA3D3E9002300F0B4FA32463B46E5
:104CB00000F062FC9CA3D3E9002300F0ABFA32467B
:104CC0003B4600F059FC9AA3D3E9002300F0A2FA76
:104CD00032463B4600F050FC97A3D3E9002300F096
:104CE00099FA32463B4600F047FC95A3D3E90023EE
:104CF00000F090FA42464B4600F03EFC92A3D3E906
:104D00000023804689463046394600F035FC90A3A2
:104D1000D3E9002300F07CFA32463B4600F02CFC3D
:104D20008DA3D3E9002300F073FA32463B4600F02E
:104D300023FC8BA3D3E9002300F06AFA32463B46FA
:104D400000F01AFC88A3D3E9002300F061FA324690
:104D50003B4600F011FCBAF1FF3F02460B467CD007
:104D60004046494600F056FA22462B4600F004FC25
:104D7000864E874B4FEACA0A56449A44DAE9002322
:104D800000F046FA22462B4600F042FA02460B4655
:104D9000D6E9000100F03CFABBF1000F52DB0446FB
:104DA0000D4645EC104BBDE8F88F002C3FF450AF9A
:104DB00022462B462046294600F02CFA04460D4692
:104DC00045EC104BBDE8F88F69A3D3E9002310EE42
:104DD000100A294600F01EFA00226E4B00F05CFE1D
:104DE00000283FF449AF45EC104BBDE8F88F00F0C8
:104DF000DBF8694B9E4255EC104B3FDCA3F550238A
:104E00009E4268DC10EE102A10EE100A2B4629464E
:104E100000F000FA00225F4B00F0FAF9002206468B
:104E20000F464FF080432046294600F0F3F9024632
:104E30000B463046394600F0C9FC4FF0000A0446E4
:104E40000D461BE7044601F1004545EC104BBDE85B
:104E5000F88F49A5D5E90045B2E74046494600F03C
:104E6000D9F922462B4600F087FB02460B46204626
:104E7000294600F0CDF904460D46A1E7474B9E4276
:104E80001DDC10EE100A0022454B294600F0C0F947
:104E9000002206460F46424B2046294600F06CFB96
:104EA00000223C4B00F0B6F902460B46304639462C
:104EB00000F08CFC4FF0020A04460D46DEE62B465D
:104EC00010EE102A0020374900F080FC4FF0030A52
:104ED00004460D46D2E610EE100A00222D4B29465C
:104EE00000F096F9002206460F462A4B2046294636
:104EF00000F090F902460B463046394600F066FC59
:104F00004FF0010A04460D46B8E600BFAFF300803B
:104F1000182D4454FB21F93F11DA22E33AAD903FBA
:104F2000EB0D76244B7BA93F513DD0A0660DB13FE0
:104F30006E204CC5CD45B73FFF8300922449C23F48
:104F40000D5555555555D53F2F6C6A2C44B4A2BF0D
:104F50009AFDDE522DDEAD3F6D9A74AFF2B0B33FD5
:104F6000711623FEC671BC3FC4EB98999999C93F4D
:104F70009C7500883CE4377E182D4454FB21F9BF12
:104F8000FFFF0F440000F07FFFFFDB3FF8690000E8
:104F9000D86900000000F03FFFFFF23FFF7F0340B1
:104FA0000000F83F0000F0BF53EC102B23F000434B
:104FB00043EC102B704700BF51EC100BC1F30A53A8
:104FC0002DE9F041A3F2FF35132D0C460F4610EEEC
:104FD000106A1DDC002D43DB3D4B43FA05F801EA66
:104FE0000803034319D038A3D3E9002300F012F9D2
:104FF0000022002300F050FD20B1002C49DB27EAFD
:10500000080400262346324643EC102BBDE8F0810D
:10501000332D06DDB5F5806F32D041EC100BBDE8C5
:10502000F081A3F213434FF0FF3828FA03F810EA97
:10503000080FF2D024A3D3E9002300F0EBF80022FC
:10504000002300F029FD0028DCD0002C27DB3C46A3
:1050500026EA08062346324643EC102BBDE8F081D1
:1050600019A3D3E9002300F0D5F80022002300F0B3
:1050700013FD0028C6D0002C1CDB00263446C1E7F7
:1050800010EE102A0B4600F0C5F841EC100BBDE8FD
:10509000F0814FF4801343FA05F52F44AFE7142D48
:1050A00010D00123C5F1340503FA05F5AE1928BF68
:1050B000FF18CCE724F00042064B324318BF1C46D1
:1050C00000269FE70137C2E79C7500883CE4377EE5
:1050D000FFFF0F000000F0BF00207047FFFFFFFF41
:1050E00053EC102B70B5C3F30A541946054614BB94
:1050F00023F0004111432AD019460022384B394E83
:1051000010EE100A00F038FAB54202460B461FDBDB
:10511000C1F30A54363C2C4440F2FE7084421FDC3A
:10512000002C2DDD21F0FF4121F4E00141EA045380
:1051300043EC102B70BD40F2FF708442EBD110EEB7
:10514000100A194600F066F841EC100B70BD70BDF6
:105150001FA3D3E9002300F00FFA41EC100B70BD40
:1051600043EC112B9FED1C0B00F040F81AA3D3E980
:10517000002351EC100B00F0FFF941EC100B70BD57
:1051800014F1350F13DA4CF250318D4243EC112BF0
:10519000E8DC9FED0F0B00F029F80DA3D3E9002305
:1051A00051EC100B00F0E8F941EC100B70BD21F050
:1051B000FF4121F4E001363441EA04531046194618
:1051C0000022094B00F0D8F941EC100B70BD00BF74
:1051D00059F3F8C21F6EA5019C7500883CE4377E28
:1051E00000005043B03CFFFF0000903C53EC102BFC
:1051F00011EE900A23F0004100F0004041EA000364
:1052000043EC102B704700BF81F0004102E000BF6B
:1052100083F0004330B54FEA41044FEA430594EA76
:10522000050F08BF90EA020F1FBF54EA000C55EAB1
:10523000020C7FEA645C7FEA655C00F0E2804FEA82
:105240005454D4EB5555B8BF6D420CDD2C4480EA64
:10525000020281EA030382EA000083EA010180EA94
:10526000020281EA0303362D88BF30BD11F0004FE2
:105270004FEA01314FF4801C4CEA113102D0404218
:1052800061EB410113F0004F4FEA03334CEA133353
:1052900002D0524263EB430394EA050F00F0A7806B
:1052A000A4F10104D5F1200E0DDB02FA0EFC22FA66
:1052B00005F2801841F1000103FA0EF2801843FA5A
:1052C00005F359410EE0A5F120050EF1200E012A4B
:1052D00003FA0EFC28BF4CF0020C43FA05F3C01889
:1052E00051EBE37101F0004507D54FF0000EDCF102
:1052F000000C7EEB00006EEB0101B1F5801F1BD3AB
:10530000B1F5001F0CD349085FEA30004FEA3C0CAE
:1053100004F101044FEA445212F5800F80F09A80A4
:10532000BCF1004F08BF5FEA500C50F1000041EBA8
:10533000045141EA050130BD5FEA4C0C404141EBAC
:10534000010111F4801FA4F10104E9D191F0000FD3
:1053500004BF01460020B1FA81F308BF2033A3F156
:105360000B03B3F120020CDA0C3208DD02F1140C4D
:10537000C2F10C0201FA0CF021FA02F10CE002F188
:105380001402D8BFC2F1200C01FA02F120FA0CFC81
:10539000DCBF41EA0C019040E41AA2BF01EB0451CA
:1053A000294330BD6FEA04041F3C1CDA0C340EDCC8
:1053B00004F11404C4F1200220FA04F001FA02F30B
:1053C00040EA030021FA04F345EA030130BDC4F1C9
:1053D0000C04C4F1200220FA02F001FA04F340EABE
:1053E0000300294630BD21FA04F0294630BD94F06F
:1053F000000F83F4801306BF81F480110134013D56
:105400004EE77FEA645C18BF7FEA655C29D094EAC6
:10541000050F08BF90EA020F05D054EA000C04BF44
:105420001946104630BD91EA030F1EBF002100202F
:1054300030BD5FEA545C05D14000494128BF41F0CE
:10544000004130BD14F580043CBF01F5801130BD32
:1054500001F0004545F0FE4141F470014FF00000BD
:1054600030BD7FEA645C1ABF194610467FEA655C6E
:105470001CBF0B46024650EA013406BF52EA033510
:1054800091EA030F41F4002130BD00BF90F0000FFE
:1054900004BF0021704730B54FF4806404F132043A
:1054A0004FF000054FF0000150E700BF90F0000FF3
:1054B00004BF0021704730B54FF4806404F132041A
:1054C00010F0004548BF40424FF000013EE700BFEA
:1054D00042004FEAE2014FEA31014FEA02701FBF7A
:1054E00012F07F4393F07F4F81F06051704792F04C
:1054F000000F14BF93F07F4F704730B54FF46074C6
:1055000001F0004521F0004120E700BF50EA010210
:1055100008BF704730B54FF000050AE050EA0102BD
:1055200008BF704730B511F0004502D5404261EB2D
:1055300041014FF4806404F132045FEA915C3FF46E
:10554000DCAE4FF003025FEADC0C18BF03325FEA07
:10555000DC0C18BF033202EBDC02C2F1200300FABC
:1055600003FC20FA02F001FA03FE40EA0E0021FAE1
:1055700002F11444C1E600BF70B54FF0FF0C4CF4CB
:10558000E06C1CEA11541DBF1CEA135594EA0C0F81
:1055900095EA0C0F00F0DEF82C4481EA030621EABC
:1055A0004C5123EA4C5350EA013518BF52EA0335F7
:1055B00041F4801143F4801338D0A0FB02CE4FF0A9
:1055C0000005E1FB02E506F00042E0FB03E54FF0D9
:1055D0000006E1FB03569CF0000F18BF4EF0010ED1
:1055E000A4F1FF04B6F5007F64F5407404D25FEACD
:1055F0004E0E6D4146EB060642EAC62141EA555180
:105600004FEAC52040EA5E504FEACE2EB4F1FD0CC1
:1056100088BFBCF5E06F1ED8BEF1004F08BF5FEA3F
:10562000500E50F1000041EB045170BD06F00046F1
:1056300046EA010140EA020081EA0301B4EB5C049E
:10564000C2BFD4EB0C0541EA045170BD41F4801196
:105650004FF0000E013C00F3AB8014F1360FDEBFBB
:10566000002001F0004170BDC4F10004203C35DA97
:105670000C341BDC04F11404C4F1200500FA05F31A
:1056800020FA04F001FA05F240EA020001F00042BB
:1056900021F0004110EBD37021FA04F642EB060131
:1056A0005EEA430E08BF20EAD37070BDC4F10C045B
:1056B000C4F1200500FA04F320FA05F001FA04F21F
:1056C00040EA020001F0004110EBD37041F100010B
:1056D0005EEA430E08BF20EAD37070BDC4F1200516
:1056E00000FA05F24EEA020E20FA04F301FA05F27E
:1056F00043EA020321FA04F001F0004121FA04F226
:1057000020EA020000EBD3705EEA430E08BF20EAF5
:10571000D37070BD94F0000F0FD101F0004640002F
:1057200041EB010111F4801F08BF013CF7D041EAB1
:10573000060195F0000F18BF704703F000465200B5
:1057400043EB030313F4801F08BF013DF7D043EA86
:105750000603704794EA0C0F0CEA135518BF95EA3C
:105760000C0F0CD050EA410618BF52EA4306D1D1C3
:1057700081EA030101F000414FF0000070BD50EAE2
:10578000410606BF1046194652EA430619D094EA6C
:105790000C0F02D150EA013613D195EA0C0F05D156
:1057A00052EA03361CBF104619460AD181EA0301AA
:1057B00001F0004141F0FE4141F470014FF0000062
:1057C00070BD41F0FE4141F4780170BD70B54FF0FD
:1057D000FF0C4CF4E06C1CEA11541DBF1CEA13557D
:1057E00094EA0C0F95EA0C0F00F0A7F8A4EB05045F
:1057F00081EA030E52EA03354FEA013100F0888056
:105800004FEA03334FF0805545EA131343EA12631E
:105810004FEA022245EA111545EA10654FEA0026D3
:105820000EF000419D4208BF964244F1FD0404F58C
:10583000407402D25B084FEA3202B61A65EB0305E8
:105840005B084FEA32024FF480104FF4002CB6EBA5
:10585000020E75EB030E22BFB61A754640EA0C0025
:105860005B084FEA3202B6EB020E75EB030E22BF65
:10587000B61A754640EA5C005B084FEA3202B6EBA6
:10588000020E75EB030E22BFB61A754640EA9C0065
:105890005B084FEA3202B6EB020E75EB030E22BF35
:1058A000B61A754640EADC0055EA060E18D04FEAF3
:1058B000051545EA16754FEA06164FEAC30343EA93
:1058C00052734FEAC2025FEA1C1CC0D111F4801F60
:1058D0000BD141EA00014FF000004FF0004CB6E759
:1058E00011F4801F04BF01430020B4F1FD0C88BFF8
:1058F000BCF5E06F3FF6AFAEB5EB030C04BFB6EB03
:10590000020C5FEA500C50F1000041EB045170BDF5
:105910000EF0004E4EEA113114EB5C04C2BFD4EB22
:105920000C0541EA045170BD41F480114FF0000EA6
:10593000013C90E645EA060E8DE60CEA135594EA22
:105940000C0F08BF95EA0C0F3FF43BAF94EA0C0F25
:105950000AD150EA01347FF434AF95EA0C0F7FF49A
:1059600025AF104619462CE795EA0C0F06D152EAEE
:1059700003353FF4FDAE1046194622E750EA4106D2
:1059800018BF52EA43067FF4C5AE50EA41047FF4E3
:105990000DAF52EA43057FF4EBAE12E74FF0FF3C48
:1059A00006E000BF4FF0010C02E000BF4FF0010C19
:1059B0004DF804CD4FEA410C7FEA6C5C4FEA430C92
:1059C00018BF7FEA6C5C1BD001B050EA410C0CBFE1
:1059D00052EA430C91EA030F02BF90EA020F002043
:1059E000704710F1000F91EA030F58BF994208BFAA
:1059F00090422CBFD8176FEAE37040F00100704767
:105A00004FEA410C7FEA6C5C02D150EA013C07D1BD
:105A10004FEA430C7FEA6C5CD6D152EA033CD3D008
:105A20005DF8040B704700BF8446104662468C4602
:105A30001946634600E000BF01B5FFF7B7FF002835
:105A400048BF10F1000F01BD4DF808EDFFF7F4FF5E
:105A50000CBF012000205DF808FB00BF4DF808EDE9
:105A6000FFF7EAFF34BF012000205DF808FB00BF0C
:105A70004DF808EDFFF7E0FF94BF012000205DF82E
:105A800008FB00BF4DF808EDFFF7CEFF94BF0120E3
:105A900000205DF808FB00BF4DF808EDFFF7C4FFDC
:105AA00034BF012000205DF808FB00BF4FEA410C25
:105AB0007FEA6C5C02D150EA013C0AD14FEA430C08
:105AC0007FEA6C5C02D152EA033C02D14FF0000045
:105AD00070474FF0010070474FEA410212F5001283
